{
	"contracts/Vote.sol": {
		"Vote": {
			"abi": [
				{
					"anonymous": false,
					"inputs": [
						{
							"indexed": false,
							"internalType": "uint256",
							"name": "id",
							"type": "uint256"
						},
						{
							"indexed": false,
							"internalType": "string",
							"name": "name",
							"type": "string"
						}
					],
					"name": "CandidateAdded",
					"type": "event"
				},
				{
					"anonymous": false,
					"inputs": [
						{
							"indexed": true,
							"internalType": "address",
							"name": "oldOwner",
							"type": "address"
						},
						{
							"indexed": true,
							"internalType": "address",
							"name": "newOwner",
							"type": "address"
						}
					],
					"name": "OwnerChanged",
					"type": "event"
				},
				{
					"anonymous": false,
					"inputs": [
						{
							"indexed": true,
							"internalType": "address",
							"name": "voter",
							"type": "address"
						},
						{
							"indexed": true,
							"internalType": "uint256",
							"name": "candidateId",
							"type": "uint256"
						}
					],
					"name": "VoteCast",
					"type": "event"
				},
				{
					"anonymous": false,
					"inputs": [
						{
							"indexed": true,
							"internalType": "address",
							"name": "voterAddress",
							"type": "address"
						},
						{
							"indexed": false,
							"internalType": "uint256",
							"name": "id",
							"type": "uint256"
						}
					],
					"name": "VoterRegistered",
					"type": "event"
				},
				{
					"anonymous": false,
					"inputs": [],
					"name": "VotingFinished",
					"type": "event"
				},
				{
					"anonymous": false,
					"inputs": [],
					"name": "VotingStarted",
					"type": "event"
				},
				{
					"inputs": [
						{
							"internalType": "string",
							"name": "name",
							"type": "string"
						}
					],
					"name": "addCandidateToVote",
					"outputs": [],
					"stateMutability": "nonpayable",
					"type": "function"
				},
				{
					"inputs": [
						{
							"internalType": "uint256",
							"name": "",
							"type": "uint256"
						}
					],
					"name": "candidates",
					"outputs": [
						{
							"internalType": "uint256",
							"name": "id",
							"type": "uint256"
						},
						{
							"internalType": "string",
							"name": "name",
							"type": "string"
						},
						{
							"internalType": "uint256",
							"name": "votes",
							"type": "uint256"
						}
					],
					"stateMutability": "view",
					"type": "function"
				},
				{
					"inputs": [],
					"name": "finishVoting",
					"outputs": [],
					"stateMutability": "nonpayable",
					"type": "function"
				},
				{
					"inputs": [
						{
							"internalType": "uint256",
							"name": "id",
							"type": "uint256"
						}
					],
					"name": "getCandidate",
					"outputs": [
						{
							"internalType": "uint256",
							"name": "",
							"type": "uint256"
						},
						{
							"internalType": "string",
							"name": "",
							"type": "string"
						},
						{
							"internalType": "uint256",
							"name": "",
							"type": "uint256"
						}
					],
					"stateMutability": "view",
					"type": "function"
				},
				{
					"inputs": [],
					"name": "owner",
					"outputs": [
						{
							"internalType": "address",
							"name": "",
							"type": "address"
						}
					],
					"stateMutability": "view",
					"type": "function"
				},
				{
					"inputs": [
						{
							"internalType": "address",
							"name": "voterAddress",
							"type": "address"
						}
					],
					"name": "registerVoterToVote",
					"outputs": [],
					"stateMutability": "nonpayable",
					"type": "function"
				},
				{
					"inputs": [],
					"name": "startVoting",
					"outputs": [],
					"stateMutability": "nonpayable",
					"type": "function"
				},
				{
					"inputs": [],
					"name": "status",
					"outputs": [
						{
							"internalType": "enum Vote.Status",
							"name": "",
							"type": "uint8"
						}
					],
					"stateMutability": "view",
					"type": "function"
				},
				{
					"inputs": [],
					"name": "totalCandidates",
					"outputs": [
						{
							"internalType": "uint256",
							"name": "",
							"type": "uint256"
						}
					],
					"stateMutability": "view",
					"type": "function"
				},
				{
					"inputs": [
						{
							"internalType": "uint256",
							"name": "candidateId",
							"type": "uint256"
						}
					],
					"name": "vote",
					"outputs": [],
					"stateMutability": "nonpayable",
					"type": "function"
				},
				{
					"inputs": [],
					"name": "voterCount",
					"outputs": [
						{
							"internalType": "uint256",
							"name": "",
							"type": "uint256"
						}
					],
					"stateMutability": "view",
					"type": "function"
				},
				{
					"inputs": [
						{
							"internalType": "address",
							"name": "",
							"type": "address"
						}
					],
					"name": "voters",
					"outputs": [
						{
							"internalType": "uint256",
							"name": "id",
							"type": "uint256"
						},
						{
							"internalType": "bool",
							"name": "isRegistered",
							"type": "bool"
						},
						{
							"internalType": "bool",
							"name": "hasVoted",
							"type": "bool"
						}
					],
					"stateMutability": "view",
					"type": "function"
				}
			],
			"devdoc": {
				"kind": "dev",
				"methods": {},
				"version": 1
			},
			"evm": {
				"assembly": "    /* \"contracts/Vote.sol\":329:3880  contract Vote is CandidateRegistry, VoterRegistry {... */\n  mstore(0x40, 0x80)\n  callvalue\n  dup1\n  iszero\n  tag_1\n  jumpi\n  revert(0x00, 0x00)\ntag_1:\n  pop\n    /* \"contracts/Ownable.sol\":633:643  msg.sender */\n  caller\n    /* \"contracts/Ownable.sol\":625:630  owner */\n  0x00\n  0x00\n    /* \"contracts/Ownable.sol\":625:643  owner = msg.sender */\n  0x0100\n  exp\n  dup2\n  sload\n  dup2\n  0xffffffffffffffffffffffffffffffffffffffff\n  mul\n  not\n  and\n  swap1\n  dup4\n  0xffffffffffffffffffffffffffffffffffffffff\n  and\n  mul\n  or\n  swap1\n  sstore\n  pop\n    /* \"contracts/Ownable.sol\":683:693  msg.sender */\n  caller\n    /* \"contracts/Ownable.sol\":658:694  OwnerChanged(address(0), msg.sender) */\n  0xffffffffffffffffffffffffffffffffffffffff\n  and\n    /* \"contracts/Ownable.sol\":679:680  0 */\n  0x00\n    /* \"contracts/Ownable.sol\":658:694  OwnerChanged(address(0), msg.sender) */\n  0xffffffffffffffffffffffffffffffffffffffff\n  and\n  0xb532073b38c83145e3e5135377a08bf9aab55bc0fd7c1179cd4fb995d2a5159c\n  mload(0x40)\n  mload(0x40)\n  dup1\n  swap2\n  sub\n  swap1\n  log3\n    /* \"contracts/Vote.sol\":329:3880  contract Vote is CandidateRegistry, VoterRegistry {... */\n  dataSize(sub_0)\n  dup1\n  dataOffset(sub_0)\n  0x00\n  codecopy\n  0x00\n  return\nstop\n\nsub_0: assembly {\n        /* \"contracts/Vote.sol\":329:3880  contract Vote is CandidateRegistry, VoterRegistry {... */\n      mstore(0x40, 0x80)\n      callvalue\n      dup1\n      iszero\n      tag_1\n      jumpi\n      revert(0x00, 0x00)\n    tag_1:\n      pop\n      jumpi(tag_2, lt(calldatasize, 0x04))\n      shr(0xe0, calldataload(0x00))\n      dup1\n      0x42169e48\n      gt\n      tag_15\n      jumpi\n      dup1\n      0x42169e48\n      eq\n      tag_9\n      jumpi\n      dup1\n      0x8da5cb5b\n      eq\n      tag_10\n      jumpi\n      dup1\n      0x93c0992e\n      eq\n      tag_11\n      jumpi\n      dup1\n      0xa3ec138d\n      eq\n      tag_12\n      jumpi\n      dup1\n      0xb73e5879\n      eq\n      tag_13\n      jumpi\n      dup1\n      0xf9094303\n      eq\n      tag_14\n      jumpi\n      jump(tag_2)\n    tag_15:\n      dup1\n      0x0121b93f\n      eq\n      tag_3\n      jumpi\n      dup1\n      0x1ec6b60a\n      eq\n      tag_4\n      jumpi\n      dup1\n      0x200d2ed2\n      eq\n      tag_5\n      jumpi\n      dup1\n      0x3477ee2e\n      eq\n      tag_6\n      jumpi\n      dup1\n      0x35b8e820\n      eq\n      tag_7\n      jumpi\n      dup1\n      0x3866965c\n      eq\n      tag_8\n      jumpi\n    tag_2:\n      revert(0x00, 0x00)\n        /* \"contracts/Vote.sol\":2799:3877  function vote(uint candidateId) external onlyDuringVoting {... */\n    tag_3:\n      tag_16\n      0x04\n      dup1\n      calldatasize\n      sub\n      dup2\n      add\n      swap1\n      tag_17\n      swap2\n      swap1\n      tag_18\n      jump\t// in\n    tag_17:\n      tag_19\n      jump\t// in\n    tag_16:\n      stop\n        /* \"contracts/Vote.sol\":2260:2459  function startVoting() external onlyOwner {... */\n    tag_4:\n      tag_20\n      tag_21\n      jump\t// in\n    tag_20:\n      stop\n        /* \"contracts/Vote.sol\":830:850  Status public status */\n    tag_5:\n      tag_22\n      tag_23\n      jump\t// in\n    tag_22:\n      mload(0x40)\n      tag_24\n      swap2\n      swap1\n      tag_25\n      jump\t// in\n    tag_24:\n      mload(0x40)\n      dup1\n      swap2\n      sub\n      swap1\n      return\n        /* \"contracts/CandidateRegistry.sol\":372:401  Candidate[] public candidates */\n    tag_6:\n      tag_26\n      0x04\n      dup1\n      calldatasize\n      sub\n      dup2\n      add\n      swap1\n      tag_27\n      swap2\n      swap1\n      tag_18\n      jump\t// in\n    tag_27:\n      tag_28\n      jump\t// in\n    tag_26:\n      mload(0x40)\n      tag_29\n      swap4\n      swap3\n      swap2\n      swap1\n      tag_30\n      jump\t// in\n    tag_29:\n      mload(0x40)\n      dup1\n      swap2\n      sub\n      swap1\n      return\n        /* \"contracts/CandidateRegistry.sol\":1786:2028  function getCandidate(uint id) external view returns (uint, string memory, uint) {... */\n    tag_7:\n      tag_31\n      0x04\n      dup1\n      calldatasize\n      sub\n      dup2\n      add\n      swap1\n      tag_32\n      swap2\n      swap1\n      tag_18\n      jump\t// in\n    tag_32:\n      tag_33\n      jump\t// in\n    tag_31:\n      mload(0x40)\n      tag_34\n      swap4\n      swap3\n      swap2\n      swap1\n      tag_30\n      jump\t// in\n    tag_34:\n      mload(0x40)\n      dup1\n      swap2\n      sub\n      swap1\n      return\n        /* \"contracts/CandidateRegistry.sol\":2156:2253  function totalCandidates() external view returns (uint) {... */\n    tag_8:\n      tag_35\n      tag_36\n      jump\t// in\n    tag_35:\n      mload(0x40)\n      tag_37\n      swap2\n      swap1\n      tag_38\n      jump\t// in\n    tag_37:\n      mload(0x40)\n      dup1\n      swap2\n      sub\n      swap1\n      return\n        /* \"contracts/VoterRegistry.sol\":526:548  uint public voterCount */\n    tag_9:\n      tag_39\n      tag_40\n      jump\t// in\n    tag_39:\n      mload(0x40)\n      tag_41\n      swap2\n      swap1\n      tag_38\n      jump\t// in\n    tag_41:\n      mload(0x40)\n      dup1\n      swap2\n      sub\n      swap1\n      return\n        /* \"contracts/Ownable.sol\":249:269  address public owner */\n    tag_10:\n      tag_42\n      tag_43\n      jump\t// in\n    tag_42:\n      mload(0x40)\n      tag_44\n      swap2\n      swap1\n      tag_45\n      jump\t// in\n    tag_44:\n      mload(0x40)\n      dup1\n      swap2\n      sub\n      swap1\n      return\n        /* \"contracts/Vote.sol\":1892:2169  function registerVoterToVote(address voterAddress) external onlyOwner {... */\n    tag_11:\n      tag_46\n      0x04\n      dup1\n      calldatasize\n      sub\n      dup2\n      add\n      swap1\n      tag_47\n      swap2\n      swap1\n      tag_48\n      jump\t// in\n    tag_47:\n      tag_49\n      jump\t// in\n    tag_46:\n      stop\n        /* \"contracts/VoterRegistry.sol\":681:720  mapping(address => Voter) public voters */\n    tag_12:\n      tag_50\n      0x04\n      dup1\n      calldatasize\n      sub\n      dup2\n      add\n      swap1\n      tag_51\n      swap2\n      swap1\n      tag_48\n      jump\t// in\n    tag_51:\n      tag_52\n      jump\t// in\n    tag_50:\n      mload(0x40)\n      tag_53\n      swap4\n      swap3\n      swap2\n      swap1\n      tag_54\n      jump\t// in\n    tag_53:\n      mload(0x40)\n      dup1\n      swap2\n      sub\n      swap1\n      return\n        /* \"contracts/Vote.sol\":1479:1746  function addCandidateToVote(string memory name) external onlyOwner {... */\n    tag_13:\n      tag_55\n      0x04\n      dup1\n      calldatasize\n      sub\n      dup2\n      add\n      swap1\n      tag_56\n      swap2\n      swap1\n      tag_57\n      jump\t// in\n    tag_56:\n      tag_58\n      jump\t// in\n    tag_55:\n      stop\n        /* \"contracts/Vote.sol\":2556:2691  function finishVoting() external onlyOwner onlyDuringVoting {... */\n    tag_14:\n      tag_59\n      tag_60\n      jump\t// in\n    tag_59:\n      stop\n        /* \"contracts/Vote.sol\":2799:3877  function vote(uint candidateId) external onlyDuringVoting {... */\n    tag_19:\n        /* \"contracts/Vote.sol\":1270:1283  Status.Active */\n      0x01\n        /* \"contracts/Vote.sol\":1260:1283  status == Status.Active */\n      0x02\n      dup2\n      gt\n      iszero\n      tag_62\n      jumpi\n      tag_63\n      tag_64\n      jump\t// in\n    tag_63:\n    tag_62:\n        /* \"contracts/Vote.sol\":1260:1266  status */\n      0x04\n      0x00\n      swap1\n      sload\n      swap1\n      0x0100\n      exp\n      swap1\n      div\n      0xff\n      and\n        /* \"contracts/Vote.sol\":1260:1283  status == Status.Active */\n      0x02\n      dup2\n      gt\n      iszero\n      tag_65\n      jumpi\n      tag_66\n      tag_64\n      jump\t// in\n    tag_66:\n    tag_65:\n      eq\n        /* \"contracts/Vote.sol\":1252:1308  require(status == Status.Active, \"Voting is not active\") */\n      tag_67\n      jumpi\n      mload(0x40)\n      0x08c379a000000000000000000000000000000000000000000000000000000000\n      dup2\n      mstore\n      0x04\n      add\n      tag_68\n      swap1\n      tag_69\n      jump\t// in\n    tag_68:\n      mload(0x40)\n      dup1\n      swap2\n      sub\n      swap1\n      revert\n    tag_67:\n        /* \"contracts/Vote.sol\":3005:3030  Voter storage senderVoter */\n      0x00\n        /* \"contracts/Vote.sol\":3033:3039  voters */\n      0x03\n        /* \"contracts/Vote.sol\":3033:3051  voters[msg.sender] */\n      0x00\n        /* \"contracts/Vote.sol\":3040:3050  msg.sender */\n      caller\n        /* \"contracts/Vote.sol\":3033:3051  voters[msg.sender] */\n      0xffffffffffffffffffffffffffffffffffffffff\n      and\n      0xffffffffffffffffffffffffffffffffffffffff\n      and\n      dup2\n      mstore\n      0x20\n      add\n      swap1\n      dup2\n      mstore\n      0x20\n      add\n      0x00\n      keccak256\n        /* \"contracts/Vote.sol\":3005:3051  Voter storage senderVoter = voters[msg.sender] */\n      swap1\n      pop\n        /* \"contracts/Vote.sol\":3195:3206  senderVoter */\n      dup1\n        /* \"contracts/Vote.sol\":3195:3219  senderVoter.isRegistered */\n      0x01\n      add\n      0x00\n      swap1\n      sload\n      swap1\n      0x0100\n      exp\n      swap1\n      div\n      0xff\n      and\n        /* \"contracts/Vote.sol\":3187:3254  require(senderVoter.isRegistered, \"You are not registered to vote\") */\n      tag_71\n      jumpi\n      mload(0x40)\n      0x08c379a000000000000000000000000000000000000000000000000000000000\n      dup2\n      mstore\n      0x04\n      add\n      tag_72\n      swap1\n      tag_73\n      jump\t// in\n    tag_72:\n      mload(0x40)\n      dup1\n      swap2\n      sub\n      swap1\n      revert\n    tag_71:\n        /* \"contracts/Vote.sol\":3389:3400  senderVoter */\n      dup1\n        /* \"contracts/Vote.sol\":3389:3409  senderVoter.hasVoted */\n      0x01\n      add\n      0x01\n      swap1\n      sload\n      swap1\n      0x0100\n      exp\n      swap1\n      div\n      0xff\n      and\n        /* \"contracts/Vote.sol\":3388:3409  !senderVoter.hasVoted */\n      iszero\n        /* \"contracts/Vote.sol\":3380:3436  require(!senderVoter.hasVoted, \"You have already voted\") */\n      tag_74\n      jumpi\n      mload(0x40)\n      0x08c379a000000000000000000000000000000000000000000000000000000000\n      dup2\n      mstore\n      0x04\n      add\n      tag_75\n      swap1\n      tag_76\n      jump\t// in\n    tag_75:\n      mload(0x40)\n      dup1\n      swap2\n      sub\n      swap1\n      revert\n    tag_74:\n        /* \"contracts/Vote.sol\":3520:3524  true */\n      0x01\n        /* \"contracts/Vote.sol\":3497:3508  senderVoter */\n      dup2\n        /* \"contracts/Vote.sol\":3497:3517  senderVoter.hasVoted */\n      0x01\n      add\n      0x01\n        /* \"contracts/Vote.sol\":3497:3524  senderVoter.hasVoted = true */\n      0x0100\n      exp\n      dup2\n      sload\n      dup2\n      0xff\n      mul\n      not\n      and\n      swap1\n      dup4\n      iszero\n      iszero\n      mul\n      or\n      swap1\n      sstore\n      pop\n        /* \"contracts/Vote.sol\":3616:3642  voteCandidate(candidateId) */\n      tag_77\n        /* \"contracts/Vote.sol\":3630:3641  candidateId */\n      dup3\n        /* \"contracts/Vote.sol\":3616:3629  voteCandidate */\n      tag_78\n        /* \"contracts/Vote.sol\":3616:3642  voteCandidate(candidateId) */\n      jump\t// in\n    tag_77:\n        /* \"contracts/Vote.sol\":3857:3868  candidateId */\n      dup2\n        /* \"contracts/Vote.sol\":3845:3855  msg.sender */\n      caller\n        /* \"contracts/Vote.sol\":3836:3869  VoteCast(msg.sender, candidateId) */\n      0xffffffffffffffffffffffffffffffffffffffff\n      and\n      0xa36cc2bebb74db33e9f88110a07ef56e1b31b24b4c4f51b54b1664266e29f45b\n      mload(0x40)\n      mload(0x40)\n      dup1\n      swap2\n      sub\n      swap1\n      log3\n        /* \"contracts/Vote.sol\":2857:3877  {... */\n      pop\n        /* \"contracts/Vote.sol\":2799:3877  function vote(uint candidateId) external onlyDuringVoting {... */\n      pop\n      jump\t// out\n        /* \"contracts/Vote.sol\":2260:2459  function startVoting() external onlyOwner {... */\n    tag_21:\n        /* \"contracts/Ownable.sol\":875:880  owner */\n      0x00\n      0x00\n      swap1\n      sload\n      swap1\n      0x0100\n      exp\n      swap1\n      div\n      0xffffffffffffffffffffffffffffffffffffffff\n      and\n        /* \"contracts/Ownable.sol\":861:880  msg.sender == owner */\n      0xffffffffffffffffffffffffffffffffffffffff\n      and\n        /* \"contracts/Ownable.sol\":861:871  msg.sender */\n      caller\n        /* \"contracts/Ownable.sol\":861:880  msg.sender == owner */\n      0xffffffffffffffffffffffffffffffffffffffff\n      and\n      eq\n        /* \"contracts/Ownable.sol\":853:897  require(msg.sender == owner, \"Not an owner\") */\n      tag_80\n      jumpi\n      mload(0x40)\n      0x08c379a000000000000000000000000000000000000000000000000000000000\n      dup2\n      mstore\n      0x04\n      add\n      tag_81\n      swap1\n      tag_82\n      jump\t// in\n    tag_81:\n      mload(0x40)\n      dup1\n      swap2\n      sub\n      swap1\n      revert\n    tag_80:\n        /* \"contracts/Vote.sol\":2331:2348  Status.NotStarted */\n      0x00\n        /* \"contracts/Vote.sol\":2321:2348  status == Status.NotStarted */\n      0x02\n      dup2\n      gt\n      iszero\n      tag_84\n      jumpi\n      tag_85\n      tag_64\n      jump\t// in\n    tag_85:\n    tag_84:\n        /* \"contracts/Vote.sol\":2321:2327  status */\n      0x04\n      0x00\n      swap1\n      sload\n      swap1\n      0x0100\n      exp\n      swap1\n      div\n      0xff\n      and\n        /* \"contracts/Vote.sol\":2321:2348  status == Status.NotStarted */\n      0x02\n      dup2\n      gt\n      iszero\n      tag_86\n      jumpi\n      tag_87\n      tag_64\n      jump\t// in\n    tag_87:\n    tag_86:\n      eq\n        /* \"contracts/Vote.sol\":2313:2387  require(status == Status.NotStarted, \"Voting already started or finished\") */\n      tag_88\n      jumpi\n      mload(0x40)\n      0x08c379a000000000000000000000000000000000000000000000000000000000\n      dup2\n      mstore\n      0x04\n      add\n      tag_89\n      swap1\n      tag_90\n      jump\t// in\n    tag_89:\n      mload(0x40)\n      dup1\n      swap2\n      sub\n      swap1\n      revert\n    tag_88:\n        /* \"contracts/Vote.sol\":2407:2420  Status.Active */\n      0x01\n        /* \"contracts/Vote.sol\":2398:2404  status */\n      0x04\n      0x00\n        /* \"contracts/Vote.sol\":2398:2420  status = Status.Active */\n      0x0100\n      exp\n      dup2\n      sload\n      dup2\n      0xff\n      mul\n      not\n      and\n      swap1\n      dup4\n      0x02\n      dup2\n      gt\n      iszero\n      tag_91\n      jumpi\n      tag_92\n      tag_64\n      jump\t// in\n    tag_92:\n    tag_91:\n      mul\n      or\n      swap1\n      sstore\n      pop\n        /* \"contracts/Vote.sol\":2436:2451  VotingStarted() */\n      0x877e2548498f42b7975a186b94ef1d32c86d420b7b806dd2be2bea293b895904\n      mload(0x40)\n      mload(0x40)\n      dup1\n      swap2\n      sub\n      swap1\n      log1\n        /* \"contracts/Vote.sol\":2260:2459  function startVoting() external onlyOwner {... */\n      jump\t// out\n        /* \"contracts/Vote.sol\":830:850  Status public status */\n    tag_23:\n      0x04\n      0x00\n      swap1\n      sload\n      swap1\n      0x0100\n      exp\n      swap1\n      div\n      0xff\n      and\n      dup2\n      jump\t// out\n        /* \"contracts/CandidateRegistry.sol\":372:401  Candidate[] public candidates */\n    tag_28:\n      0x01\n      dup2\n      dup2\n      sload\n      dup2\n      lt\n      tag_93\n      jumpi\n      0x00\n      dup1\n      revert\n    tag_93:\n      swap1\n      0x00\n      mstore\n      keccak256(0x00, 0x20)\n      swap1\n      0x03\n      mul\n      add\n      0x00\n      swap2\n      pop\n      swap1\n      pop\n      dup1\n      0x00\n      add\n      sload\n      swap1\n      dup1\n      0x01\n      add\n      dup1\n      sload\n      tag_95\n      swap1\n      tag_96\n      jump\t// in\n    tag_95:\n      dup1\n      0x1f\n      add\n      0x20\n      dup1\n      swap2\n      div\n      mul\n      0x20\n      add\n      mload(0x40)\n      swap1\n      dup2\n      add\n      0x40\n      mstore\n      dup1\n      swap3\n      swap2\n      swap1\n      dup2\n      dup2\n      mstore\n      0x20\n      add\n      dup3\n      dup1\n      sload\n      tag_97\n      swap1\n      tag_96\n      jump\t// in\n    tag_97:\n      dup1\n      iszero\n      tag_98\n      jumpi\n      dup1\n      0x1f\n      lt\n      tag_99\n      jumpi\n      0x0100\n      dup1\n      dup4\n      sload\n      div\n      mul\n      dup4\n      mstore\n      swap2\n      0x20\n      add\n      swap2\n      jump(tag_98)\n    tag_99:\n      dup3\n      add\n      swap2\n      swap1\n      0x00\n      mstore\n      keccak256(0x00, 0x20)\n      swap1\n    tag_100:\n      dup2\n      sload\n      dup2\n      mstore\n      swap1\n      0x01\n      add\n      swap1\n      0x20\n      add\n      dup1\n      dup4\n      gt\n      tag_100\n      jumpi\n      dup3\n      swap1\n      sub\n      0x1f\n      and\n      dup3\n      add\n      swap2\n    tag_98:\n      pop\n      pop\n      pop\n      pop\n      pop\n      swap1\n      dup1\n      0x02\n      add\n      sload\n      swap1\n      pop\n      dup4\n      jump\t// out\n        /* \"contracts/CandidateRegistry.sol\":1786:2028  function getCandidate(uint id) external view returns (uint, string memory, uint) {... */\n    tag_33:\n        /* \"contracts/CandidateRegistry.sol\":1840:1844  uint */\n      0x00\n        /* \"contracts/CandidateRegistry.sol\":1846:1859  string memory */\n      0x60\n        /* \"contracts/CandidateRegistry.sol\":1861:1865  uint */\n      0x00\n        /* \"contracts/CandidateRegistry.sol\":1890:1900  candidates */\n      0x01\n        /* \"contracts/CandidateRegistry.sol\":1890:1907  candidates.length */\n      dup1\n      sload\n      swap1\n      pop\n        /* \"contracts/CandidateRegistry.sol\":1885:1887  id */\n      dup5\n        /* \"contracts/CandidateRegistry.sol\":1885:1907  id < candidates.length */\n      lt\n        /* \"contracts/CandidateRegistry.sol\":1877:1936  require(id < candidates.length, \"Candidate does not exist\") */\n      tag_102\n      jumpi\n      mload(0x40)\n      0x08c379a000000000000000000000000000000000000000000000000000000000\n      dup2\n      mstore\n      0x04\n      add\n      tag_103\n      swap1\n      tag_104\n      jump\t// in\n    tag_103:\n      mload(0x40)\n      dup1\n      swap2\n      sub\n      swap1\n      revert\n    tag_102:\n        /* \"contracts/CandidateRegistry.sol\":1946:1964  Candidate memory c */\n      0x00\n        /* \"contracts/CandidateRegistry.sol\":1967:1977  candidates */\n      0x01\n        /* \"contracts/CandidateRegistry.sol\":1978:1980  id */\n      dup6\n        /* \"contracts/CandidateRegistry.sol\":1967:1981  candidates[id] */\n      dup2\n      sload\n      dup2\n      lt\n      tag_105\n      jumpi\n      tag_106\n      tag_107\n      jump\t// in\n    tag_106:\n    tag_105:\n      swap1\n      0x00\n      mstore\n      keccak256(0x00, 0x20)\n      swap1\n      0x03\n      mul\n      add\n        /* \"contracts/CandidateRegistry.sol\":1946:1981  Candidate memory c = candidates[id] */\n      mload(0x40)\n      dup1\n      0x60\n      add\n      0x40\n      mstore\n      swap1\n      dup2\n      0x00\n      dup3\n      add\n      sload\n      dup2\n      mstore\n      0x20\n      add\n      0x01\n      dup3\n      add\n      dup1\n      sload\n      tag_109\n      swap1\n      tag_96\n      jump\t// in\n    tag_109:\n      dup1\n      0x1f\n      add\n      0x20\n      dup1\n      swap2\n      div\n      mul\n      0x20\n      add\n      mload(0x40)\n      swap1\n      dup2\n      add\n      0x40\n      mstore\n      dup1\n      swap3\n      swap2\n      swap1\n      dup2\n      dup2\n      mstore\n      0x20\n      add\n      dup3\n      dup1\n      sload\n      tag_110\n      swap1\n      tag_96\n      jump\t// in\n    tag_110:\n      dup1\n      iszero\n      tag_111\n      jumpi\n      dup1\n      0x1f\n      lt\n      tag_112\n      jumpi\n      0x0100\n      dup1\n      dup4\n      sload\n      div\n      mul\n      dup4\n      mstore\n      swap2\n      0x20\n      add\n      swap2\n      jump(tag_111)\n    tag_112:\n      dup3\n      add\n      swap2\n      swap1\n      0x00\n      mstore\n      keccak256(0x00, 0x20)\n      swap1\n    tag_113:\n      dup2\n      sload\n      dup2\n      mstore\n      swap1\n      0x01\n      add\n      swap1\n      0x20\n      add\n      dup1\n      dup4\n      gt\n      tag_113\n      jumpi\n      dup3\n      swap1\n      sub\n      0x1f\n      and\n      dup3\n      add\n      swap2\n    tag_111:\n      pop\n      pop\n      pop\n      pop\n      pop\n      dup2\n      mstore\n      0x20\n      add\n      0x02\n      dup3\n      add\n      sload\n      dup2\n      mstore\n      pop\n      pop\n      swap1\n      pop\n        /* \"contracts/CandidateRegistry.sol\":1999:2000  c */\n      dup1\n        /* \"contracts/CandidateRegistry.sol\":1999:2003  c.id */\n      0x00\n      add\n      mload\n        /* \"contracts/CandidateRegistry.sol\":2005:2006  c */\n      dup2\n        /* \"contracts/CandidateRegistry.sol\":2005:2011  c.name */\n      0x20\n      add\n      mload\n        /* \"contracts/CandidateRegistry.sol\":2013:2014  c */\n      dup3\n        /* \"contracts/CandidateRegistry.sol\":2013:2020  c.votes */\n      0x40\n      add\n      mload\n        /* \"contracts/CandidateRegistry.sol\":1991:2021  return (c.id, c.name, c.votes) */\n      swap4\n      pop\n      swap4\n      pop\n      swap4\n      pop\n      pop\n        /* \"contracts/CandidateRegistry.sol\":1786:2028  function getCandidate(uint id) external view returns (uint, string memory, uint) {... */\n      swap2\n      swap4\n      swap1\n      swap3\n      pop\n      jump\t// out\n        /* \"contracts/CandidateRegistry.sol\":2156:2253  function totalCandidates() external view returns (uint) {... */\n    tag_36:\n        /* \"contracts/CandidateRegistry.sol\":2206:2210  uint */\n      0x00\n        /* \"contracts/CandidateRegistry.sol\":2229:2239  candidates */\n      0x01\n        /* \"contracts/CandidateRegistry.sol\":2229:2246  candidates.length */\n      dup1\n      sload\n      swap1\n      pop\n        /* \"contracts/CandidateRegistry.sol\":2222:2246  return candidates.length */\n      swap1\n      pop\n        /* \"contracts/CandidateRegistry.sol\":2156:2253  function totalCandidates() external view returns (uint) {... */\n      swap1\n      jump\t// out\n        /* \"contracts/VoterRegistry.sol\":526:548  uint public voterCount */\n    tag_40:\n      sload(0x02)\n      dup2\n      jump\t// out\n        /* \"contracts/Ownable.sol\":249:269  address public owner */\n    tag_43:\n      0x00\n      0x00\n      swap1\n      sload\n      swap1\n      0x0100\n      exp\n      swap1\n      div\n      0xffffffffffffffffffffffffffffffffffffffff\n      and\n      dup2\n      jump\t// out\n        /* \"contracts/Vote.sol\":1892:2169  function registerVoterToVote(address voterAddress) external onlyOwner {... */\n    tag_49:\n        /* \"contracts/Ownable.sol\":875:880  owner */\n      0x00\n      0x00\n      swap1\n      sload\n      swap1\n      0x0100\n      exp\n      swap1\n      div\n      0xffffffffffffffffffffffffffffffffffffffff\n      and\n        /* \"contracts/Ownable.sol\":861:880  msg.sender == owner */\n      0xffffffffffffffffffffffffffffffffffffffff\n      and\n        /* \"contracts/Ownable.sol\":861:871  msg.sender */\n      caller\n        /* \"contracts/Ownable.sol\":861:880  msg.sender == owner */\n      0xffffffffffffffffffffffffffffffffffffffff\n      and\n      eq\n        /* \"contracts/Ownable.sol\":853:897  require(msg.sender == owner, \"Not an owner\") */\n      tag_116\n      jumpi\n      mload(0x40)\n      0x08c379a000000000000000000000000000000000000000000000000000000000\n      dup2\n      mstore\n      0x04\n      add\n      tag_117\n      swap1\n      tag_82\n      jump\t// in\n    tag_117:\n      mload(0x40)\n      dup1\n      swap2\n      sub\n      swap1\n      revert\n    tag_116:\n        /* \"contracts/Vote.sol\":1991:2008  Status.NotStarted */\n      0x00\n        /* \"contracts/Vote.sol\":1981:2008  status == Status.NotStarted */\n      0x02\n      dup2\n      gt\n      iszero\n      tag_119\n      jumpi\n      tag_120\n      tag_64\n      jump\t// in\n    tag_120:\n    tag_119:\n        /* \"contracts/Vote.sol\":1981:1987  status */\n      0x04\n      0x00\n      swap1\n      sload\n      swap1\n      0x0100\n      exp\n      swap1\n      div\n      0xff\n      and\n        /* \"contracts/Vote.sol\":1981:2008  status == Status.NotStarted */\n      0x02\n      dup2\n      gt\n      iszero\n      tag_121\n      jumpi\n      tag_122\n      tag_64\n      jump\t// in\n    tag_122:\n    tag_121:\n      eq\n        /* \"contracts/Vote.sol\":1973:2047  require(status == Status.NotStarted, \"Cannot register voters after start\") */\n      tag_123\n      jumpi\n      mload(0x40)\n      0x08c379a000000000000000000000000000000000000000000000000000000000\n      dup2\n      mstore\n      0x04\n      add\n      tag_124\n      swap1\n      tag_125\n      jump\t// in\n    tag_124:\n      mload(0x40)\n      dup1\n      swap2\n      sub\n      swap1\n      revert\n    tag_123:\n        /* \"contracts/Vote.sol\":2058:2086  _registerVoter(voterAddress) */\n      tag_126\n        /* \"contracts/Vote.sol\":2073:2085  voterAddress */\n      dup2\n        /* \"contracts/Vote.sol\":2058:2072  _registerVoter */\n      tag_127\n        /* \"contracts/Vote.sol\":2058:2086  _registerVoter(voterAddress) */\n      jump\t// in\n    tag_126:\n        /* \"contracts/Vote.sol\":1892:2169  function registerVoterToVote(address voterAddress) external onlyOwner {... */\n      pop\n      jump\t// out\n        /* \"contracts/VoterRegistry.sol\":681:720  mapping(address => Voter) public voters */\n    tag_52:\n      mstore(0x20, 0x03)\n      dup1\n      0x00\n      mstore\n      keccak256(0x00, 0x40)\n      0x00\n      swap2\n      pop\n      swap1\n      pop\n      dup1\n      0x00\n      add\n      sload\n      swap1\n      dup1\n      0x01\n      add\n      0x00\n      swap1\n      sload\n      swap1\n      0x0100\n      exp\n      swap1\n      div\n      0xff\n      and\n      swap1\n      dup1\n      0x01\n      add\n      0x01\n      swap1\n      sload\n      swap1\n      0x0100\n      exp\n      swap1\n      div\n      0xff\n      and\n      swap1\n      pop\n      dup4\n      jump\t// out\n        /* \"contracts/Vote.sol\":1479:1746  function addCandidateToVote(string memory name) external onlyOwner {... */\n    tag_58:\n        /* \"contracts/Ownable.sol\":875:880  owner */\n      0x00\n      0x00\n      swap1\n      sload\n      swap1\n      0x0100\n      exp\n      swap1\n      div\n      0xffffffffffffffffffffffffffffffffffffffff\n      and\n        /* \"contracts/Ownable.sol\":861:880  msg.sender == owner */\n      0xffffffffffffffffffffffffffffffffffffffff\n      and\n        /* \"contracts/Ownable.sol\":861:871  msg.sender */\n      caller\n        /* \"contracts/Ownable.sol\":861:880  msg.sender == owner */\n      0xffffffffffffffffffffffffffffffffffffffff\n      and\n      eq\n        /* \"contracts/Ownable.sol\":853:897  require(msg.sender == owner, \"Not an owner\") */\n      tag_129\n      jumpi\n      mload(0x40)\n      0x08c379a000000000000000000000000000000000000000000000000000000000\n      dup2\n      mstore\n      0x04\n      add\n      tag_130\n      swap1\n      tag_82\n      jump\t// in\n    tag_130:\n      mload(0x40)\n      dup1\n      swap2\n      sub\n      swap1\n      revert\n    tag_129:\n        /* \"contracts/Vote.sol\":1575:1592  Status.NotStarted */\n      0x00\n        /* \"contracts/Vote.sol\":1565:1592  status == Status.NotStarted */\n      0x02\n      dup2\n      gt\n      iszero\n      tag_132\n      jumpi\n      tag_133\n      tag_64\n      jump\t// in\n    tag_133:\n    tag_132:\n        /* \"contracts/Vote.sol\":1565:1571  status */\n      0x04\n      0x00\n      swap1\n      sload\n      swap1\n      0x0100\n      exp\n      swap1\n      div\n      0xff\n      and\n        /* \"contracts/Vote.sol\":1565:1592  status == Status.NotStarted */\n      0x02\n      dup2\n      gt\n      iszero\n      tag_134\n      jumpi\n      tag_135\n      tag_64\n      jump\t// in\n    tag_135:\n    tag_134:\n      eq\n        /* \"contracts/Vote.sol\":1557:1630  require(status == Status.NotStarted, \"Cannot add candidates after start\") */\n      tag_136\n      jumpi\n      mload(0x40)\n      0x08c379a000000000000000000000000000000000000000000000000000000000\n      dup2\n      mstore\n      0x04\n      add\n      tag_137\n      swap1\n      tag_138\n      jump\t// in\n    tag_137:\n      mload(0x40)\n      dup1\n      swap2\n      sub\n      swap1\n      revert\n    tag_136:\n        /* \"contracts/Vote.sol\":1641:1659  addCandidate(name) */\n      tag_139\n        /* \"contracts/Vote.sol\":1654:1658  name */\n      dup2\n        /* \"contracts/Vote.sol\":1641:1653  addCandidate */\n      tag_140\n        /* \"contracts/Vote.sol\":1641:1659  addCandidate(name) */\n      jump\t// in\n    tag_139:\n        /* \"contracts/Vote.sol\":1479:1746  function addCandidateToVote(string memory name) external onlyOwner {... */\n      pop\n      jump\t// out\n        /* \"contracts/Vote.sol\":2556:2691  function finishVoting() external onlyOwner onlyDuringVoting {... */\n    tag_60:\n        /* \"contracts/Ownable.sol\":875:880  owner */\n      0x00\n      0x00\n      swap1\n      sload\n      swap1\n      0x0100\n      exp\n      swap1\n      div\n      0xffffffffffffffffffffffffffffffffffffffff\n      and\n        /* \"contracts/Ownable.sol\":861:880  msg.sender == owner */\n      0xffffffffffffffffffffffffffffffffffffffff\n      and\n        /* \"contracts/Ownable.sol\":861:871  msg.sender */\n      caller\n        /* \"contracts/Ownable.sol\":861:880  msg.sender == owner */\n      0xffffffffffffffffffffffffffffffffffffffff\n      and\n      eq\n        /* \"contracts/Ownable.sol\":853:897  require(msg.sender == owner, \"Not an owner\") */\n      tag_142\n      jumpi\n      mload(0x40)\n      0x08c379a000000000000000000000000000000000000000000000000000000000\n      dup2\n      mstore\n      0x04\n      add\n      tag_143\n      swap1\n      tag_82\n      jump\t// in\n    tag_143:\n      mload(0x40)\n      dup1\n      swap2\n      sub\n      swap1\n      revert\n    tag_142:\n        /* \"contracts/Vote.sol\":1270:1283  Status.Active */\n      0x01\n        /* \"contracts/Vote.sol\":1260:1283  status == Status.Active */\n      0x02\n      dup2\n      gt\n      iszero\n      tag_145\n      jumpi\n      tag_146\n      tag_64\n      jump\t// in\n    tag_146:\n    tag_145:\n        /* \"contracts/Vote.sol\":1260:1266  status */\n      0x04\n      0x00\n      swap1\n      sload\n      swap1\n      0x0100\n      exp\n      swap1\n      div\n      0xff\n      and\n        /* \"contracts/Vote.sol\":1260:1283  status == Status.Active */\n      0x02\n      dup2\n      gt\n      iszero\n      tag_147\n      jumpi\n      tag_148\n      tag_64\n      jump\t// in\n    tag_148:\n    tag_147:\n      eq\n        /* \"contracts/Vote.sol\":1252:1308  require(status == Status.Active, \"Voting is not active\") */\n      tag_149\n      jumpi\n      mload(0x40)\n      0x08c379a000000000000000000000000000000000000000000000000000000000\n      dup2\n      mstore\n      0x04\n      add\n      tag_150\n      swap1\n      tag_69\n      jump\t// in\n    tag_150:\n      mload(0x40)\n      dup1\n      swap2\n      sub\n      swap1\n      revert\n    tag_149:\n        /* \"contracts/Vote.sol\":2636:2651  Status.Finished */\n      0x02\n        /* \"contracts/Vote.sol\":2627:2633  status */\n      0x04\n      0x00\n        /* \"contracts/Vote.sol\":2627:2651  status = Status.Finished */\n      0x0100\n      exp\n      dup2\n      sload\n      dup2\n      0xff\n      mul\n      not\n      and\n      swap1\n      dup4\n      0x02\n      dup2\n      gt\n      iszero\n      tag_152\n      jumpi\n      tag_153\n      tag_64\n      jump\t// in\n    tag_153:\n    tag_152:\n      mul\n      or\n      swap1\n      sstore\n      pop\n        /* \"contracts/Vote.sol\":2667:2683  VotingFinished() */\n      0xa9a7700362c455edb3c43c6637553b81396ea5c46d5052a6c96d8a962e6d5bf4\n      mload(0x40)\n      mload(0x40)\n      dup1\n      swap2\n      sub\n      swap1\n      log1\n        /* \"contracts/Vote.sol\":2556:2691  function finishVoting() external onlyOwner onlyDuringVoting {... */\n      jump\t// out\n        /* \"contracts/CandidateRegistry.sol\":1389:1648  function voteCandidate(uint id) internal {... */\n    tag_78:\n        /* \"contracts/CandidateRegistry.sol\":1563:1573  candidates */\n      0x01\n        /* \"contracts/CandidateRegistry.sol\":1563:1580  candidates.length */\n      dup1\n      sload\n      swap1\n      pop\n        /* \"contracts/CandidateRegistry.sol\":1558:1560  id */\n      dup2\n        /* \"contracts/CandidateRegistry.sol\":1558:1580  id < candidates.length */\n      lt\n        /* \"contracts/CandidateRegistry.sol\":1550:1609  require(id < candidates.length, \"Candidate does not exist\") */\n      tag_155\n      jumpi\n      mload(0x40)\n      0x08c379a000000000000000000000000000000000000000000000000000000000\n      dup2\n      mstore\n      0x04\n      add\n      tag_156\n      swap1\n      tag_104\n      jump\t// in\n    tag_156:\n      mload(0x40)\n      dup1\n      swap2\n      sub\n      swap1\n      revert\n    tag_155:\n        /* \"contracts/CandidateRegistry.sol\":1619:1629  candidates */\n      0x01\n        /* \"contracts/CandidateRegistry.sol\":1630:1632  id */\n      dup2\n        /* \"contracts/CandidateRegistry.sol\":1619:1633  candidates[id] */\n      dup2\n      sload\n      dup2\n      lt\n      tag_157\n      jumpi\n      tag_158\n      tag_107\n      jump\t// in\n    tag_158:\n    tag_157:\n      swap1\n      0x00\n      mstore\n      keccak256(0x00, 0x20)\n      swap1\n      0x03\n      mul\n      add\n        /* \"contracts/CandidateRegistry.sol\":1619:1639  candidates[id].votes */\n      0x02\n      add\n      0x00\n        /* \"contracts/CandidateRegistry.sol\":1619:1641  candidates[id].votes++ */\n      dup2\n      sload\n      dup1\n      swap3\n      swap2\n      swap1\n      tag_160\n      swap1\n      tag_161\n      jump\t// in\n    tag_160:\n      swap2\n      swap1\n      pop\n      sstore\n      pop\n        /* \"contracts/CandidateRegistry.sol\":1389:1648  function voteCandidate(uint id) internal {... */\n      pop\n      jump\t// out\n        /* \"contracts/VoterRegistry.sol\":944:1723  function _registerVoter(address voterAddress) internal {... */\n    tag_127:\n        /* \"contracts/VoterRegistry.sol\":1201:1202  0 */\n      0x00\n        /* \"contracts/VoterRegistry.sol\":1177:1203  voterAddress != address(0) */\n      0xffffffffffffffffffffffffffffffffffffffff\n      and\n        /* \"contracts/VoterRegistry.sol\":1177:1189  voterAddress */\n      dup2\n        /* \"contracts/VoterRegistry.sol\":1177:1203  voterAddress != address(0) */\n      0xffffffffffffffffffffffffffffffffffffffff\n      and\n      sub\n        /* \"contracts/VoterRegistry.sol\":1169:1229  require(voterAddress != address(0), \"Invalid voter address\") */\n      tag_163\n      jumpi\n      mload(0x40)\n      0x08c379a000000000000000000000000000000000000000000000000000000000\n      dup2\n      mstore\n      0x04\n      add\n      tag_164\n      swap1\n      tag_165\n      jump\t// in\n    tag_164:\n      mload(0x40)\n      dup1\n      swap2\n      sub\n      swap1\n      revert\n    tag_163:\n        /* \"contracts/VoterRegistry.sol\":1248:1254  voters */\n      0x03\n        /* \"contracts/VoterRegistry.sol\":1248:1268  voters[voterAddress] */\n      0x00\n        /* \"contracts/VoterRegistry.sol\":1255:1267  voterAddress */\n      dup3\n        /* \"contracts/VoterRegistry.sol\":1248:1268  voters[voterAddress] */\n      0xffffffffffffffffffffffffffffffffffffffff\n      and\n      0xffffffffffffffffffffffffffffffffffffffff\n      and\n      dup2\n      mstore\n      0x20\n      add\n      swap1\n      dup2\n      mstore\n      0x20\n      add\n      0x00\n      keccak256\n        /* \"contracts/VoterRegistry.sol\":1248:1281  voters[voterAddress].isRegistered */\n      0x01\n      add\n      0x00\n      swap1\n      sload\n      swap1\n      0x0100\n      exp\n      swap1\n      div\n      0xff\n      and\n        /* \"contracts/VoterRegistry.sol\":1247:1281  !voters[voterAddress].isRegistered */\n      iszero\n        /* \"contracts/VoterRegistry.sol\":1239:1310  require(!voters[voterAddress].isRegistered, \"Voter already registered\") */\n      tag_166\n      jumpi\n      mload(0x40)\n      0x08c379a000000000000000000000000000000000000000000000000000000000\n      dup2\n      mstore\n      0x04\n      add\n      tag_167\n      swap1\n      tag_168\n      jump\t// in\n    tag_167:\n      mload(0x40)\n      dup1\n      swap2\n      sub\n      swap1\n      revert\n    tag_166:\n        /* \"contracts/VoterRegistry.sol\":1321:1331  voterCount */\n      0x02\n      0x00\n        /* \"contracts/VoterRegistry.sol\":1321:1333  voterCount++ */\n      dup2\n      sload\n      dup1\n      swap3\n      swap2\n      swap1\n      tag_169\n      swap1\n      tag_161\n      jump\t// in\n    tag_169:\n      swap2\n      swap1\n      pop\n      sstore\n      pop\n        /* \"contracts/VoterRegistry.sol\":1491:1597  Voter({... */\n      mload(0x40)\n      dup1\n      0x60\n      add\n      0x40\n      mstore\n      dup1\n        /* \"contracts/VoterRegistry.sol\":1515:1525  voterCount */\n      sload(0x02)\n        /* \"contracts/VoterRegistry.sol\":1491:1597  Voter({... */\n      dup2\n      mstore\n      0x20\n      add\n        /* \"contracts/VoterRegistry.sol\":1553:1557  true */\n      0x01\n        /* \"contracts/VoterRegistry.sol\":1491:1597  Voter({... */\n      iszero\n      iszero\n      dup2\n      mstore\n      0x20\n      add\n        /* \"contracts/VoterRegistry.sol\":1581:1586  false */\n      0x00\n        /* \"contracts/VoterRegistry.sol\":1491:1597  Voter({... */\n      iszero\n      iszero\n      dup2\n      mstore\n      pop\n        /* \"contracts/VoterRegistry.sol\":1468:1474  voters */\n      0x03\n        /* \"contracts/VoterRegistry.sol\":1468:1488  voters[voterAddress] */\n      0x00\n        /* \"contracts/VoterRegistry.sol\":1475:1487  voterAddress */\n      dup4\n        /* \"contracts/VoterRegistry.sol\":1468:1488  voters[voterAddress] */\n      0xffffffffffffffffffffffffffffffffffffffff\n      and\n      0xffffffffffffffffffffffffffffffffffffffff\n      and\n      dup2\n      mstore\n      0x20\n      add\n      swap1\n      dup2\n      mstore\n      0x20\n      add\n      0x00\n      keccak256\n        /* \"contracts/VoterRegistry.sol\":1468:1597  voters[voterAddress] = Voter({... */\n      0x00\n      dup3\n      add\n      mload\n      dup2\n      0x00\n      add\n      sstore\n      0x20\n      dup3\n      add\n      mload\n      dup2\n      0x01\n      add\n      exp(0x0100, 0x00)\n      dup2\n      sload\n      dup2\n      0xff\n      mul\n      not\n      and\n      swap1\n      dup4\n      iszero\n      iszero\n      mul\n      or\n      swap1\n      sstore\n      pop\n      0x40\n      dup3\n      add\n      mload\n      dup2\n      0x01\n      add\n      exp(0x0100, 0x01)\n      dup2\n      sload\n      dup2\n      0xff\n      mul\n      not\n      and\n      swap1\n      dup4\n      iszero\n      iszero\n      mul\n      or\n      swap1\n      sstore\n      pop\n      swap1\n      pop\n      pop\n        /* \"contracts/VoterRegistry.sol\":1691:1703  voterAddress */\n      dup1\n        /* \"contracts/VoterRegistry.sol\":1675:1716  VoterRegistered(voterAddress, voterCount) */\n      0xffffffffffffffffffffffffffffffffffffffff\n      and\n      0xf16ce2c2236e2c6e3df646f80d657bceef4cd7f3a240c47e82adfa17a5f47241\n        /* \"contracts/VoterRegistry.sol\":1705:1715  voterCount */\n      sload(0x02)\n        /* \"contracts/VoterRegistry.sol\":1675:1716  VoterRegistered(voterAddress, voterCount) */\n      mload(0x40)\n      tag_170\n      swap2\n      swap1\n      tag_38\n      jump\t// in\n    tag_170:\n      mload(0x40)\n      dup1\n      swap2\n      sub\n      swap1\n      log2\n        /* \"contracts/VoterRegistry.sol\":944:1723  function _registerVoter(address voterAddress) internal {... */\n      pop\n      jump\t// out\n        /* \"contracts/CandidateRegistry.sol\":795:1258  function addCandidate(string memory name) internal {... */\n    tag_140:\n        /* \"contracts/CandidateRegistry.sol\":856:866  uint newId */\n      0x00\n        /* \"contracts/CandidateRegistry.sol\":869:879  candidates */\n      0x01\n        /* \"contracts/CandidateRegistry.sol\":869:886  candidates.length */\n      dup1\n      sload\n      swap1\n      pop\n        /* \"contracts/CandidateRegistry.sol\":856:886  uint newId = candidates.length */\n      swap1\n      pop\n        /* \"contracts/CandidateRegistry.sol\":1098:1108  candidates */\n      0x01\n        /* \"contracts/CandidateRegistry.sol\":1114:1139  Candidate(newId, name, 0) */\n      mload(0x40)\n      dup1\n      0x60\n      add\n      0x40\n      mstore\n      dup1\n        /* \"contracts/CandidateRegistry.sol\":1124:1129  newId */\n      dup4\n        /* \"contracts/CandidateRegistry.sol\":1114:1139  Candidate(newId, name, 0) */\n      dup2\n      mstore\n      0x20\n      add\n        /* \"contracts/CandidateRegistry.sol\":1131:1135  name */\n      dup5\n        /* \"contracts/CandidateRegistry.sol\":1114:1139  Candidate(newId, name, 0) */\n      dup2\n      mstore\n      0x20\n      add\n        /* \"contracts/CandidateRegistry.sol\":1137:1138  0 */\n      0x00\n        /* \"contracts/CandidateRegistry.sol\":1114:1139  Candidate(newId, name, 0) */\n      dup2\n      mstore\n      pop\n        /* \"contracts/CandidateRegistry.sol\":1098:1140  candidates.push(Candidate(newId, name, 0)) */\n      swap1\n      dup1\n      0x01\n      dup2\n      sload\n      add\n      dup1\n      dup3\n      sstore\n      dup1\n      swap2\n      pop\n      pop\n      0x01\n      swap1\n      sub\n      swap1\n      0x00\n      mstore\n      keccak256(0x00, 0x20)\n      swap1\n      0x03\n      mul\n      add\n      0x00\n      swap1\n      swap2\n      swap1\n      swap2\n      swap1\n      swap2\n      pop\n      0x00\n      dup3\n      add\n      mload\n      dup2\n      0x00\n      add\n      sstore\n      0x20\n      dup3\n      add\n      mload\n      dup2\n      0x01\n      add\n      swap1\n      dup2\n      tag_173\n      swap2\n      swap1\n      tag_174\n      jump\t// in\n    tag_173:\n      pop\n      0x40\n      dup3\n      add\n      mload\n      dup2\n      0x02\n      add\n      sstore\n      pop\n      pop\n        /* \"contracts/CandidateRegistry.sol\":1224:1251  CandidateAdded(newId, name) */\n      0xe83b2a43e7e82d975c8a0a6d2f045153c869e111136a34d1889ab7b598e396a3\n        /* \"contracts/CandidateRegistry.sol\":1239:1244  newId */\n      dup2\n        /* \"contracts/CandidateRegistry.sol\":1246:1250  name */\n      dup4\n        /* \"contracts/CandidateRegistry.sol\":1224:1251  CandidateAdded(newId, name) */\n      mload(0x40)\n      tag_175\n      swap3\n      swap2\n      swap1\n      tag_176\n      jump\t// in\n    tag_175:\n      mload(0x40)\n      dup1\n      swap2\n      sub\n      swap1\n      log1\n        /* \"contracts/CandidateRegistry.sol\":846:1258  {... */\n      pop\n        /* \"contracts/CandidateRegistry.sol\":795:1258  function addCandidate(string memory name) internal {... */\n      pop\n      jump\t// out\n        /* \"#utility.yul\":7:82   */\n    tag_177:\n        /* \"#utility.yul\":40:46   */\n      0x00\n        /* \"#utility.yul\":73:75   */\n      0x40\n        /* \"#utility.yul\":67:76   */\n      mload\n        /* \"#utility.yul\":57:76   */\n      swap1\n      pop\n        /* \"#utility.yul\":7:82   */\n      swap1\n      jump\t// out\n        /* \"#utility.yul\":88:205   */\n    tag_178:\n        /* \"#utility.yul\":197:198   */\n      0x00\n        /* \"#utility.yul\":194:195   */\n      0x00\n        /* \"#utility.yul\":187:199   */\n      revert\n        /* \"#utility.yul\":211:328   */\n    tag_179:\n        /* \"#utility.yul\":320:321   */\n      0x00\n        /* \"#utility.yul\":317:318   */\n      0x00\n        /* \"#utility.yul\":310:322   */\n      revert\n        /* \"#utility.yul\":334:411   */\n    tag_180:\n        /* \"#utility.yul\":371:378   */\n      0x00\n        /* \"#utility.yul\":400:405   */\n      dup2\n        /* \"#utility.yul\":389:405   */\n      swap1\n      pop\n        /* \"#utility.yul\":334:411   */\n      swap2\n      swap1\n      pop\n      jump\t// out\n        /* \"#utility.yul\":417:539   */\n    tag_181:\n        /* \"#utility.yul\":490:514   */\n      tag_252\n        /* \"#utility.yul\":508:513   */\n      dup2\n        /* \"#utility.yul\":490:514   */\n      tag_180\n      jump\t// in\n    tag_252:\n        /* \"#utility.yul\":483:488   */\n      dup2\n        /* \"#utility.yul\":480:515   */\n      eq\n        /* \"#utility.yul\":470:533   */\n      tag_253\n      jumpi\n        /* \"#utility.yul\":529:530   */\n      0x00\n        /* \"#utility.yul\":526:527   */\n      0x00\n        /* \"#utility.yul\":519:531   */\n      revert\n        /* \"#utility.yul\":470:533   */\n    tag_253:\n        /* \"#utility.yul\":417:539   */\n      pop\n      jump\t// out\n        /* \"#utility.yul\":545:684   */\n    tag_182:\n        /* \"#utility.yul\":591:596   */\n      0x00\n        /* \"#utility.yul\":629:635   */\n      dup2\n        /* \"#utility.yul\":616:636   */\n      calldataload\n        /* \"#utility.yul\":607:636   */\n      swap1\n      pop\n        /* \"#utility.yul\":645:678   */\n      tag_255\n        /* \"#utility.yul\":672:677   */\n      dup2\n        /* \"#utility.yul\":645:678   */\n      tag_181\n      jump\t// in\n    tag_255:\n        /* \"#utility.yul\":545:684   */\n      swap3\n      swap2\n      pop\n      pop\n      jump\t// out\n        /* \"#utility.yul\":690:1019   */\n    tag_18:\n        /* \"#utility.yul\":749:755   */\n      0x00\n        /* \"#utility.yul\":798:800   */\n      0x20\n        /* \"#utility.yul\":786:795   */\n      dup3\n        /* \"#utility.yul\":777:784   */\n      dup5\n        /* \"#utility.yul\":773:796   */\n      sub\n        /* \"#utility.yul\":769:801   */\n      slt\n        /* \"#utility.yul\":766:885   */\n      iszero\n      tag_257\n      jumpi\n        /* \"#utility.yul\":804:883   */\n      tag_258\n      tag_178\n      jump\t// in\n    tag_258:\n        /* \"#utility.yul\":766:885   */\n    tag_257:\n        /* \"#utility.yul\":924:925   */\n      0x00\n        /* \"#utility.yul\":949:1002   */\n      tag_259\n        /* \"#utility.yul\":994:1001   */\n      dup5\n        /* \"#utility.yul\":985:991   */\n      dup3\n        /* \"#utility.yul\":974:983   */\n      dup6\n        /* \"#utility.yul\":970:992   */\n      add\n        /* \"#utility.yul\":949:1002   */\n      tag_182\n      jump\t// in\n    tag_259:\n        /* \"#utility.yul\":939:1002   */\n      swap2\n      pop\n        /* \"#utility.yul\":895:1012   */\n      pop\n        /* \"#utility.yul\":690:1019   */\n      swap3\n      swap2\n      pop\n      pop\n      jump\t// out\n        /* \"#utility.yul\":1025:1205   */\n    tag_64:\n        /* \"#utility.yul\":1073:1150   */\n      0x4e487b7100000000000000000000000000000000000000000000000000000000\n        /* \"#utility.yul\":1070:1071   */\n      0x00\n        /* \"#utility.yul\":1063:1151   */\n      mstore\n        /* \"#utility.yul\":1170:1174   */\n      0x21\n        /* \"#utility.yul\":1167:1168   */\n      0x04\n        /* \"#utility.yul\":1160:1175   */\n      mstore\n        /* \"#utility.yul\":1194:1198   */\n      0x24\n        /* \"#utility.yul\":1191:1192   */\n      0x00\n        /* \"#utility.yul\":1184:1199   */\n      revert\n        /* \"#utility.yul\":1211:1326   */\n    tag_183:\n        /* \"#utility.yul\":1294:1295   */\n      0x03\n        /* \"#utility.yul\":1287:1292   */\n      dup2\n        /* \"#utility.yul\":1284:1296   */\n      lt\n        /* \"#utility.yul\":1274:1320   */\n      tag_262\n      jumpi\n        /* \"#utility.yul\":1300:1318   */\n      tag_263\n      tag_64\n      jump\t// in\n    tag_263:\n        /* \"#utility.yul\":1274:1320   */\n    tag_262:\n        /* \"#utility.yul\":1211:1326   */\n      pop\n      jump\t// out\n        /* \"#utility.yul\":1332:1463   */\n    tag_184:\n        /* \"#utility.yul\":1379:1386   */\n      0x00\n        /* \"#utility.yul\":1408:1413   */\n      dup2\n        /* \"#utility.yul\":1397:1413   */\n      swap1\n      pop\n        /* \"#utility.yul\":1414:1457   */\n      tag_265\n        /* \"#utility.yul\":1451:1456   */\n      dup3\n        /* \"#utility.yul\":1414:1457   */\n      tag_183\n      jump\t// in\n    tag_265:\n        /* \"#utility.yul\":1332:1463   */\n      swap2\n      swap1\n      pop\n      jump\t// out\n        /* \"#utility.yul\":1469:1600   */\n    tag_185:\n        /* \"#utility.yul\":1527:1536   */\n      0x00\n        /* \"#utility.yul\":1560:1594   */\n      tag_267\n        /* \"#utility.yul\":1588:1593   */\n      dup3\n        /* \"#utility.yul\":1560:1594   */\n      tag_184\n      jump\t// in\n    tag_267:\n        /* \"#utility.yul\":1547:1594   */\n      swap1\n      pop\n        /* \"#utility.yul\":1469:1600   */\n      swap2\n      swap1\n      pop\n      jump\t// out\n        /* \"#utility.yul\":1606:1753   */\n    tag_186:\n        /* \"#utility.yul\":1701:1746   */\n      tag_269\n        /* \"#utility.yul\":1740:1745   */\n      dup2\n        /* \"#utility.yul\":1701:1746   */\n      tag_185\n      jump\t// in\n    tag_269:\n        /* \"#utility.yul\":1696:1699   */\n      dup3\n        /* \"#utility.yul\":1689:1747   */\n      mstore\n        /* \"#utility.yul\":1606:1753   */\n      pop\n      pop\n      jump\t// out\n        /* \"#utility.yul\":1759:1997   */\n    tag_25:\n        /* \"#utility.yul\":1860:1864   */\n      0x00\n        /* \"#utility.yul\":1898:1900   */\n      0x20\n        /* \"#utility.yul\":1887:1896   */\n      dup3\n        /* \"#utility.yul\":1883:1901   */\n      add\n        /* \"#utility.yul\":1875:1901   */\n      swap1\n      pop\n        /* \"#utility.yul\":1911:1990   */\n      tag_271\n        /* \"#utility.yul\":1987:1988   */\n      0x00\n        /* \"#utility.yul\":1976:1985   */\n      dup4\n        /* \"#utility.yul\":1972:1989   */\n      add\n        /* \"#utility.yul\":1963:1969   */\n      dup5\n        /* \"#utility.yul\":1911:1990   */\n      tag_186\n      jump\t// in\n    tag_271:\n        /* \"#utility.yul\":1759:1997   */\n      swap3\n      swap2\n      pop\n      pop\n      jump\t// out\n        /* \"#utility.yul\":2003:2121   */\n    tag_187:\n        /* \"#utility.yul\":2090:2114   */\n      tag_273\n        /* \"#utility.yul\":2108:2113   */\n      dup2\n        /* \"#utility.yul\":2090:2114   */\n      tag_180\n      jump\t// in\n    tag_273:\n        /* \"#utility.yul\":2085:2088   */\n      dup3\n        /* \"#utility.yul\":2078:2115   */\n      mstore\n        /* \"#utility.yul\":2003:2121   */\n      pop\n      pop\n      jump\t// out\n        /* \"#utility.yul\":2127:2226   */\n    tag_188:\n        /* \"#utility.yul\":2179:2185   */\n      0x00\n        /* \"#utility.yul\":2213:2218   */\n      dup2\n        /* \"#utility.yul\":2207:2219   */\n      mload\n        /* \"#utility.yul\":2197:2219   */\n      swap1\n      pop\n        /* \"#utility.yul\":2127:2226   */\n      swap2\n      swap1\n      pop\n      jump\t// out\n        /* \"#utility.yul\":2232:2401   */\n    tag_189:\n        /* \"#utility.yul\":2316:2327   */\n      0x00\n        /* \"#utility.yul\":2350:2356   */\n      dup3\n        /* \"#utility.yul\":2345:2348   */\n      dup3\n        /* \"#utility.yul\":2338:2357   */\n      mstore\n        /* \"#utility.yul\":2390:2394   */\n      0x20\n        /* \"#utility.yul\":2385:2388   */\n      dup3\n        /* \"#utility.yul\":2381:2395   */\n      add\n        /* \"#utility.yul\":2366:2395   */\n      swap1\n      pop\n        /* \"#utility.yul\":2232:2401   */\n      swap3\n      swap2\n      pop\n      pop\n      jump\t// out\n        /* \"#utility.yul\":2407:2546   */\n    tag_190:\n        /* \"#utility.yul\":2496:2502   */\n      dup3\n        /* \"#utility.yul\":2491:2494   */\n      dup2\n        /* \"#utility.yul\":2486:2489   */\n      dup4\n        /* \"#utility.yul\":2480:2503   */\n      mcopy\n        /* \"#utility.yul\":2537:2538   */\n      0x00\n        /* \"#utility.yul\":2528:2534   */\n      dup4\n        /* \"#utility.yul\":2523:2526   */\n      dup4\n        /* \"#utility.yul\":2519:2535   */\n      add\n        /* \"#utility.yul\":2512:2539   */\n      mstore\n        /* \"#utility.yul\":2407:2546   */\n      pop\n      pop\n      pop\n      jump\t// out\n        /* \"#utility.yul\":2552:2654   */\n    tag_191:\n        /* \"#utility.yul\":2593:2599   */\n      0x00\n        /* \"#utility.yul\":2644:2646   */\n      0x1f\n        /* \"#utility.yul\":2640:2647   */\n      not\n        /* \"#utility.yul\":2635:2637   */\n      0x1f\n        /* \"#utility.yul\":2628:2633   */\n      dup4\n        /* \"#utility.yul\":2624:2638   */\n      add\n        /* \"#utility.yul\":2620:2648   */\n      and\n        /* \"#utility.yul\":2610:2648   */\n      swap1\n      pop\n        /* \"#utility.yul\":2552:2654   */\n      swap2\n      swap1\n      pop\n      jump\t// out\n        /* \"#utility.yul\":2660:3037   */\n    tag_192:\n        /* \"#utility.yul\":2748:2751   */\n      0x00\n        /* \"#utility.yul\":2776:2815   */\n      tag_279\n        /* \"#utility.yul\":2809:2814   */\n      dup3\n        /* \"#utility.yul\":2776:2815   */\n      tag_188\n      jump\t// in\n    tag_279:\n        /* \"#utility.yul\":2831:2902   */\n      tag_280\n        /* \"#utility.yul\":2895:2901   */\n      dup2\n        /* \"#utility.yul\":2890:2893   */\n      dup6\n        /* \"#utility.yul\":2831:2902   */\n      tag_189\n      jump\t// in\n    tag_280:\n        /* \"#utility.yul\":2824:2902   */\n      swap4\n      pop\n        /* \"#utility.yul\":2911:2976   */\n      tag_281\n        /* \"#utility.yul\":2969:2975   */\n      dup2\n        /* \"#utility.yul\":2964:2967   */\n      dup6\n        /* \"#utility.yul\":2957:2961   */\n      0x20\n        /* \"#utility.yul\":2950:2955   */\n      dup7\n        /* \"#utility.yul\":2946:2962   */\n      add\n        /* \"#utility.yul\":2911:2976   */\n      tag_190\n      jump\t// in\n    tag_281:\n        /* \"#utility.yul\":3001:3030   */\n      tag_282\n        /* \"#utility.yul\":3023:3029   */\n      dup2\n        /* \"#utility.yul\":3001:3030   */\n      tag_191\n      jump\t// in\n    tag_282:\n        /* \"#utility.yul\":2996:2999   */\n      dup5\n        /* \"#utility.yul\":2992:3031   */\n      add\n        /* \"#utility.yul\":2985:3031   */\n      swap2\n      pop\n        /* \"#utility.yul\":2752:3037   */\n      pop\n        /* \"#utility.yul\":2660:3037   */\n      swap3\n      swap2\n      pop\n      pop\n      jump\t// out\n        /* \"#utility.yul\":3043:3576   */\n    tag_30:\n        /* \"#utility.yul\":3212:3216   */\n      0x00\n        /* \"#utility.yul\":3250:3252   */\n      0x60\n        /* \"#utility.yul\":3239:3248   */\n      dup3\n        /* \"#utility.yul\":3235:3253   */\n      add\n        /* \"#utility.yul\":3227:3253   */\n      swap1\n      pop\n        /* \"#utility.yul\":3263:3334   */\n      tag_284\n        /* \"#utility.yul\":3331:3332   */\n      0x00\n        /* \"#utility.yul\":3320:3329   */\n      dup4\n        /* \"#utility.yul\":3316:3333   */\n      add\n        /* \"#utility.yul\":3307:3313   */\n      dup7\n        /* \"#utility.yul\":3263:3334   */\n      tag_187\n      jump\t// in\n    tag_284:\n        /* \"#utility.yul\":3381:3390   */\n      dup2\n        /* \"#utility.yul\":3375:3379   */\n      dup2\n        /* \"#utility.yul\":3371:3391   */\n      sub\n        /* \"#utility.yul\":3366:3368   */\n      0x20\n        /* \"#utility.yul\":3355:3364   */\n      dup4\n        /* \"#utility.yul\":3351:3369   */\n      add\n        /* \"#utility.yul\":3344:3392   */\n      mstore\n        /* \"#utility.yul\":3409:3487   */\n      tag_285\n        /* \"#utility.yul\":3482:3486   */\n      dup2\n        /* \"#utility.yul\":3473:3479   */\n      dup6\n        /* \"#utility.yul\":3409:3487   */\n      tag_192\n      jump\t// in\n    tag_285:\n        /* \"#utility.yul\":3401:3487   */\n      swap1\n      pop\n        /* \"#utility.yul\":3497:3569   */\n      tag_286\n        /* \"#utility.yul\":3565:3567   */\n      0x40\n        /* \"#utility.yul\":3554:3563   */\n      dup4\n        /* \"#utility.yul\":3550:3568   */\n      add\n        /* \"#utility.yul\":3541:3547   */\n      dup5\n        /* \"#utility.yul\":3497:3569   */\n      tag_187\n      jump\t// in\n    tag_286:\n        /* \"#utility.yul\":3043:3576   */\n      swap5\n      swap4\n      pop\n      pop\n      pop\n      pop\n      jump\t// out\n        /* \"#utility.yul\":3582:3804   */\n    tag_38:\n        /* \"#utility.yul\":3675:3679   */\n      0x00\n        /* \"#utility.yul\":3713:3715   */\n      0x20\n        /* \"#utility.yul\":3702:3711   */\n      dup3\n        /* \"#utility.yul\":3698:3716   */\n      add\n        /* \"#utility.yul\":3690:3716   */\n      swap1\n      pop\n        /* \"#utility.yul\":3726:3797   */\n      tag_288\n        /* \"#utility.yul\":3794:3795   */\n      0x00\n        /* \"#utility.yul\":3783:3792   */\n      dup4\n        /* \"#utility.yul\":3779:3796   */\n      add\n        /* \"#utility.yul\":3770:3776   */\n      dup5\n        /* \"#utility.yul\":3726:3797   */\n      tag_187\n      jump\t// in\n    tag_288:\n        /* \"#utility.yul\":3582:3804   */\n      swap3\n      swap2\n      pop\n      pop\n      jump\t// out\n        /* \"#utility.yul\":3810:3936   */\n    tag_193:\n        /* \"#utility.yul\":3847:3854   */\n      0x00\n        /* \"#utility.yul\":3887:3929   */\n      0xffffffffffffffffffffffffffffffffffffffff\n        /* \"#utility.yul\":3880:3885   */\n      dup3\n        /* \"#utility.yul\":3876:3930   */\n      and\n        /* \"#utility.yul\":3865:3930   */\n      swap1\n      pop\n        /* \"#utility.yul\":3810:3936   */\n      swap2\n      swap1\n      pop\n      jump\t// out\n        /* \"#utility.yul\":3942:4038   */\n    tag_194:\n        /* \"#utility.yul\":3979:3986   */\n      0x00\n        /* \"#utility.yul\":4008:4032   */\n      tag_291\n        /* \"#utility.yul\":4026:4031   */\n      dup3\n        /* \"#utility.yul\":4008:4032   */\n      tag_193\n      jump\t// in\n    tag_291:\n        /* \"#utility.yul\":3997:4032   */\n      swap1\n      pop\n        /* \"#utility.yul\":3942:4038   */\n      swap2\n      swap1\n      pop\n      jump\t// out\n        /* \"#utility.yul\":4044:4162   */\n    tag_195:\n        /* \"#utility.yul\":4131:4155   */\n      tag_293\n        /* \"#utility.yul\":4149:4154   */\n      dup2\n        /* \"#utility.yul\":4131:4155   */\n      tag_194\n      jump\t// in\n    tag_293:\n        /* \"#utility.yul\":4126:4129   */\n      dup3\n        /* \"#utility.yul\":4119:4156   */\n      mstore\n        /* \"#utility.yul\":4044:4162   */\n      pop\n      pop\n      jump\t// out\n        /* \"#utility.yul\":4168:4390   */\n    tag_45:\n        /* \"#utility.yul\":4261:4265   */\n      0x00\n        /* \"#utility.yul\":4299:4301   */\n      0x20\n        /* \"#utility.yul\":4288:4297   */\n      dup3\n        /* \"#utility.yul\":4284:4302   */\n      add\n        /* \"#utility.yul\":4276:4302   */\n      swap1\n      pop\n        /* \"#utility.yul\":4312:4383   */\n      tag_295\n        /* \"#utility.yul\":4380:4381   */\n      0x00\n        /* \"#utility.yul\":4369:4378   */\n      dup4\n        /* \"#utility.yul\":4365:4382   */\n      add\n        /* \"#utility.yul\":4356:4362   */\n      dup5\n        /* \"#utility.yul\":4312:4383   */\n      tag_195\n      jump\t// in\n    tag_295:\n        /* \"#utility.yul\":4168:4390   */\n      swap3\n      swap2\n      pop\n      pop\n      jump\t// out\n        /* \"#utility.yul\":4396:4518   */\n    tag_196:\n        /* \"#utility.yul\":4469:4493   */\n      tag_297\n        /* \"#utility.yul\":4487:4492   */\n      dup2\n        /* \"#utility.yul\":4469:4493   */\n      tag_194\n      jump\t// in\n    tag_297:\n        /* \"#utility.yul\":4462:4467   */\n      dup2\n        /* \"#utility.yul\":4459:4494   */\n      eq\n        /* \"#utility.yul\":4449:4512   */\n      tag_298\n      jumpi\n        /* \"#utility.yul\":4508:4509   */\n      0x00\n        /* \"#utility.yul\":4505:4506   */\n      0x00\n        /* \"#utility.yul\":4498:4510   */\n      revert\n        /* \"#utility.yul\":4449:4512   */\n    tag_298:\n        /* \"#utility.yul\":4396:4518   */\n      pop\n      jump\t// out\n        /* \"#utility.yul\":4524:4663   */\n    tag_197:\n        /* \"#utility.yul\":4570:4575   */\n      0x00\n        /* \"#utility.yul\":4608:4614   */\n      dup2\n        /* \"#utility.yul\":4595:4615   */\n      calldataload\n        /* \"#utility.yul\":4586:4615   */\n      swap1\n      pop\n        /* \"#utility.yul\":4624:4657   */\n      tag_300\n        /* \"#utility.yul\":4651:4656   */\n      dup2\n        /* \"#utility.yul\":4624:4657   */\n      tag_196\n      jump\t// in\n    tag_300:\n        /* \"#utility.yul\":4524:4663   */\n      swap3\n      swap2\n      pop\n      pop\n      jump\t// out\n        /* \"#utility.yul\":4669:4998   */\n    tag_48:\n        /* \"#utility.yul\":4728:4734   */\n      0x00\n        /* \"#utility.yul\":4777:4779   */\n      0x20\n        /* \"#utility.yul\":4765:4774   */\n      dup3\n        /* \"#utility.yul\":4756:4763   */\n      dup5\n        /* \"#utility.yul\":4752:4775   */\n      sub\n        /* \"#utility.yul\":4748:4780   */\n      slt\n        /* \"#utility.yul\":4745:4864   */\n      iszero\n      tag_302\n      jumpi\n        /* \"#utility.yul\":4783:4862   */\n      tag_303\n      tag_178\n      jump\t// in\n    tag_303:\n        /* \"#utility.yul\":4745:4864   */\n    tag_302:\n        /* \"#utility.yul\":4903:4904   */\n      0x00\n        /* \"#utility.yul\":4928:4981   */\n      tag_304\n        /* \"#utility.yul\":4973:4980   */\n      dup5\n        /* \"#utility.yul\":4964:4970   */\n      dup3\n        /* \"#utility.yul\":4953:4962   */\n      dup6\n        /* \"#utility.yul\":4949:4971   */\n      add\n        /* \"#utility.yul\":4928:4981   */\n      tag_197\n      jump\t// in\n    tag_304:\n        /* \"#utility.yul\":4918:4981   */\n      swap2\n      pop\n        /* \"#utility.yul\":4874:4991   */\n      pop\n        /* \"#utility.yul\":4669:4998   */\n      swap3\n      swap2\n      pop\n      pop\n      jump\t// out\n        /* \"#utility.yul\":5004:5094   */\n    tag_198:\n        /* \"#utility.yul\":5038:5045   */\n      0x00\n        /* \"#utility.yul\":5081:5086   */\n      dup2\n        /* \"#utility.yul\":5074:5087   */\n      iszero\n        /* \"#utility.yul\":5067:5088   */\n      iszero\n        /* \"#utility.yul\":5056:5088   */\n      swap1\n      pop\n        /* \"#utility.yul\":5004:5094   */\n      swap2\n      swap1\n      pop\n      jump\t// out\n        /* \"#utility.yul\":5100:5209   */\n    tag_199:\n        /* \"#utility.yul\":5181:5202   */\n      tag_307\n        /* \"#utility.yul\":5196:5201   */\n      dup2\n        /* \"#utility.yul\":5181:5202   */\n      tag_198\n      jump\t// in\n    tag_307:\n        /* \"#utility.yul\":5176:5179   */\n      dup3\n        /* \"#utility.yul\":5169:5203   */\n      mstore\n        /* \"#utility.yul\":5100:5209   */\n      pop\n      pop\n      jump\t// out\n        /* \"#utility.yul\":5215:5633   */\n    tag_54:\n        /* \"#utility.yul\":5352:5356   */\n      0x00\n        /* \"#utility.yul\":5390:5392   */\n      0x60\n        /* \"#utility.yul\":5379:5388   */\n      dup3\n        /* \"#utility.yul\":5375:5393   */\n      add\n        /* \"#utility.yul\":5367:5393   */\n      swap1\n      pop\n        /* \"#utility.yul\":5403:5474   */\n      tag_309\n        /* \"#utility.yul\":5471:5472   */\n      0x00\n        /* \"#utility.yul\":5460:5469   */\n      dup4\n        /* \"#utility.yul\":5456:5473   */\n      add\n        /* \"#utility.yul\":5447:5453   */\n      dup7\n        /* \"#utility.yul\":5403:5474   */\n      tag_187\n      jump\t// in\n    tag_309:\n        /* \"#utility.yul\":5484:5550   */\n      tag_310\n        /* \"#utility.yul\":5546:5548   */\n      0x20\n        /* \"#utility.yul\":5535:5544   */\n      dup4\n        /* \"#utility.yul\":5531:5549   */\n      add\n        /* \"#utility.yul\":5522:5528   */\n      dup6\n        /* \"#utility.yul\":5484:5550   */\n      tag_199\n      jump\t// in\n    tag_310:\n        /* \"#utility.yul\":5560:5626   */\n      tag_311\n        /* \"#utility.yul\":5622:5624   */\n      0x40\n        /* \"#utility.yul\":5611:5620   */\n      dup4\n        /* \"#utility.yul\":5607:5625   */\n      add\n        /* \"#utility.yul\":5598:5604   */\n      dup5\n        /* \"#utility.yul\":5560:5626   */\n      tag_199\n      jump\t// in\n    tag_311:\n        /* \"#utility.yul\":5215:5633   */\n      swap5\n      swap4\n      pop\n      pop\n      pop\n      pop\n      jump\t// out\n        /* \"#utility.yul\":5639:5756   */\n    tag_200:\n        /* \"#utility.yul\":5748:5749   */\n      0x00\n        /* \"#utility.yul\":5745:5746   */\n      0x00\n        /* \"#utility.yul\":5738:5750   */\n      revert\n        /* \"#utility.yul\":5762:5879   */\n    tag_201:\n        /* \"#utility.yul\":5871:5872   */\n      0x00\n        /* \"#utility.yul\":5868:5869   */\n      0x00\n        /* \"#utility.yul\":5861:5873   */\n      revert\n        /* \"#utility.yul\":5885:6065   */\n    tag_202:\n        /* \"#utility.yul\":5933:6010   */\n      0x4e487b7100000000000000000000000000000000000000000000000000000000\n        /* \"#utility.yul\":5930:5931   */\n      0x00\n        /* \"#utility.yul\":5923:6011   */\n      mstore\n        /* \"#utility.yul\":6030:6034   */\n      0x41\n        /* \"#utility.yul\":6027:6028   */\n      0x04\n        /* \"#utility.yul\":6020:6035   */\n      mstore\n        /* \"#utility.yul\":6054:6058   */\n      0x24\n        /* \"#utility.yul\":6051:6052   */\n      0x00\n        /* \"#utility.yul\":6044:6059   */\n      revert\n        /* \"#utility.yul\":6071:6352   */\n    tag_203:\n        /* \"#utility.yul\":6154:6181   */\n      tag_316\n        /* \"#utility.yul\":6176:6180   */\n      dup3\n        /* \"#utility.yul\":6154:6181   */\n      tag_191\n      jump\t// in\n    tag_316:\n        /* \"#utility.yul\":6146:6152   */\n      dup2\n        /* \"#utility.yul\":6142:6182   */\n      add\n        /* \"#utility.yul\":6284:6290   */\n      dup2\n        /* \"#utility.yul\":6272:6282   */\n      dup2\n        /* \"#utility.yul\":6269:6291   */\n      lt\n        /* \"#utility.yul\":6248:6266   */\n      0xffffffffffffffff\n        /* \"#utility.yul\":6236:6246   */\n      dup3\n        /* \"#utility.yul\":6233:6267   */\n      gt\n        /* \"#utility.yul\":6230:6292   */\n      or\n        /* \"#utility.yul\":6227:6315   */\n      iszero\n      tag_317\n      jumpi\n        /* \"#utility.yul\":6295:6313   */\n      tag_318\n      tag_202\n      jump\t// in\n    tag_318:\n        /* \"#utility.yul\":6227:6315   */\n    tag_317:\n        /* \"#utility.yul\":6335:6345   */\n      dup1\n        /* \"#utility.yul\":6331:6333   */\n      0x40\n        /* \"#utility.yul\":6324:6346   */\n      mstore\n        /* \"#utility.yul\":6114:6352   */\n      pop\n        /* \"#utility.yul\":6071:6352   */\n      pop\n      pop\n      jump\t// out\n        /* \"#utility.yul\":6358:6487   */\n    tag_204:\n        /* \"#utility.yul\":6392:6398   */\n      0x00\n        /* \"#utility.yul\":6419:6439   */\n      tag_320\n      tag_177\n      jump\t// in\n    tag_320:\n        /* \"#utility.yul\":6409:6439   */\n      swap1\n      pop\n        /* \"#utility.yul\":6448:6481   */\n      tag_321\n        /* \"#utility.yul\":6476:6480   */\n      dup3\n        /* \"#utility.yul\":6468:6474   */\n      dup3\n        /* \"#utility.yul\":6448:6481   */\n      tag_203\n      jump\t// in\n    tag_321:\n        /* \"#utility.yul\":6358:6487   */\n      swap2\n      swap1\n      pop\n      jump\t// out\n        /* \"#utility.yul\":6493:6801   */\n    tag_205:\n        /* \"#utility.yul\":6555:6559   */\n      0x00\n        /* \"#utility.yul\":6645:6663   */\n      0xffffffffffffffff\n        /* \"#utility.yul\":6637:6643   */\n      dup3\n        /* \"#utility.yul\":6634:6664   */\n      gt\n        /* \"#utility.yul\":6631:6687   */\n      iszero\n      tag_323\n      jumpi\n        /* \"#utility.yul\":6667:6685   */\n      tag_324\n      tag_202\n      jump\t// in\n    tag_324:\n        /* \"#utility.yul\":6631:6687   */\n    tag_323:\n        /* \"#utility.yul\":6705:6734   */\n      tag_325\n        /* \"#utility.yul\":6727:6733   */\n      dup3\n        /* \"#utility.yul\":6705:6734   */\n      tag_191\n      jump\t// in\n    tag_325:\n        /* \"#utility.yul\":6697:6734   */\n      swap1\n      pop\n        /* \"#utility.yul\":6789:6793   */\n      0x20\n        /* \"#utility.yul\":6783:6787   */\n      dup2\n        /* \"#utility.yul\":6779:6794   */\n      add\n        /* \"#utility.yul\":6771:6794   */\n      swap1\n      pop\n        /* \"#utility.yul\":6493:6801   */\n      swap2\n      swap1\n      pop\n      jump\t// out\n        /* \"#utility.yul\":6807:6955   */\n    tag_206:\n        /* \"#utility.yul\":6905:6911   */\n      dup3\n        /* \"#utility.yul\":6900:6903   */\n      dup2\n        /* \"#utility.yul\":6895:6898   */\n      dup4\n        /* \"#utility.yul\":6882:6912   */\n      calldatacopy\n        /* \"#utility.yul\":6946:6947   */\n      0x00\n        /* \"#utility.yul\":6937:6943   */\n      dup4\n        /* \"#utility.yul\":6932:6935   */\n      dup4\n        /* \"#utility.yul\":6928:6944   */\n      add\n        /* \"#utility.yul\":6921:6948   */\n      mstore\n        /* \"#utility.yul\":6807:6955   */\n      pop\n      pop\n      pop\n      jump\t// out\n        /* \"#utility.yul\":6961:7386   */\n    tag_207:\n        /* \"#utility.yul\":7039:7044   */\n      0x00\n        /* \"#utility.yul\":7064:7130   */\n      tag_328\n        /* \"#utility.yul\":7080:7129   */\n      tag_329\n        /* \"#utility.yul\":7122:7128   */\n      dup5\n        /* \"#utility.yul\":7080:7129   */\n      tag_205\n      jump\t// in\n    tag_329:\n        /* \"#utility.yul\":7064:7130   */\n      tag_204\n      jump\t// in\n    tag_328:\n        /* \"#utility.yul\":7055:7130   */\n      swap1\n      pop\n        /* \"#utility.yul\":7153:7159   */\n      dup3\n        /* \"#utility.yul\":7146:7151   */\n      dup2\n        /* \"#utility.yul\":7139:7160   */\n      mstore\n        /* \"#utility.yul\":7191:7195   */\n      0x20\n        /* \"#utility.yul\":7184:7189   */\n      dup2\n        /* \"#utility.yul\":7180:7196   */\n      add\n        /* \"#utility.yul\":7229:7232   */\n      dup5\n        /* \"#utility.yul\":7220:7226   */\n      dup5\n        /* \"#utility.yul\":7215:7218   */\n      dup5\n        /* \"#utility.yul\":7211:7227   */\n      add\n        /* \"#utility.yul\":7208:7233   */\n      gt\n        /* \"#utility.yul\":7205:7317   */\n      iszero\n      tag_330\n      jumpi\n        /* \"#utility.yul\":7236:7315   */\n      tag_331\n      tag_201\n      jump\t// in\n    tag_331:\n        /* \"#utility.yul\":7205:7317   */\n    tag_330:\n        /* \"#utility.yul\":7326:7380   */\n      tag_332\n        /* \"#utility.yul\":7373:7379   */\n      dup5\n        /* \"#utility.yul\":7368:7371   */\n      dup3\n        /* \"#utility.yul\":7363:7366   */\n      dup6\n        /* \"#utility.yul\":7326:7380   */\n      tag_206\n      jump\t// in\n    tag_332:\n        /* \"#utility.yul\":7045:7386   */\n      pop\n        /* \"#utility.yul\":6961:7386   */\n      swap4\n      swap3\n      pop\n      pop\n      pop\n      jump\t// out\n        /* \"#utility.yul\":7406:7746   */\n    tag_208:\n        /* \"#utility.yul\":7462:7467   */\n      0x00\n        /* \"#utility.yul\":7511:7514   */\n      dup3\n        /* \"#utility.yul\":7504:7508   */\n      0x1f\n        /* \"#utility.yul\":7496:7502   */\n      dup4\n        /* \"#utility.yul\":7492:7509   */\n      add\n        /* \"#utility.yul\":7488:7515   */\n      slt\n        /* \"#utility.yul\":7478:7600   */\n      tag_334\n      jumpi\n        /* \"#utility.yul\":7519:7598   */\n      tag_335\n      tag_200\n      jump\t// in\n    tag_335:\n        /* \"#utility.yul\":7478:7600   */\n    tag_334:\n        /* \"#utility.yul\":7636:7642   */\n      dup2\n        /* \"#utility.yul\":7623:7643   */\n      calldataload\n        /* \"#utility.yul\":7661:7740   */\n      tag_336\n        /* \"#utility.yul\":7736:7739   */\n      dup5\n        /* \"#utility.yul\":7728:7734   */\n      dup3\n        /* \"#utility.yul\":7721:7725   */\n      0x20\n        /* \"#utility.yul\":7713:7719   */\n      dup7\n        /* \"#utility.yul\":7709:7726   */\n      add\n        /* \"#utility.yul\":7661:7740   */\n      tag_207\n      jump\t// in\n    tag_336:\n        /* \"#utility.yul\":7652:7740   */\n      swap2\n      pop\n        /* \"#utility.yul\":7468:7746   */\n      pop\n        /* \"#utility.yul\":7406:7746   */\n      swap3\n      swap2\n      pop\n      pop\n      jump\t// out\n        /* \"#utility.yul\":7752:8261   */\n    tag_57:\n        /* \"#utility.yul\":7821:7827   */\n      0x00\n        /* \"#utility.yul\":7870:7872   */\n      0x20\n        /* \"#utility.yul\":7858:7867   */\n      dup3\n        /* \"#utility.yul\":7849:7856   */\n      dup5\n        /* \"#utility.yul\":7845:7868   */\n      sub\n        /* \"#utility.yul\":7841:7873   */\n      slt\n        /* \"#utility.yul\":7838:7957   */\n      iszero\n      tag_338\n      jumpi\n        /* \"#utility.yul\":7876:7955   */\n      tag_339\n      tag_178\n      jump\t// in\n    tag_339:\n        /* \"#utility.yul\":7838:7957   */\n    tag_338:\n        /* \"#utility.yul\":8024:8025   */\n      0x00\n        /* \"#utility.yul\":8013:8022   */\n      dup3\n        /* \"#utility.yul\":8009:8026   */\n      add\n        /* \"#utility.yul\":7996:8027   */\n      calldataload\n        /* \"#utility.yul\":8054:8072   */\n      0xffffffffffffffff\n        /* \"#utility.yul\":8046:8052   */\n      dup2\n        /* \"#utility.yul\":8043:8073   */\n      gt\n        /* \"#utility.yul\":8040:8157   */\n      iszero\n      tag_340\n      jumpi\n        /* \"#utility.yul\":8076:8155   */\n      tag_341\n      tag_179\n      jump\t// in\n    tag_341:\n        /* \"#utility.yul\":8040:8157   */\n    tag_340:\n        /* \"#utility.yul\":8181:8244   */\n      tag_342\n        /* \"#utility.yul\":8236:8243   */\n      dup5\n        /* \"#utility.yul\":8227:8233   */\n      dup3\n        /* \"#utility.yul\":8216:8225   */\n      dup6\n        /* \"#utility.yul\":8212:8234   */\n      add\n        /* \"#utility.yul\":8181:8244   */\n      tag_208\n      jump\t// in\n    tag_342:\n        /* \"#utility.yul\":8171:8244   */\n      swap2\n      pop\n        /* \"#utility.yul\":7967:8254   */\n      pop\n        /* \"#utility.yul\":7752:8261   */\n      swap3\n      swap2\n      pop\n      pop\n      jump\t// out\n        /* \"#utility.yul\":8267:8437   */\n    tag_209:\n        /* \"#utility.yul\":8407:8429   */\n      0x566f74696e67206973206e6f7420616374697665000000000000000000000000\n        /* \"#utility.yul\":8403:8404   */\n      0x00\n        /* \"#utility.yul\":8395:8401   */\n      dup3\n        /* \"#utility.yul\":8391:8405   */\n      add\n        /* \"#utility.yul\":8384:8430   */\n      mstore\n        /* \"#utility.yul\":8267:8437   */\n      pop\n      jump\t// out\n        /* \"#utility.yul\":8443:8809   */\n    tag_210:\n        /* \"#utility.yul\":8585:8588   */\n      0x00\n        /* \"#utility.yul\":8606:8673   */\n      tag_345\n        /* \"#utility.yul\":8670:8672   */\n      0x14\n        /* \"#utility.yul\":8665:8668   */\n      dup4\n        /* \"#utility.yul\":8606:8673   */\n      tag_189\n      jump\t// in\n    tag_345:\n        /* \"#utility.yul\":8599:8673   */\n      swap2\n      pop\n        /* \"#utility.yul\":8682:8775   */\n      tag_346\n        /* \"#utility.yul\":8771:8774   */\n      dup3\n        /* \"#utility.yul\":8682:8775   */\n      tag_209\n      jump\t// in\n    tag_346:\n        /* \"#utility.yul\":8800:8802   */\n      0x20\n        /* \"#utility.yul\":8795:8798   */\n      dup3\n        /* \"#utility.yul\":8791:8803   */\n      add\n        /* \"#utility.yul\":8784:8803   */\n      swap1\n      pop\n        /* \"#utility.yul\":8443:8809   */\n      swap2\n      swap1\n      pop\n      jump\t// out\n        /* \"#utility.yul\":8815:9234   */\n    tag_69:\n        /* \"#utility.yul\":8981:8985   */\n      0x00\n        /* \"#utility.yul\":9019:9021   */\n      0x20\n        /* \"#utility.yul\":9008:9017   */\n      dup3\n        /* \"#utility.yul\":9004:9022   */\n      add\n        /* \"#utility.yul\":8996:9022   */\n      swap1\n      pop\n        /* \"#utility.yul\":9068:9077   */\n      dup2\n        /* \"#utility.yul\":9062:9066   */\n      dup2\n        /* \"#utility.yul\":9058:9078   */\n      sub\n        /* \"#utility.yul\":9054:9055   */\n      0x00\n        /* \"#utility.yul\":9043:9052   */\n      dup4\n        /* \"#utility.yul\":9039:9056   */\n      add\n        /* \"#utility.yul\":9032:9079   */\n      mstore\n        /* \"#utility.yul\":9096:9227   */\n      tag_348\n        /* \"#utility.yul\":9222:9226   */\n      dup2\n        /* \"#utility.yul\":9096:9227   */\n      tag_210\n      jump\t// in\n    tag_348:\n        /* \"#utility.yul\":9088:9227   */\n      swap1\n      pop\n        /* \"#utility.yul\":8815:9234   */\n      swap2\n      swap1\n      pop\n      jump\t// out\n        /* \"#utility.yul\":9240:9420   */\n    tag_211:\n        /* \"#utility.yul\":9380:9412   */\n      0x596f7520617265206e6f74207265676973746572656420746f20766f74650000\n        /* \"#utility.yul\":9376:9377   */\n      0x00\n        /* \"#utility.yul\":9368:9374   */\n      dup3\n        /* \"#utility.yul\":9364:9378   */\n      add\n        /* \"#utility.yul\":9357:9413   */\n      mstore\n        /* \"#utility.yul\":9240:9420   */\n      pop\n      jump\t// out\n        /* \"#utility.yul\":9426:9792   */\n    tag_212:\n        /* \"#utility.yul\":9568:9571   */\n      0x00\n        /* \"#utility.yul\":9589:9656   */\n      tag_351\n        /* \"#utility.yul\":9653:9655   */\n      0x1e\n        /* \"#utility.yul\":9648:9651   */\n      dup4\n        /* \"#utility.yul\":9589:9656   */\n      tag_189\n      jump\t// in\n    tag_351:\n        /* \"#utility.yul\":9582:9656   */\n      swap2\n      pop\n        /* \"#utility.yul\":9665:9758   */\n      tag_352\n        /* \"#utility.yul\":9754:9757   */\n      dup3\n        /* \"#utility.yul\":9665:9758   */\n      tag_211\n      jump\t// in\n    tag_352:\n        /* \"#utility.yul\":9783:9785   */\n      0x20\n        /* \"#utility.yul\":9778:9781   */\n      dup3\n        /* \"#utility.yul\":9774:9786   */\n      add\n        /* \"#utility.yul\":9767:9786   */\n      swap1\n      pop\n        /* \"#utility.yul\":9426:9792   */\n      swap2\n      swap1\n      pop\n      jump\t// out\n        /* \"#utility.yul\":9798:10217   */\n    tag_73:\n        /* \"#utility.yul\":9964:9968   */\n      0x00\n        /* \"#utility.yul\":10002:10004   */\n      0x20\n        /* \"#utility.yul\":9991:10000   */\n      dup3\n        /* \"#utility.yul\":9987:10005   */\n      add\n        /* \"#utility.yul\":9979:10005   */\n      swap1\n      pop\n        /* \"#utility.yul\":10051:10060   */\n      dup2\n        /* \"#utility.yul\":10045:10049   */\n      dup2\n        /* \"#utility.yul\":10041:10061   */\n      sub\n        /* \"#utility.yul\":10037:10038   */\n      0x00\n        /* \"#utility.yul\":10026:10035   */\n      dup4\n        /* \"#utility.yul\":10022:10039   */\n      add\n        /* \"#utility.yul\":10015:10062   */\n      mstore\n        /* \"#utility.yul\":10079:10210   */\n      tag_354\n        /* \"#utility.yul\":10205:10209   */\n      dup2\n        /* \"#utility.yul\":10079:10210   */\n      tag_212\n      jump\t// in\n    tag_354:\n        /* \"#utility.yul\":10071:10210   */\n      swap1\n      pop\n        /* \"#utility.yul\":9798:10217   */\n      swap2\n      swap1\n      pop\n      jump\t// out\n        /* \"#utility.yul\":10223:10395   */\n    tag_213:\n        /* \"#utility.yul\":10363:10387   */\n      0x596f75206861766520616c726561647920766f74656400000000000000000000\n        /* \"#utility.yul\":10359:10360   */\n      0x00\n        /* \"#utility.yul\":10351:10357   */\n      dup3\n        /* \"#utility.yul\":10347:10361   */\n      add\n        /* \"#utility.yul\":10340:10388   */\n      mstore\n        /* \"#utility.yul\":10223:10395   */\n      pop\n      jump\t// out\n        /* \"#utility.yul\":10401:10767   */\n    tag_214:\n        /* \"#utility.yul\":10543:10546   */\n      0x00\n        /* \"#utility.yul\":10564:10631   */\n      tag_357\n        /* \"#utility.yul\":10628:10630   */\n      0x16\n        /* \"#utility.yul\":10623:10626   */\n      dup4\n        /* \"#utility.yul\":10564:10631   */\n      tag_189\n      jump\t// in\n    tag_357:\n        /* \"#utility.yul\":10557:10631   */\n      swap2\n      pop\n        /* \"#utility.yul\":10640:10733   */\n      tag_358\n        /* \"#utility.yul\":10729:10732   */\n      dup3\n        /* \"#utility.yul\":10640:10733   */\n      tag_213\n      jump\t// in\n    tag_358:\n        /* \"#utility.yul\":10758:10760   */\n      0x20\n        /* \"#utility.yul\":10753:10756   */\n      dup3\n        /* \"#utility.yul\":10749:10761   */\n      add\n        /* \"#utility.yul\":10742:10761   */\n      swap1\n      pop\n        /* \"#utility.yul\":10401:10767   */\n      swap2\n      swap1\n      pop\n      jump\t// out\n        /* \"#utility.yul\":10773:11192   */\n    tag_76:\n        /* \"#utility.yul\":10939:10943   */\n      0x00\n        /* \"#utility.yul\":10977:10979   */\n      0x20\n        /* \"#utility.yul\":10966:10975   */\n      dup3\n        /* \"#utility.yul\":10962:10980   */\n      add\n        /* \"#utility.yul\":10954:10980   */\n      swap1\n      pop\n        /* \"#utility.yul\":11026:11035   */\n      dup2\n        /* \"#utility.yul\":11020:11024   */\n      dup2\n        /* \"#utility.yul\":11016:11036   */\n      sub\n        /* \"#utility.yul\":11012:11013   */\n      0x00\n        /* \"#utility.yul\":11001:11010   */\n      dup4\n        /* \"#utility.yul\":10997:11014   */\n      add\n        /* \"#utility.yul\":10990:11037   */\n      mstore\n        /* \"#utility.yul\":11054:11185   */\n      tag_360\n        /* \"#utility.yul\":11180:11184   */\n      dup2\n        /* \"#utility.yul\":11054:11185   */\n      tag_214\n      jump\t// in\n    tag_360:\n        /* \"#utility.yul\":11046:11185   */\n      swap1\n      pop\n        /* \"#utility.yul\":10773:11192   */\n      swap2\n      swap1\n      pop\n      jump\t// out\n        /* \"#utility.yul\":11198:11360   */\n    tag_215:\n        /* \"#utility.yul\":11338:11352   */\n      0x4e6f7420616e206f776e65720000000000000000000000000000000000000000\n        /* \"#utility.yul\":11334:11335   */\n      0x00\n        /* \"#utility.yul\":11326:11332   */\n      dup3\n        /* \"#utility.yul\":11322:11336   */\n      add\n        /* \"#utility.yul\":11315:11353   */\n      mstore\n        /* \"#utility.yul\":11198:11360   */\n      pop\n      jump\t// out\n        /* \"#utility.yul\":11366:11732   */\n    tag_216:\n        /* \"#utility.yul\":11508:11511   */\n      0x00\n        /* \"#utility.yul\":11529:11596   */\n      tag_363\n        /* \"#utility.yul\":11593:11595   */\n      0x0c\n        /* \"#utility.yul\":11588:11591   */\n      dup4\n        /* \"#utility.yul\":11529:11596   */\n      tag_189\n      jump\t// in\n    tag_363:\n        /* \"#utility.yul\":11522:11596   */\n      swap2\n      pop\n        /* \"#utility.yul\":11605:11698   */\n      tag_364\n        /* \"#utility.yul\":11694:11697   */\n      dup3\n        /* \"#utility.yul\":11605:11698   */\n      tag_215\n      jump\t// in\n    tag_364:\n        /* \"#utility.yul\":11723:11725   */\n      0x20\n        /* \"#utility.yul\":11718:11721   */\n      dup3\n        /* \"#utility.yul\":11714:11726   */\n      add\n        /* \"#utility.yul\":11707:11726   */\n      swap1\n      pop\n        /* \"#utility.yul\":11366:11732   */\n      swap2\n      swap1\n      pop\n      jump\t// out\n        /* \"#utility.yul\":11738:12157   */\n    tag_82:\n        /* \"#utility.yul\":11904:11908   */\n      0x00\n        /* \"#utility.yul\":11942:11944   */\n      0x20\n        /* \"#utility.yul\":11931:11940   */\n      dup3\n        /* \"#utility.yul\":11927:11945   */\n      add\n        /* \"#utility.yul\":11919:11945   */\n      swap1\n      pop\n        /* \"#utility.yul\":11991:12000   */\n      dup2\n        /* \"#utility.yul\":11985:11989   */\n      dup2\n        /* \"#utility.yul\":11981:12001   */\n      sub\n        /* \"#utility.yul\":11977:11978   */\n      0x00\n        /* \"#utility.yul\":11966:11975   */\n      dup4\n        /* \"#utility.yul\":11962:11979   */\n      add\n        /* \"#utility.yul\":11955:12002   */\n      mstore\n        /* \"#utility.yul\":12019:12150   */\n      tag_366\n        /* \"#utility.yul\":12145:12149   */\n      dup2\n        /* \"#utility.yul\":12019:12150   */\n      tag_216\n      jump\t// in\n    tag_366:\n        /* \"#utility.yul\":12011:12150   */\n      swap1\n      pop\n        /* \"#utility.yul\":11738:12157   */\n      swap2\n      swap1\n      pop\n      jump\t// out\n        /* \"#utility.yul\":12163:12384   */\n    tag_217:\n        /* \"#utility.yul\":12303:12337   */\n      0x566f74696e6720616c72656164792073746172746564206f722066696e697368\n        /* \"#utility.yul\":12299:12300   */\n      0x00\n        /* \"#utility.yul\":12291:12297   */\n      dup3\n        /* \"#utility.yul\":12287:12301   */\n      add\n        /* \"#utility.yul\":12280:12338   */\n      mstore\n        /* \"#utility.yul\":12372:12376   */\n      0x6564000000000000000000000000000000000000000000000000000000000000\n        /* \"#utility.yul\":12367:12369   */\n      0x20\n        /* \"#utility.yul\":12359:12365   */\n      dup3\n        /* \"#utility.yul\":12355:12370   */\n      add\n        /* \"#utility.yul\":12348:12377   */\n      mstore\n        /* \"#utility.yul\":12163:12384   */\n      pop\n      jump\t// out\n        /* \"#utility.yul\":12390:12756   */\n    tag_218:\n        /* \"#utility.yul\":12532:12535   */\n      0x00\n        /* \"#utility.yul\":12553:12620   */\n      tag_369\n        /* \"#utility.yul\":12617:12619   */\n      0x22\n        /* \"#utility.yul\":12612:12615   */\n      dup4\n        /* \"#utility.yul\":12553:12620   */\n      tag_189\n      jump\t// in\n    tag_369:\n        /* \"#utility.yul\":12546:12620   */\n      swap2\n      pop\n        /* \"#utility.yul\":12629:12722   */\n      tag_370\n        /* \"#utility.yul\":12718:12721   */\n      dup3\n        /* \"#utility.yul\":12629:12722   */\n      tag_217\n      jump\t// in\n    tag_370:\n        /* \"#utility.yul\":12747:12749   */\n      0x40\n        /* \"#utility.yul\":12742:12745   */\n      dup3\n        /* \"#utility.yul\":12738:12750   */\n      add\n        /* \"#utility.yul\":12731:12750   */\n      swap1\n      pop\n        /* \"#utility.yul\":12390:12756   */\n      swap2\n      swap1\n      pop\n      jump\t// out\n        /* \"#utility.yul\":12762:13181   */\n    tag_90:\n        /* \"#utility.yul\":12928:12932   */\n      0x00\n        /* \"#utility.yul\":12966:12968   */\n      0x20\n        /* \"#utility.yul\":12955:12964   */\n      dup3\n        /* \"#utility.yul\":12951:12969   */\n      add\n        /* \"#utility.yul\":12943:12969   */\n      swap1\n      pop\n        /* \"#utility.yul\":13015:13024   */\n      dup2\n        /* \"#utility.yul\":13009:13013   */\n      dup2\n        /* \"#utility.yul\":13005:13025   */\n      sub\n        /* \"#utility.yul\":13001:13002   */\n      0x00\n        /* \"#utility.yul\":12990:12999   */\n      dup4\n        /* \"#utility.yul\":12986:13003   */\n      add\n        /* \"#utility.yul\":12979:13026   */\n      mstore\n        /* \"#utility.yul\":13043:13174   */\n      tag_372\n        /* \"#utility.yul\":13169:13173   */\n      dup2\n        /* \"#utility.yul\":13043:13174   */\n      tag_218\n      jump\t// in\n    tag_372:\n        /* \"#utility.yul\":13035:13174   */\n      swap1\n      pop\n        /* \"#utility.yul\":12762:13181   */\n      swap2\n      swap1\n      pop\n      jump\t// out\n        /* \"#utility.yul\":13187:13367   */\n    tag_219:\n        /* \"#utility.yul\":13235:13312   */\n      0x4e487b7100000000000000000000000000000000000000000000000000000000\n        /* \"#utility.yul\":13232:13233   */\n      0x00\n        /* \"#utility.yul\":13225:13313   */\n      mstore\n        /* \"#utility.yul\":13332:13336   */\n      0x22\n        /* \"#utility.yul\":13329:13330   */\n      0x04\n        /* \"#utility.yul\":13322:13337   */\n      mstore\n        /* \"#utility.yul\":13356:13360   */\n      0x24\n        /* \"#utility.yul\":13353:13354   */\n      0x00\n        /* \"#utility.yul\":13346:13361   */\n      revert\n        /* \"#utility.yul\":13373:13693   */\n    tag_96:\n        /* \"#utility.yul\":13417:13423   */\n      0x00\n        /* \"#utility.yul\":13454:13455   */\n      0x02\n        /* \"#utility.yul\":13448:13452   */\n      dup3\n        /* \"#utility.yul\":13444:13456   */\n      div\n        /* \"#utility.yul\":13434:13456   */\n      swap1\n      pop\n        /* \"#utility.yul\":13501:13502   */\n      0x01\n        /* \"#utility.yul\":13495:13499   */\n      dup3\n        /* \"#utility.yul\":13491:13503   */\n      and\n        /* \"#utility.yul\":13522:13540   */\n      dup1\n        /* \"#utility.yul\":13512:13593   */\n      tag_375\n      jumpi\n        /* \"#utility.yul\":13578:13582   */\n      0x7f\n        /* \"#utility.yul\":13570:13576   */\n      dup3\n        /* \"#utility.yul\":13566:13583   */\n      and\n        /* \"#utility.yul\":13556:13583   */\n      swap2\n      pop\n        /* \"#utility.yul\":13512:13593   */\n    tag_375:\n        /* \"#utility.yul\":13640:13642   */\n      0x20\n        /* \"#utility.yul\":13632:13638   */\n      dup3\n        /* \"#utility.yul\":13629:13643   */\n      lt\n        /* \"#utility.yul\":13609:13627   */\n      dup2\n        /* \"#utility.yul\":13606:13644   */\n      sub\n        /* \"#utility.yul\":13603:13687   */\n      tag_376\n      jumpi\n        /* \"#utility.yul\":13659:13677   */\n      tag_377\n      tag_219\n      jump\t// in\n    tag_377:\n        /* \"#utility.yul\":13603:13687   */\n    tag_376:\n        /* \"#utility.yul\":13424:13693   */\n      pop\n        /* \"#utility.yul\":13373:13693   */\n      swap2\n      swap1\n      pop\n      jump\t// out\n        /* \"#utility.yul\":13699:13873   */\n    tag_220:\n        /* \"#utility.yul\":13839:13865   */\n      0x43616e64696461746520646f6573206e6f742065786973740000000000000000\n        /* \"#utility.yul\":13835:13836   */\n      0x00\n        /* \"#utility.yul\":13827:13833   */\n      dup3\n        /* \"#utility.yul\":13823:13837   */\n      add\n        /* \"#utility.yul\":13816:13866   */\n      mstore\n        /* \"#utility.yul\":13699:13873   */\n      pop\n      jump\t// out\n        /* \"#utility.yul\":13879:14245   */\n    tag_221:\n        /* \"#utility.yul\":14021:14024   */\n      0x00\n        /* \"#utility.yul\":14042:14109   */\n      tag_380\n        /* \"#utility.yul\":14106:14108   */\n      0x18\n        /* \"#utility.yul\":14101:14104   */\n      dup4\n        /* \"#utility.yul\":14042:14109   */\n      tag_189\n      jump\t// in\n    tag_380:\n        /* \"#utility.yul\":14035:14109   */\n      swap2\n      pop\n        /* \"#utility.yul\":14118:14211   */\n      tag_381\n        /* \"#utility.yul\":14207:14210   */\n      dup3\n        /* \"#utility.yul\":14118:14211   */\n      tag_220\n      jump\t// in\n    tag_381:\n        /* \"#utility.yul\":14236:14238   */\n      0x20\n        /* \"#utility.yul\":14231:14234   */\n      dup3\n        /* \"#utility.yul\":14227:14239   */\n      add\n        /* \"#utility.yul\":14220:14239   */\n      swap1\n      pop\n        /* \"#utility.yul\":13879:14245   */\n      swap2\n      swap1\n      pop\n      jump\t// out\n        /* \"#utility.yul\":14251:14670   */\n    tag_104:\n        /* \"#utility.yul\":14417:14421   */\n      0x00\n        /* \"#utility.yul\":14455:14457   */\n      0x20\n        /* \"#utility.yul\":14444:14453   */\n      dup3\n        /* \"#utility.yul\":14440:14458   */\n      add\n        /* \"#utility.yul\":14432:14458   */\n      swap1\n      pop\n        /* \"#utility.yul\":14504:14513   */\n      dup2\n        /* \"#utility.yul\":14498:14502   */\n      dup2\n        /* \"#utility.yul\":14494:14514   */\n      sub\n        /* \"#utility.yul\":14490:14491   */\n      0x00\n        /* \"#utility.yul\":14479:14488   */\n      dup4\n        /* \"#utility.yul\":14475:14492   */\n      add\n        /* \"#utility.yul\":14468:14515   */\n      mstore\n        /* \"#utility.yul\":14532:14663   */\n      tag_383\n        /* \"#utility.yul\":14658:14662   */\n      dup2\n        /* \"#utility.yul\":14532:14663   */\n      tag_221\n      jump\t// in\n    tag_383:\n        /* \"#utility.yul\":14524:14663   */\n      swap1\n      pop\n        /* \"#utility.yul\":14251:14670   */\n      swap2\n      swap1\n      pop\n      jump\t// out\n        /* \"#utility.yul\":14676:14856   */\n    tag_107:\n        /* \"#utility.yul\":14724:14801   */\n      0x4e487b7100000000000000000000000000000000000000000000000000000000\n        /* \"#utility.yul\":14721:14722   */\n      0x00\n        /* \"#utility.yul\":14714:14802   */\n      mstore\n        /* \"#utility.yul\":14821:14825   */\n      0x32\n        /* \"#utility.yul\":14818:14819   */\n      0x04\n        /* \"#utility.yul\":14811:14826   */\n      mstore\n        /* \"#utility.yul\":14845:14849   */\n      0x24\n        /* \"#utility.yul\":14842:14843   */\n      0x00\n        /* \"#utility.yul\":14835:14850   */\n      revert\n        /* \"#utility.yul\":14862:15083   */\n    tag_222:\n        /* \"#utility.yul\":15002:15036   */\n      0x43616e6e6f7420726567697374657220766f7465727320616674657220737461\n        /* \"#utility.yul\":14998:14999   */\n      0x00\n        /* \"#utility.yul\":14990:14996   */\n      dup3\n        /* \"#utility.yul\":14986:15000   */\n      add\n        /* \"#utility.yul\":14979:15037   */\n      mstore\n        /* \"#utility.yul\":15071:15075   */\n      0x7274000000000000000000000000000000000000000000000000000000000000\n        /* \"#utility.yul\":15066:15068   */\n      0x20\n        /* \"#utility.yul\":15058:15064   */\n      dup3\n        /* \"#utility.yul\":15054:15069   */\n      add\n        /* \"#utility.yul\":15047:15076   */\n      mstore\n        /* \"#utility.yul\":14862:15083   */\n      pop\n      jump\t// out\n        /* \"#utility.yul\":15089:15455   */\n    tag_223:\n        /* \"#utility.yul\":15231:15234   */\n      0x00\n        /* \"#utility.yul\":15252:15319   */\n      tag_387\n        /* \"#utility.yul\":15316:15318   */\n      0x22\n        /* \"#utility.yul\":15311:15314   */\n      dup4\n        /* \"#utility.yul\":15252:15319   */\n      tag_189\n      jump\t// in\n    tag_387:\n        /* \"#utility.yul\":15245:15319   */\n      swap2\n      pop\n        /* \"#utility.yul\":15328:15421   */\n      tag_388\n        /* \"#utility.yul\":15417:15420   */\n      dup3\n        /* \"#utility.yul\":15328:15421   */\n      tag_222\n      jump\t// in\n    tag_388:\n        /* \"#utility.yul\":15446:15448   */\n      0x40\n        /* \"#utility.yul\":15441:15444   */\n      dup3\n        /* \"#utility.yul\":15437:15449   */\n      add\n        /* \"#utility.yul\":15430:15449   */\n      swap1\n      pop\n        /* \"#utility.yul\":15089:15455   */\n      swap2\n      swap1\n      pop\n      jump\t// out\n        /* \"#utility.yul\":15461:15880   */\n    tag_125:\n        /* \"#utility.yul\":15627:15631   */\n      0x00\n        /* \"#utility.yul\":15665:15667   */\n      0x20\n        /* \"#utility.yul\":15654:15663   */\n      dup3\n        /* \"#utility.yul\":15650:15668   */\n      add\n        /* \"#utility.yul\":15642:15668   */\n      swap1\n      pop\n        /* \"#utility.yul\":15714:15723   */\n      dup2\n        /* \"#utility.yul\":15708:15712   */\n      dup2\n        /* \"#utility.yul\":15704:15724   */\n      sub\n        /* \"#utility.yul\":15700:15701   */\n      0x00\n        /* \"#utility.yul\":15689:15698   */\n      dup4\n        /* \"#utility.yul\":15685:15702   */\n      add\n        /* \"#utility.yul\":15678:15725   */\n      mstore\n        /* \"#utility.yul\":15742:15873   */\n      tag_390\n        /* \"#utility.yul\":15868:15872   */\n      dup2\n        /* \"#utility.yul\":15742:15873   */\n      tag_223\n      jump\t// in\n    tag_390:\n        /* \"#utility.yul\":15734:15873   */\n      swap1\n      pop\n        /* \"#utility.yul\":15461:15880   */\n      swap2\n      swap1\n      pop\n      jump\t// out\n        /* \"#utility.yul\":15886:16106   */\n    tag_224:\n        /* \"#utility.yul\":16026:16060   */\n      0x43616e6e6f74206164642063616e646964617465732061667465722073746172\n        /* \"#utility.yul\":16022:16023   */\n      0x00\n        /* \"#utility.yul\":16014:16020   */\n      dup3\n        /* \"#utility.yul\":16010:16024   */\n      add\n        /* \"#utility.yul\":16003:16061   */\n      mstore\n        /* \"#utility.yul\":16095:16098   */\n      0x7400000000000000000000000000000000000000000000000000000000000000\n        /* \"#utility.yul\":16090:16092   */\n      0x20\n        /* \"#utility.yul\":16082:16088   */\n      dup3\n        /* \"#utility.yul\":16078:16093   */\n      add\n        /* \"#utility.yul\":16071:16099   */\n      mstore\n        /* \"#utility.yul\":15886:16106   */\n      pop\n      jump\t// out\n        /* \"#utility.yul\":16112:16478   */\n    tag_225:\n        /* \"#utility.yul\":16254:16257   */\n      0x00\n        /* \"#utility.yul\":16275:16342   */\n      tag_393\n        /* \"#utility.yul\":16339:16341   */\n      0x21\n        /* \"#utility.yul\":16334:16337   */\n      dup4\n        /* \"#utility.yul\":16275:16342   */\n      tag_189\n      jump\t// in\n    tag_393:\n        /* \"#utility.yul\":16268:16342   */\n      swap2\n      pop\n        /* \"#utility.yul\":16351:16444   */\n      tag_394\n        /* \"#utility.yul\":16440:16443   */\n      dup3\n        /* \"#utility.yul\":16351:16444   */\n      tag_224\n      jump\t// in\n    tag_394:\n        /* \"#utility.yul\":16469:16471   */\n      0x40\n        /* \"#utility.yul\":16464:16467   */\n      dup3\n        /* \"#utility.yul\":16460:16472   */\n      add\n        /* \"#utility.yul\":16453:16472   */\n      swap1\n      pop\n        /* \"#utility.yul\":16112:16478   */\n      swap2\n      swap1\n      pop\n      jump\t// out\n        /* \"#utility.yul\":16484:16903   */\n    tag_138:\n        /* \"#utility.yul\":16650:16654   */\n      0x00\n        /* \"#utility.yul\":16688:16690   */\n      0x20\n        /* \"#utility.yul\":16677:16686   */\n      dup3\n        /* \"#utility.yul\":16673:16691   */\n      add\n        /* \"#utility.yul\":16665:16691   */\n      swap1\n      pop\n        /* \"#utility.yul\":16737:16746   */\n      dup2\n        /* \"#utility.yul\":16731:16735   */\n      dup2\n        /* \"#utility.yul\":16727:16747   */\n      sub\n        /* \"#utility.yul\":16723:16724   */\n      0x00\n        /* \"#utility.yul\":16712:16721   */\n      dup4\n        /* \"#utility.yul\":16708:16725   */\n      add\n        /* \"#utility.yul\":16701:16748   */\n      mstore\n        /* \"#utility.yul\":16765:16896   */\n      tag_396\n        /* \"#utility.yul\":16891:16895   */\n      dup2\n        /* \"#utility.yul\":16765:16896   */\n      tag_225\n      jump\t// in\n    tag_396:\n        /* \"#utility.yul\":16757:16896   */\n      swap1\n      pop\n        /* \"#utility.yul\":16484:16903   */\n      swap2\n      swap1\n      pop\n      jump\t// out\n        /* \"#utility.yul\":16909:17089   */\n    tag_226:\n        /* \"#utility.yul\":16957:17034   */\n      0x4e487b7100000000000000000000000000000000000000000000000000000000\n        /* \"#utility.yul\":16954:16955   */\n      0x00\n        /* \"#utility.yul\":16947:17035   */\n      mstore\n        /* \"#utility.yul\":17054:17058   */\n      0x11\n        /* \"#utility.yul\":17051:17052   */\n      0x04\n        /* \"#utility.yul\":17044:17059   */\n      mstore\n        /* \"#utility.yul\":17078:17082   */\n      0x24\n        /* \"#utility.yul\":17075:17076   */\n      0x00\n        /* \"#utility.yul\":17068:17083   */\n      revert\n        /* \"#utility.yul\":17095:17328   */\n    tag_161:\n        /* \"#utility.yul\":17134:17137   */\n      0x00\n        /* \"#utility.yul\":17157:17181   */\n      tag_399\n        /* \"#utility.yul\":17175:17180   */\n      dup3\n        /* \"#utility.yul\":17157:17181   */\n      tag_180\n      jump\t// in\n    tag_399:\n        /* \"#utility.yul\":17148:17181   */\n      swap2\n      pop\n        /* \"#utility.yul\":17203:17269   */\n      0xffffffffffffffffffffffffffffffffffffffffffffffffffffffffffffffff\n        /* \"#utility.yul\":17196:17201   */\n      dup3\n        /* \"#utility.yul\":17193:17270   */\n      sub\n        /* \"#utility.yul\":17190:17293   */\n      tag_400\n      jumpi\n        /* \"#utility.yul\":17273:17291   */\n      tag_401\n      tag_226\n      jump\t// in\n    tag_401:\n        /* \"#utility.yul\":17190:17293   */\n    tag_400:\n        /* \"#utility.yul\":17320:17321   */\n      0x01\n        /* \"#utility.yul\":17313:17318   */\n      dup3\n        /* \"#utility.yul\":17309:17322   */\n      add\n        /* \"#utility.yul\":17302:17322   */\n      swap1\n      pop\n        /* \"#utility.yul\":17095:17328   */\n      swap2\n      swap1\n      pop\n      jump\t// out\n        /* \"#utility.yul\":17334:17505   */\n    tag_227:\n        /* \"#utility.yul\":17474:17497   */\n      0x496e76616c696420766f74657220616464726573730000000000000000000000\n        /* \"#utility.yul\":17470:17471   */\n      0x00\n        /* \"#utility.yul\":17462:17468   */\n      dup3\n        /* \"#utility.yul\":17458:17472   */\n      add\n        /* \"#utility.yul\":17451:17498   */\n      mstore\n        /* \"#utility.yul\":17334:17505   */\n      pop\n      jump\t// out\n        /* \"#utility.yul\":17511:17877   */\n    tag_228:\n        /* \"#utility.yul\":17653:17656   */\n      0x00\n        /* \"#utility.yul\":17674:17741   */\n      tag_404\n        /* \"#utility.yul\":17738:17740   */\n      0x15\n        /* \"#utility.yul\":17733:17736   */\n      dup4\n        /* \"#utility.yul\":17674:17741   */\n      tag_189\n      jump\t// in\n    tag_404:\n        /* \"#utility.yul\":17667:17741   */\n      swap2\n      pop\n        /* \"#utility.yul\":17750:17843   */\n      tag_405\n        /* \"#utility.yul\":17839:17842   */\n      dup3\n        /* \"#utility.yul\":17750:17843   */\n      tag_227\n      jump\t// in\n    tag_405:\n        /* \"#utility.yul\":17868:17870   */\n      0x20\n        /* \"#utility.yul\":17863:17866   */\n      dup3\n        /* \"#utility.yul\":17859:17871   */\n      add\n        /* \"#utility.yul\":17852:17871   */\n      swap1\n      pop\n        /* \"#utility.yul\":17511:17877   */\n      swap2\n      swap1\n      pop\n      jump\t// out\n        /* \"#utility.yul\":17883:18302   */\n    tag_165:\n        /* \"#utility.yul\":18049:18053   */\n      0x00\n        /* \"#utility.yul\":18087:18089   */\n      0x20\n        /* \"#utility.yul\":18076:18085   */\n      dup3\n        /* \"#utility.yul\":18072:18090   */\n      add\n        /* \"#utility.yul\":18064:18090   */\n      swap1\n      pop\n        /* \"#utility.yul\":18136:18145   */\n      dup2\n        /* \"#utility.yul\":18130:18134   */\n      dup2\n        /* \"#utility.yul\":18126:18146   */\n      sub\n        /* \"#utility.yul\":18122:18123   */\n      0x00\n        /* \"#utility.yul\":18111:18120   */\n      dup4\n        /* \"#utility.yul\":18107:18124   */\n      add\n        /* \"#utility.yul\":18100:18147   */\n      mstore\n        /* \"#utility.yul\":18164:18295   */\n      tag_407\n        /* \"#utility.yul\":18290:18294   */\n      dup2\n        /* \"#utility.yul\":18164:18295   */\n      tag_228\n      jump\t// in\n    tag_407:\n        /* \"#utility.yul\":18156:18295   */\n      swap1\n      pop\n        /* \"#utility.yul\":17883:18302   */\n      swap2\n      swap1\n      pop\n      jump\t// out\n        /* \"#utility.yul\":18308:18482   */\n    tag_229:\n        /* \"#utility.yul\":18448:18474   */\n      0x566f74657220616c726561647920726567697374657265640000000000000000\n        /* \"#utility.yul\":18444:18445   */\n      0x00\n        /* \"#utility.yul\":18436:18442   */\n      dup3\n        /* \"#utility.yul\":18432:18446   */\n      add\n        /* \"#utility.yul\":18425:18475   */\n      mstore\n        /* \"#utility.yul\":18308:18482   */\n      pop\n      jump\t// out\n        /* \"#utility.yul\":18488:18854   */\n    tag_230:\n        /* \"#utility.yul\":18630:18633   */\n      0x00\n        /* \"#utility.yul\":18651:18718   */\n      tag_410\n        /* \"#utility.yul\":18715:18717   */\n      0x18\n        /* \"#utility.yul\":18710:18713   */\n      dup4\n        /* \"#utility.yul\":18651:18718   */\n      tag_189\n      jump\t// in\n    tag_410:\n        /* \"#utility.yul\":18644:18718   */\n      swap2\n      pop\n        /* \"#utility.yul\":18727:18820   */\n      tag_411\n        /* \"#utility.yul\":18816:18819   */\n      dup3\n        /* \"#utility.yul\":18727:18820   */\n      tag_229\n      jump\t// in\n    tag_411:\n        /* \"#utility.yul\":18845:18847   */\n      0x20\n        /* \"#utility.yul\":18840:18843   */\n      dup3\n        /* \"#utility.yul\":18836:18848   */\n      add\n        /* \"#utility.yul\":18829:18848   */\n      swap1\n      pop\n        /* \"#utility.yul\":18488:18854   */\n      swap2\n      swap1\n      pop\n      jump\t// out\n        /* \"#utility.yul\":18860:19279   */\n    tag_168:\n        /* \"#utility.yul\":19026:19030   */\n      0x00\n        /* \"#utility.yul\":19064:19066   */\n      0x20\n        /* \"#utility.yul\":19053:19062   */\n      dup3\n        /* \"#utility.yul\":19049:19067   */\n      add\n        /* \"#utility.yul\":19041:19067   */\n      swap1\n      pop\n        /* \"#utility.yul\":19113:19122   */\n      dup2\n        /* \"#utility.yul\":19107:19111   */\n      dup2\n        /* \"#utility.yul\":19103:19123   */\n      sub\n        /* \"#utility.yul\":19099:19100   */\n      0x00\n        /* \"#utility.yul\":19088:19097   */\n      dup4\n        /* \"#utility.yul\":19084:19101   */\n      add\n        /* \"#utility.yul\":19077:19124   */\n      mstore\n        /* \"#utility.yul\":19141:19272   */\n      tag_413\n        /* \"#utility.yul\":19267:19271   */\n      dup2\n        /* \"#utility.yul\":19141:19272   */\n      tag_230\n      jump\t// in\n    tag_413:\n        /* \"#utility.yul\":19133:19272   */\n      swap1\n      pop\n        /* \"#utility.yul\":18860:19279   */\n      swap2\n      swap1\n      pop\n      jump\t// out\n        /* \"#utility.yul\":19285:19426   */\n    tag_231:\n        /* \"#utility.yul\":19334:19338   */\n      0x00\n        /* \"#utility.yul\":19357:19360   */\n      dup2\n        /* \"#utility.yul\":19349:19360   */\n      swap1\n      pop\n        /* \"#utility.yul\":19380:19383   */\n      dup2\n        /* \"#utility.yul\":19377:19378   */\n      0x00\n        /* \"#utility.yul\":19370:19384   */\n      mstore\n        /* \"#utility.yul\":19414:19418   */\n      0x20\n        /* \"#utility.yul\":19411:19412   */\n      0x00\n        /* \"#utility.yul\":19401:19419   */\n      keccak256\n        /* \"#utility.yul\":19393:19419   */\n      swap1\n      pop\n        /* \"#utility.yul\":19285:19426   */\n      swap2\n      swap1\n      pop\n      jump\t// out\n        /* \"#utility.yul\":19432:19525   */\n    tag_232:\n        /* \"#utility.yul\":19469:19475   */\n      0x00\n        /* \"#utility.yul\":19516:19518   */\n      0x20\n        /* \"#utility.yul\":19511:19513   */\n      0x1f\n        /* \"#utility.yul\":19504:19509   */\n      dup4\n        /* \"#utility.yul\":19500:19514   */\n      add\n        /* \"#utility.yul\":19496:19519   */\n      div\n        /* \"#utility.yul\":19486:19519   */\n      swap1\n      pop\n        /* \"#utility.yul\":19432:19525   */\n      swap2\n      swap1\n      pop\n      jump\t// out\n        /* \"#utility.yul\":19531:19638   */\n    tag_233:\n        /* \"#utility.yul\":19575:19583   */\n      0x00\n        /* \"#utility.yul\":19625:19630   */\n      dup3\n        /* \"#utility.yul\":19619:19623   */\n      dup3\n        /* \"#utility.yul\":19615:19631   */\n      shl\n        /* \"#utility.yul\":19594:19631   */\n      swap1\n      pop\n        /* \"#utility.yul\":19531:19638   */\n      swap3\n      swap2\n      pop\n      pop\n      jump\t// out\n        /* \"#utility.yul\":19644:20037   */\n    tag_234:\n        /* \"#utility.yul\":19713:19719   */\n      0x00\n        /* \"#utility.yul\":19763:19764   */\n      0x08\n        /* \"#utility.yul\":19751:19761   */\n      dup4\n        /* \"#utility.yul\":19747:19765   */\n      mul\n        /* \"#utility.yul\":19786:19883   */\n      tag_418\n        /* \"#utility.yul\":19816:19882   */\n      0xffffffffffffffffffffffffffffffffffffffffffffffffffffffffffffffff\n        /* \"#utility.yul\":19805:19814   */\n      dup3\n        /* \"#utility.yul\":19786:19883   */\n      tag_233\n      jump\t// in\n    tag_418:\n        /* \"#utility.yul\":19904:19943   */\n      tag_419\n        /* \"#utility.yul\":19934:19942   */\n      dup7\n        /* \"#utility.yul\":19923:19932   */\n      dup4\n        /* \"#utility.yul\":19904:19943   */\n      tag_233\n      jump\t// in\n    tag_419:\n        /* \"#utility.yul\":19892:19943   */\n      swap6\n      pop\n        /* \"#utility.yul\":19976:19980   */\n      dup1\n        /* \"#utility.yul\":19972:19981   */\n      not\n        /* \"#utility.yul\":19965:19970   */\n      dup5\n        /* \"#utility.yul\":19961:19982   */\n      and\n        /* \"#utility.yul\":19952:19982   */\n      swap4\n      pop\n        /* \"#utility.yul\":20025:20029   */\n      dup1\n        /* \"#utility.yul\":20015:20023   */\n      dup7\n        /* \"#utility.yul\":20011:20030   */\n      and\n        /* \"#utility.yul\":20004:20009   */\n      dup5\n        /* \"#utility.yul\":20001:20031   */\n      or\n        /* \"#utility.yul\":19991:20031   */\n      swap3\n      pop\n        /* \"#utility.yul\":19720:20037   */\n      pop\n      pop\n        /* \"#utility.yul\":19644:20037   */\n      swap4\n      swap3\n      pop\n      pop\n      pop\n      jump\t// out\n        /* \"#utility.yul\":20043:20103   */\n    tag_235:\n        /* \"#utility.yul\":20071:20074   */\n      0x00\n        /* \"#utility.yul\":20092:20097   */\n      dup2\n        /* \"#utility.yul\":20085:20097   */\n      swap1\n      pop\n        /* \"#utility.yul\":20043:20103   */\n      swap2\n      swap1\n      pop\n      jump\t// out\n        /* \"#utility.yul\":20109:20251   */\n    tag_236:\n        /* \"#utility.yul\":20159:20168   */\n      0x00\n        /* \"#utility.yul\":20192:20245   */\n      tag_422\n        /* \"#utility.yul\":20210:20244   */\n      tag_423\n        /* \"#utility.yul\":20219:20243   */\n      tag_424\n        /* \"#utility.yul\":20237:20242   */\n      dup5\n        /* \"#utility.yul\":20219:20243   */\n      tag_180\n      jump\t// in\n    tag_424:\n        /* \"#utility.yul\":20210:20244   */\n      tag_235\n      jump\t// in\n    tag_423:\n        /* \"#utility.yul\":20192:20245   */\n      tag_180\n      jump\t// in\n    tag_422:\n        /* \"#utility.yul\":20179:20245   */\n      swap1\n      pop\n        /* \"#utility.yul\":20109:20251   */\n      swap2\n      swap1\n      pop\n      jump\t// out\n        /* \"#utility.yul\":20257:20332   */\n    tag_237:\n        /* \"#utility.yul\":20300:20303   */\n      0x00\n        /* \"#utility.yul\":20321:20326   */\n      dup2\n        /* \"#utility.yul\":20314:20326   */\n      swap1\n      pop\n        /* \"#utility.yul\":20257:20332   */\n      swap2\n      swap1\n      pop\n      jump\t// out\n        /* \"#utility.yul\":20338:20607   */\n    tag_238:\n        /* \"#utility.yul\":20448:20487   */\n      tag_427\n        /* \"#utility.yul\":20479:20486   */\n      dup4\n        /* \"#utility.yul\":20448:20487   */\n      tag_236\n      jump\t// in\n    tag_427:\n        /* \"#utility.yul\":20509:20600   */\n      tag_428\n        /* \"#utility.yul\":20558:20599   */\n      tag_429\n        /* \"#utility.yul\":20582:20598   */\n      dup3\n        /* \"#utility.yul\":20558:20599   */\n      tag_237\n      jump\t// in\n    tag_429:\n        /* \"#utility.yul\":20550:20556   */\n      dup5\n        /* \"#utility.yul\":20543:20547   */\n      dup5\n        /* \"#utility.yul\":20537:20548   */\n      sload\n        /* \"#utility.yul\":20509:20600   */\n      tag_234\n      jump\t// in\n    tag_428:\n        /* \"#utility.yul\":20503:20507   */\n      dup3\n        /* \"#utility.yul\":20496:20601   */\n      sstore\n        /* \"#utility.yul\":20414:20607   */\n      pop\n        /* \"#utility.yul\":20338:20607   */\n      pop\n      pop\n      pop\n      jump\t// out\n        /* \"#utility.yul\":20613:20686   */\n    tag_239:\n        /* \"#utility.yul\":20658:20661   */\n      0x00\n        /* \"#utility.yul\":20679:20680   */\n      0x00\n        /* \"#utility.yul\":20672:20680   */\n      swap1\n      pop\n        /* \"#utility.yul\":20613:20686   */\n      swap1\n      jump\t// out\n        /* \"#utility.yul\":20692:20881   */\n    tag_240:\n        /* \"#utility.yul\":20769:20801   */\n      tag_432\n      tag_239\n      jump\t// in\n    tag_432:\n        /* \"#utility.yul\":20810:20875   */\n      tag_433\n        /* \"#utility.yul\":20868:20874   */\n      dup2\n        /* \"#utility.yul\":20860:20866   */\n      dup5\n        /* \"#utility.yul\":20854:20858   */\n      dup5\n        /* \"#utility.yul\":20810:20875   */\n      tag_238\n      jump\t// in\n    tag_433:\n        /* \"#utility.yul\":20745:20881   */\n      pop\n        /* \"#utility.yul\":20692:20881   */\n      pop\n      pop\n      jump\t// out\n        /* \"#utility.yul\":20887:21101   */\n    tag_241:\n        /* \"#utility.yul\":20972:20973   */\n      0x00\n        /* \"#utility.yul\":20957:21095   */\n    tag_435:\n        /* \"#utility.yul\":20982:20991   */\n      dup3\n        /* \"#utility.yul\":20979:20980   */\n      dup2\n        /* \"#utility.yul\":20976:20992   */\n      lt\n        /* \"#utility.yul\":20957:21095   */\n      iszero\n      tag_437\n      jumpi\n        /* \"#utility.yul\":21034:21085   */\n      tag_438\n        /* \"#utility.yul\":21083:21084   */\n      0x00\n        /* \"#utility.yul\":21079:21080   */\n      dup3\n        /* \"#utility.yul\":21068:21077   */\n      dup5\n        /* \"#utility.yul\":21064:21081   */\n      add\n        /* \"#utility.yul\":21034:21085   */\n      tag_240\n      jump\t// in\n    tag_438:\n        /* \"#utility.yul\":21007:21008   */\n      0x01\n        /* \"#utility.yul\":21004:21005   */\n      dup2\n        /* \"#utility.yul\":21000:21009   */\n      add\n        /* \"#utility.yul\":20995:21009   */\n      swap1\n      pop\n        /* \"#utility.yul\":20957:21095   */\n      jump(tag_435)\n    tag_437:\n        /* \"#utility.yul\":20961:20975   */\n      pop\n        /* \"#utility.yul\":20887:21101   */\n      pop\n      pop\n      jump\t// out\n        /* \"#utility.yul\":21107:21853   */\n    tag_242:\n        /* \"#utility.yul\":21208:21210   */\n      0x1f\n        /* \"#utility.yul\":21203:21206   */\n      dup3\n        /* \"#utility.yul\":21200:21211   */\n      gt\n        /* \"#utility.yul\":21197:21846   */\n      iszero\n      tag_440\n      jumpi\n        /* \"#utility.yul\":21237:21247   */\n      dup3\n        /* \"#utility.yul\":21232:21235   */\n      dup3\n        /* \"#utility.yul\":21229:21248   */\n      gt\n        /* \"#utility.yul\":21226:21836   */\n      iszero\n      tag_441\n      jumpi\n        /* \"#utility.yul\":21283:21321   */\n      tag_442\n        /* \"#utility.yul\":21315:21320   */\n      dup2\n        /* \"#utility.yul\":21283:21321   */\n      tag_231\n      jump\t// in\n    tag_442:\n        /* \"#utility.yul\":21358:21380   */\n      tag_443\n        /* \"#utility.yul\":21376:21379   */\n      dup4\n        /* \"#utility.yul\":21358:21380   */\n      tag_232\n      jump\t// in\n    tag_443:\n        /* \"#utility.yul\":21417:21446   */\n      tag_444\n        /* \"#utility.yul\":21435:21445   */\n      dup6\n        /* \"#utility.yul\":21417:21446   */\n      tag_232\n      jump\t// in\n    tag_444:\n        /* \"#utility.yul\":21607:21609   */\n      0x20\n        /* \"#utility.yul\":21595:21605   */\n      dup7\n        /* \"#utility.yul\":21592:21610   */\n      lt\n        /* \"#utility.yul\":21589:21668   */\n      iszero\n      tag_445\n      jumpi\n        /* \"#utility.yul\":21649:21650   */\n      0x00\n        /* \"#utility.yul\":21633:21650   */\n      swap1\n      pop\n        /* \"#utility.yul\":21589:21668   */\n    tag_445:\n        /* \"#utility.yul\":21718:21730   */\n      dup1\n        /* \"#utility.yul\":21708:21716   */\n      dup4\n        /* \"#utility.yul\":21704:21731   */\n      add\n        /* \"#utility.yul\":21748:21822   */\n      tag_446\n        /* \"#utility.yul\":21808:21820   */\n      dup3\n        /* \"#utility.yul\":21794:21806   */\n      dup5\n        /* \"#utility.yul\":21790:21821   */\n      sub\n        /* \"#utility.yul\":21777:21788   */\n      dup3\n        /* \"#utility.yul\":21748:21822   */\n      tag_241\n      jump\t// in\n    tag_446:\n        /* \"#utility.yul\":21249:21836   */\n      pop\n      pop\n      pop\n      pop\n        /* \"#utility.yul\":21226:21836   */\n    tag_441:\n        /* \"#utility.yul\":21197:21846   */\n    tag_440:\n        /* \"#utility.yul\":21107:21853   */\n      pop\n      pop\n      pop\n      jump\t// out\n        /* \"#utility.yul\":21859:21976   */\n    tag_243:\n        /* \"#utility.yul\":21913:21921   */\n      0x00\n        /* \"#utility.yul\":21963:21968   */\n      dup3\n        /* \"#utility.yul\":21957:21961   */\n      dup3\n        /* \"#utility.yul\":21953:21969   */\n      shr\n        /* \"#utility.yul\":21932:21969   */\n      swap1\n      pop\n        /* \"#utility.yul\":21859:21976   */\n      swap3\n      swap2\n      pop\n      pop\n      jump\t// out\n        /* \"#utility.yul\":21982:22151   */\n    tag_244:\n        /* \"#utility.yul\":22026:22032   */\n      0x00\n        /* \"#utility.yul\":22059:22110   */\n      tag_449\n        /* \"#utility.yul\":22107:22108   */\n      0x00\n        /* \"#utility.yul\":22103:22109   */\n      not\n        /* \"#utility.yul\":22095:22100   */\n      dup5\n        /* \"#utility.yul\":22092:22093   */\n      0x08\n        /* \"#utility.yul\":22088:22101   */\n      mul\n        /* \"#utility.yul\":22059:22110   */\n      tag_243\n      jump\t// in\n    tag_449:\n        /* \"#utility.yul\":22055:22111   */\n      not\n        /* \"#utility.yul\":22140:22144   */\n      dup1\n        /* \"#utility.yul\":22134:22138   */\n      dup4\n        /* \"#utility.yul\":22130:22145   */\n      and\n        /* \"#utility.yul\":22120:22145   */\n      swap2\n      pop\n        /* \"#utility.yul\":22033:22151   */\n      pop\n        /* \"#utility.yul\":21982:22151   */\n      swap3\n      swap2\n      pop\n      pop\n      jump\t// out\n        /* \"#utility.yul\":22156:22451   */\n    tag_245:\n        /* \"#utility.yul\":22232:22236   */\n      0x00\n        /* \"#utility.yul\":22378:22407   */\n      tag_451\n        /* \"#utility.yul\":22403:22406   */\n      dup4\n        /* \"#utility.yul\":22397:22401   */\n      dup4\n        /* \"#utility.yul\":22378:22407   */\n      tag_244\n      jump\t// in\n    tag_451:\n        /* \"#utility.yul\":22370:22407   */\n      swap2\n      pop\n        /* \"#utility.yul\":22440:22443   */\n      dup3\n        /* \"#utility.yul\":22437:22438   */\n      0x02\n        /* \"#utility.yul\":22433:22444   */\n      mul\n        /* \"#utility.yul\":22427:22431   */\n      dup3\n        /* \"#utility.yul\":22424:22445   */\n      or\n        /* \"#utility.yul\":22416:22445   */\n      swap1\n      pop\n        /* \"#utility.yul\":22156:22451   */\n      swap3\n      swap2\n      pop\n      pop\n      jump\t// out\n        /* \"#utility.yul\":22456:23851   */\n    tag_174:\n        /* \"#utility.yul\":22573:22610   */\n      tag_453\n        /* \"#utility.yul\":22606:22609   */\n      dup3\n        /* \"#utility.yul\":22573:22610   */\n      tag_188\n      jump\t// in\n    tag_453:\n        /* \"#utility.yul\":22675:22693   */\n      0xffffffffffffffff\n        /* \"#utility.yul\":22667:22673   */\n      dup2\n        /* \"#utility.yul\":22664:22694   */\n      gt\n        /* \"#utility.yul\":22661:22717   */\n      iszero\n      tag_454\n      jumpi\n        /* \"#utility.yul\":22697:22715   */\n      tag_455\n      tag_202\n      jump\t// in\n    tag_455:\n        /* \"#utility.yul\":22661:22717   */\n    tag_454:\n        /* \"#utility.yul\":22741:22779   */\n      tag_456\n        /* \"#utility.yul\":22773:22777   */\n      dup3\n        /* \"#utility.yul\":22767:22778   */\n      sload\n        /* \"#utility.yul\":22741:22779   */\n      tag_96\n      jump\t// in\n    tag_456:\n        /* \"#utility.yul\":22826:22893   */\n      tag_457\n        /* \"#utility.yul\":22886:22892   */\n      dup3\n        /* \"#utility.yul\":22878:22884   */\n      dup3\n        /* \"#utility.yul\":22872:22876   */\n      dup6\n        /* \"#utility.yul\":22826:22893   */\n      tag_242\n      jump\t// in\n    tag_457:\n        /* \"#utility.yul\":22920:22921   */\n      0x00\n        /* \"#utility.yul\":22944:22948   */\n      0x20\n        /* \"#utility.yul\":22931:22948   */\n      swap1\n      pop\n        /* \"#utility.yul\":22976:22978   */\n      0x1f\n        /* \"#utility.yul\":22968:22974   */\n      dup4\n        /* \"#utility.yul\":22965:22979   */\n      gt\n        /* \"#utility.yul\":22993:22994   */\n      0x01\n        /* \"#utility.yul\":22988:23606   */\n      dup2\n      eq\n      tag_459\n      jumpi\n        /* \"#utility.yul\":23650:23651   */\n      0x00\n        /* \"#utility.yul\":23667:23673   */\n      dup5\n        /* \"#utility.yul\":23664:23741   */\n      iszero\n      tag_460\n      jumpi\n        /* \"#utility.yul\":23716:23725   */\n      dup3\n        /* \"#utility.yul\":23711:23714   */\n      dup8\n        /* \"#utility.yul\":23707:23726   */\n      add\n        /* \"#utility.yul\":23701:23727   */\n      mload\n        /* \"#utility.yul\":23692:23727   */\n      swap1\n      pop\n        /* \"#utility.yul\":23664:23741   */\n    tag_460:\n        /* \"#utility.yul\":23767:23834   */\n      tag_461\n        /* \"#utility.yul\":23827:23833   */\n      dup6\n        /* \"#utility.yul\":23820:23825   */\n      dup3\n        /* \"#utility.yul\":23767:23834   */\n      tag_245\n      jump\t// in\n    tag_461:\n        /* \"#utility.yul\":23761:23765   */\n      dup7\n        /* \"#utility.yul\":23754:23835   */\n      sstore\n        /* \"#utility.yul\":23623:23845   */\n      pop\n        /* \"#utility.yul\":22958:23845   */\n      jump(tag_458)\n        /* \"#utility.yul\":22988:23606   */\n    tag_459:\n        /* \"#utility.yul\":23040:23044   */\n      0x1f\n        /* \"#utility.yul\":23036:23045   */\n      not\n        /* \"#utility.yul\":23028:23034   */\n      dup5\n        /* \"#utility.yul\":23024:23046   */\n      and\n        /* \"#utility.yul\":23074:23111   */\n      tag_462\n        /* \"#utility.yul\":23106:23110   */\n      dup7\n        /* \"#utility.yul\":23074:23111   */\n      tag_231\n      jump\t// in\n    tag_462:\n        /* \"#utility.yul\":23133:23134   */\n      0x00\n        /* \"#utility.yul\":23147:23355   */\n    tag_463:\n        /* \"#utility.yul\":23161:23168   */\n      dup3\n        /* \"#utility.yul\":23158:23159   */\n      dup2\n        /* \"#utility.yul\":23155:23169   */\n      lt\n        /* \"#utility.yul\":23147:23355   */\n      iszero\n      tag_465\n      jumpi\n        /* \"#utility.yul\":23240:23249   */\n      dup5\n        /* \"#utility.yul\":23235:23238   */\n      dup10\n        /* \"#utility.yul\":23231:23250   */\n      add\n        /* \"#utility.yul\":23225:23251   */\n      mload\n        /* \"#utility.yul\":23217:23223   */\n      dup3\n        /* \"#utility.yul\":23210:23252   */\n      sstore\n        /* \"#utility.yul\":23291:23292   */\n      0x01\n        /* \"#utility.yul\":23283:23289   */\n      dup3\n        /* \"#utility.yul\":23279:23293   */\n      add\n        /* \"#utility.yul\":23269:23293   */\n      swap2\n      pop\n        /* \"#utility.yul\":23338:23340   */\n      0x20\n        /* \"#utility.yul\":23327:23336   */\n      dup6\n        /* \"#utility.yul\":23323:23341   */\n      add\n        /* \"#utility.yul\":23310:23341   */\n      swap5\n      pop\n        /* \"#utility.yul\":23184:23188   */\n      0x20\n        /* \"#utility.yul\":23181:23182   */\n      dup2\n        /* \"#utility.yul\":23177:23189   */\n      add\n        /* \"#utility.yul\":23172:23189   */\n      swap1\n      pop\n        /* \"#utility.yul\":23147:23355   */\n      jump(tag_463)\n    tag_465:\n        /* \"#utility.yul\":23383:23389   */\n      dup7\n        /* \"#utility.yul\":23374:23381   */\n      dup4\n        /* \"#utility.yul\":23371:23390   */\n      lt\n        /* \"#utility.yul\":23368:23547   */\n      iszero\n      tag_466\n      jumpi\n        /* \"#utility.yul\":23441:23450   */\n      dup5\n        /* \"#utility.yul\":23436:23439   */\n      dup10\n        /* \"#utility.yul\":23432:23451   */\n      add\n        /* \"#utility.yul\":23426:23452   */\n      mload\n        /* \"#utility.yul\":23484:23532   */\n      tag_467\n        /* \"#utility.yul\":23526:23530   */\n      0x1f\n        /* \"#utility.yul\":23518:23524   */\n      dup10\n        /* \"#utility.yul\":23514:23531   */\n      and\n        /* \"#utility.yul\":23503:23512   */\n      dup3\n        /* \"#utility.yul\":23484:23532   */\n      tag_244\n      jump\t// in\n    tag_467:\n        /* \"#utility.yul\":23476:23482   */\n      dup4\n        /* \"#utility.yul\":23469:23533   */\n      sstore\n        /* \"#utility.yul\":23391:23547   */\n      pop\n        /* \"#utility.yul\":23368:23547   */\n    tag_466:\n        /* \"#utility.yul\":23593:23594   */\n      0x01\n        /* \"#utility.yul\":23589:23590   */\n      0x02\n        /* \"#utility.yul\":23581:23587   */\n      dup9\n        /* \"#utility.yul\":23577:23591   */\n      mul\n        /* \"#utility.yul\":23573:23595   */\n      add\n        /* \"#utility.yul\":23567:23571   */\n      dup9\n        /* \"#utility.yul\":23560:23596   */\n      sstore\n        /* \"#utility.yul\":22995:23606   */\n      pop\n      pop\n      pop\n        /* \"#utility.yul\":22958:23845   */\n    tag_458:\n      pop\n        /* \"#utility.yul\":22548:23851   */\n      pop\n      pop\n      pop\n        /* \"#utility.yul\":22456:23851   */\n      pop\n      pop\n      jump\t// out\n        /* \"#utility.yul\":23857:24280   */\n    tag_176:\n        /* \"#utility.yul\":23998:24002   */\n      0x00\n        /* \"#utility.yul\":24036:24038   */\n      0x40\n        /* \"#utility.yul\":24025:24034   */\n      dup3\n        /* \"#utility.yul\":24021:24039   */\n      add\n        /* \"#utility.yul\":24013:24039   */\n      swap1\n      pop\n        /* \"#utility.yul\":24049:24120   */\n      tag_469\n        /* \"#utility.yul\":24117:24118   */\n      0x00\n        /* \"#utility.yul\":24106:24115   */\n      dup4\n        /* \"#utility.yul\":24102:24119   */\n      add\n        /* \"#utility.yul\":24093:24099   */\n      dup6\n        /* \"#utility.yul\":24049:24120   */\n      tag_187\n      jump\t// in\n    tag_469:\n        /* \"#utility.yul\":24167:24176   */\n      dup2\n        /* \"#utility.yul\":24161:24165   */\n      dup2\n        /* \"#utility.yul\":24157:24177   */\n      sub\n        /* \"#utility.yul\":24152:24154   */\n      0x20\n        /* \"#utility.yul\":24141:24150   */\n      dup4\n        /* \"#utility.yul\":24137:24155   */\n      add\n        /* \"#utility.yul\":24130:24178   */\n      mstore\n        /* \"#utility.yul\":24195:24273   */\n      tag_470\n        /* \"#utility.yul\":24268:24272   */\n      dup2\n        /* \"#utility.yul\":24259:24265   */\n      dup5\n        /* \"#utility.yul\":24195:24273   */\n      tag_192\n      jump\t// in\n    tag_470:\n        /* \"#utility.yul\":24187:24273   */\n      swap1\n      pop\n        /* \"#utility.yul\":23857:24280   */\n      swap4\n      swap3\n      pop\n      pop\n      pop\n      jump\t// out\n\n    auxdata: 0xa26469706673582212208279b4de17d1f3d05c728f6e90fc8e70f918b77c28013889fc65f2f6d04ac12964736f6c63430008220033\n}\n",
				"bytecode": {
					"linkReferences": {},
					"object": "6080604052348015600e575f5ffd5b50335f5f6101000a81548173ffffffffffffffffffffffffffffffffffffffff021916908373ffffffffffffffffffffffffffffffffffffffff1602179055503373ffffffffffffffffffffffffffffffffffffffff165f73ffffffffffffffffffffffffffffffffffffffff167fb532073b38c83145e3e5135377a08bf9aab55bc0fd7c1179cd4fb995d2a5159c60405160405180910390a3611b21806100b55f395ff3fe608060405234801561000f575f5ffd5b50600436106100b2575f3560e01c806342169e481161006f57806342169e481461017c5780638da5cb5b1461019a57806393c0992e146101b8578063a3ec138d146101d4578063b73e587914610206578063f909430314610222576100b2565b80630121b93f146100b65780631ec6b60a146100d2578063200d2ed2146100dc5780633477ee2e146100fa57806335b8e8201461012c5780633866965c1461015e575b5f5ffd5b6100d060048036038101906100cb9190610ec3565b61022c565b005b6100da6103f1565b005b6100e461054b565b6040516100f19190610f61565b60405180910390f35b610114600480360381019061010f9190610ec3565b61055d565b60405161012393929190610ff9565b60405180910390f35b61014660048036038101906101419190610ec3565b610618565b60405161015593929190610ff9565b60405180910390f35b610166610750565b6040516101739190611035565b60405180910390f35b61018461075c565b6040516101919190611035565b60405180910390f35b6101a2610762565b6040516101af919061108d565b60405180910390f35b6101d260048036038101906101cd91906110d0565b610786565b005b6101ee60048036038101906101e991906110d0565b610894565b6040516101fd93929190611115565b60405180910390f35b610220600480360381019061021b9190611276565b6108d3565b005b61022a6109e1565b005b600160028111156102405761023f610eee565b5b60045f9054906101000a900460ff16600281111561026157610260610eee565b5b146102a1576040517f08c379a000000000000000000000000000000000000000000000000000000000815260040161029890611307565b60405180910390fd5b5f60035f3373ffffffffffffffffffffffffffffffffffffffff1673ffffffffffffffffffffffffffffffffffffffff1681526020019081526020015f209050806001015f9054906101000a900460ff16610331576040517f08c379a00000000000000000000000000000000000000000000000000000000081526004016103289061136f565b60405180910390fd5b8060010160019054906101000a900460ff1615610383576040517f08c379a000000000000000000000000000000000000000000000000000000000815260040161037a906113d7565b60405180910390fd5b60018160010160016101000a81548160ff0219169083151502179055506103a982610b3c565b813373ffffffffffffffffffffffffffffffffffffffff167fa36cc2bebb74db33e9f88110a07ef56e1b31b24b4c4f51b54b1664266e29f45b60405160405180910390a35050565b5f5f9054906101000a900473ffffffffffffffffffffffffffffffffffffffff1673ffffffffffffffffffffffffffffffffffffffff163373ffffffffffffffffffffffffffffffffffffffff161461047f576040517f08c379a00000000000000000000000000000000000000000000000000000000081526004016104769061143f565b60405180910390fd5b5f600281111561049257610491610eee565b5b60045f9054906101000a900460ff1660028111156104b3576104b2610eee565b5b146104f3576040517f08c379a00000000000000000000000000000000000000000000000000000000081526004016104ea906114cd565b60405180910390fd5b600160045f6101000a81548160ff0219169083600281111561051857610517610eee565b5b02179055507f877e2548498f42b7975a186b94ef1d32c86d420b7b806dd2be2bea293b89590460405160405180910390a1565b60045f9054906101000a900460ff1681565b6001818154811061056c575f80fd5b905f5260205f2090600302015f91509050805f01549080600101805461059190611518565b80601f01602080910402602001604051908101604052809291908181526020018280546105bd90611518565b80156106085780601f106105df57610100808354040283529160200191610608565b820191905f5260205f20905b8154815290600101906020018083116105eb57829003601f168201915b5050505050908060020154905083565b5f60605f6001805490508410610663576040517f08c379a000000000000000000000000000000000000000000000000000000000815260040161065a90611592565b60405180910390fd5b5f60018581548110610678576106776115b0565b5b905f5260205f2090600302016040518060600160405290815f82015481526020016001820180546106a890611518565b80601f01602080910402602001604051908101604052809291908181526020018280546106d490611518565b801561071f5780601f106106f65761010080835404028352916020019161071f565b820191905f5260205f20905b81548152906001019060200180831161070257829003601f168201915b505050505081526020016002820154815250509050805f015181602001518260400151935093509350509193909250565b5f600180549050905090565b60025481565b5f5f9054906101000a900473ffffffffffffffffffffffffffffffffffffffff1681565b5f5f9054906101000a900473ffffffffffffffffffffffffffffffffffffffff1673ffffffffffffffffffffffffffffffffffffffff163373ffffffffffffffffffffffffffffffffffffffff1614610814576040517f08c379a000000000000000000000000000000000000000000000000000000000815260040161080b9061143f565b60405180910390fd5b5f600281111561082757610826610eee565b5b60045f9054906101000a900460ff16600281111561084857610847610eee565b5b14610888576040517f08c379a000000000000000000000000000000000000000000000000000000000815260040161087f9061164d565b60405180910390fd5b61089181610bbe565b50565b6003602052805f5260405f205f91509050805f015490806001015f9054906101000a900460ff16908060010160019054906101000a900460ff16905083565b5f5f9054906101000a900473ffffffffffffffffffffffffffffffffffffffff1673ffffffffffffffffffffffffffffffffffffffff163373ffffffffffffffffffffffffffffffffffffffff1614610961576040517f08c379a00000000000000000000000000000000000000000000000000000000081526004016109589061143f565b60405180910390fd5b5f600281111561097457610973610eee565b5b60045f9054906101000a900460ff16600281111561099557610994610eee565b5b146109d5576040517f08c379a00000000000000000000000000000000000000000000000000000000081526004016109cc906116db565b60405180910390fd5b6109de81610dcc565b50565b5f5f9054906101000a900473ffffffffffffffffffffffffffffffffffffffff1673ffffffffffffffffffffffffffffffffffffffff163373ffffffffffffffffffffffffffffffffffffffff1614610a6f576040517f08c379a0000000000000000000000000000000000000000000000000000000008152600401610a669061143f565b60405180910390fd5b60016002811115610a8357610a82610eee565b5b60045f9054906101000a900460ff166002811115610aa457610aa3610eee565b5b14610ae4576040517f08c379a0000000000000000000000000000000000000000000000000000000008152600401610adb90611307565b60405180910390fd5b600260045f6101000a81548160ff02191690836002811115610b0957610b08610eee565b5b02179055507fa9a7700362c455edb3c43c6637553b81396ea5c46d5052a6c96d8a962e6d5bf460405160405180910390a1565b6001805490508110610b83576040517f08c379a0000000000000000000000000000000000000000000000000000000008152600401610b7a90611592565b60405180910390fd5b60018181548110610b9757610b966115b0565b5b905f5260205f2090600302016002015f815480929190610bb690611726565b919050555050565b5f73ffffffffffffffffffffffffffffffffffffffff168173ffffffffffffffffffffffffffffffffffffffff1603610c2c576040517f08c379a0000000000000000000000000000000000000000000000000000000008152600401610c23906117b7565b60405180910390fd5b60035f8273ffffffffffffffffffffffffffffffffffffffff1673ffffffffffffffffffffffffffffffffffffffff1681526020019081526020015f206001015f9054906101000a900460ff1615610cb9576040517f08c379a0000000000000000000000000000000000000000000000000000000008152600401610cb09061181f565b60405180910390fd5b60025f815480929190610ccb90611726565b9190505550604051806060016040528060025481526020016001151581526020015f151581525060035f8373ffffffffffffffffffffffffffffffffffffffff1673ffffffffffffffffffffffffffffffffffffffff1681526020019081526020015f205f820151815f01556020820151816001015f6101000a81548160ff02191690831515021790555060408201518160010160016101000a81548160ff0219169083151502179055509050508073ffffffffffffffffffffffffffffffffffffffff167ff16ce2c2236e2c6e3df646f80d657bceef4cd7f3a240c47e82adfa17a5f47241600254604051610dc19190611035565b60405180910390a250565b5f6001805490509050600160405180606001604052808381526020018481526020015f815250908060018154018082558091505060019003905f5260205f2090600302015f909190919091505f820151815f01556020820151816001019081610e3591906119ee565b506040820151816002015550507fe83b2a43e7e82d975c8a0a6d2f045153c869e111136a34d1889ab7b598e396a38183604051610e73929190611abd565b60405180910390a15050565b5f604051905090565b5f5ffd5b5f5ffd5b5f819050919050565b610ea281610e90565b8114610eac575f5ffd5b50565b5f81359050610ebd81610e99565b92915050565b5f60208284031215610ed857610ed7610e88565b5b5f610ee584828501610eaf565b91505092915050565b7f4e487b71000000000000000000000000000000000000000000000000000000005f52602160045260245ffd5b60038110610f2c57610f2b610eee565b5b50565b5f819050610f3c82610f1b565b919050565b5f610f4b82610f2f565b9050919050565b610f5b81610f41565b82525050565b5f602082019050610f745f830184610f52565b92915050565b610f8381610e90565b82525050565b5f81519050919050565b5f82825260208201905092915050565b8281835e5f83830152505050565b5f601f19601f8301169050919050565b5f610fcb82610f89565b610fd58185610f93565b9350610fe5818560208601610fa3565b610fee81610fb1565b840191505092915050565b5f60608201905061100c5f830186610f7a565b818103602083015261101e8185610fc1565b905061102d6040830184610f7a565b949350505050565b5f6020820190506110485f830184610f7a565b92915050565b5f73ffffffffffffffffffffffffffffffffffffffff82169050919050565b5f6110778261104e565b9050919050565b6110878161106d565b82525050565b5f6020820190506110a05f83018461107e565b92915050565b6110af8161106d565b81146110b9575f5ffd5b50565b5f813590506110ca816110a6565b92915050565b5f602082840312156110e5576110e4610e88565b5b5f6110f2848285016110bc565b91505092915050565b5f8115159050919050565b61110f816110fb565b82525050565b5f6060820190506111285f830186610f7a565b6111356020830185611106565b6111426040830184611106565b949350505050565b5f5ffd5b5f5ffd5b7f4e487b71000000000000000000000000000000000000000000000000000000005f52604160045260245ffd5b61118882610fb1565b810181811067ffffffffffffffff821117156111a7576111a6611152565b5b80604052505050565b5f6111b9610e7f565b90506111c5828261117f565b919050565b5f67ffffffffffffffff8211156111e4576111e3611152565b5b6111ed82610fb1565b9050602081019050919050565b828183375f83830152505050565b5f61121a611215846111ca565b6111b0565b9050828152602081018484840111156112365761123561114e565b5b6112418482856111fa565b509392505050565b5f82601f83011261125d5761125c61114a565b5b813561126d848260208601611208565b91505092915050565b5f6020828403121561128b5761128a610e88565b5b5f82013567ffffffffffffffff8111156112a8576112a7610e8c565b5b6112b484828501611249565b91505092915050565b7f566f74696e67206973206e6f74206163746976650000000000000000000000005f82015250565b5f6112f1601483610f93565b91506112fc826112bd565b602082019050919050565b5f6020820190508181035f83015261131e816112e5565b9050919050565b7f596f7520617265206e6f74207265676973746572656420746f20766f746500005f82015250565b5f611359601e83610f93565b915061136482611325565b602082019050919050565b5f6020820190508181035f8301526113868161134d565b9050919050565b7f596f75206861766520616c726561647920766f746564000000000000000000005f82015250565b5f6113c1601683610f93565b91506113cc8261138d565b602082019050919050565b5f6020820190508181035f8301526113ee816113b5565b9050919050565b7f4e6f7420616e206f776e657200000000000000000000000000000000000000005f82015250565b5f611429600c83610f93565b9150611434826113f5565b602082019050919050565b5f6020820190508181035f8301526114568161141d565b9050919050565b7f566f74696e6720616c72656164792073746172746564206f722066696e6973685f8201527f6564000000000000000000000000000000000000000000000000000000000000602082015250565b5f6114b7602283610f93565b91506114c28261145d565b604082019050919050565b5f6020820190508181035f8301526114e4816114ab565b9050919050565b7f4e487b71000000000000000000000000000000000000000000000000000000005f52602260045260245ffd5b5f600282049050600182168061152f57607f821691505b602082108103611542576115416114eb565b5b50919050565b7f43616e64696461746520646f6573206e6f7420657869737400000000000000005f82015250565b5f61157c601883610f93565b915061158782611548565b602082019050919050565b5f6020820190508181035f8301526115a981611570565b9050919050565b7f4e487b71000000000000000000000000000000000000000000000000000000005f52603260045260245ffd5b7f43616e6e6f7420726567697374657220766f74657273206166746572207374615f8201527f7274000000000000000000000000000000000000000000000000000000000000602082015250565b5f611637602283610f93565b9150611642826115dd565b604082019050919050565b5f6020820190508181035f8301526116648161162b565b9050919050565b7f43616e6e6f74206164642063616e6469646174657320616674657220737461725f8201527f7400000000000000000000000000000000000000000000000000000000000000602082015250565b5f6116c5602183610f93565b91506116d08261166b565b604082019050919050565b5f6020820190508181035f8301526116f2816116b9565b9050919050565b7f4e487b71000000000000000000000000000000000000000000000000000000005f52601160045260245ffd5b5f61173082610e90565b91507fffffffffffffffffffffffffffffffffffffffffffffffffffffffffffffffff8203611762576117616116f9565b5b600182019050919050565b7f496e76616c696420766f746572206164647265737300000000000000000000005f82015250565b5f6117a1601583610f93565b91506117ac8261176d565b602082019050919050565b5f6020820190508181035f8301526117ce81611795565b9050919050565b7f566f74657220616c7265616479207265676973746572656400000000000000005f82015250565b5f611809601883610f93565b9150611814826117d5565b602082019050919050565b5f6020820190508181035f830152611836816117fd565b9050919050565b5f819050815f5260205f209050919050565b5f6020601f8301049050919050565b5f82821b905092915050565b5f600883026118997fffffffffffffffffffffffffffffffffffffffffffffffffffffffffffffffff8261185e565b6118a3868361185e565b95508019841693508086168417925050509392505050565b5f819050919050565b5f6118de6118d96118d484610e90565b6118bb565b610e90565b9050919050565b5f819050919050565b6118f7836118c4565b61190b611903826118e5565b84845461186a565b825550505050565b5f5f905090565b611922611913565b61192d8184846118ee565b505050565b5f5b82811015611953576119485f82840161191a565b600181019050611934565b505050565b601f8211156119a657828211156119a5576119728161183d565b61197b8361184f565b6119848561184f565b6020861015611991575f90505b8083016119a082840382611932565b505050505b5b505050565b5f82821c905092915050565b5f6119c65f19846008026119ab565b1980831691505092915050565b5f6119de83836119b7565b9150826002028217905092915050565b6119f782610f89565b67ffffffffffffffff811115611a1057611a0f611152565b5b611a1a8254611518565b611a25828285611958565b5f60209050601f831160018114611a56575f8415611a44578287015190505b611a4e85826119d3565b865550611ab5565b601f198416611a648661183d565b5f5b82811015611a8b57848901518255600182019150602085019450602081019050611a66565b86831015611aa85784890151611aa4601f8916826119b7565b8355505b6001600288020188555050505b505050505050565b5f604082019050611ad05f830185610f7a565b8181036020830152611ae28184610fc1565b9050939250505056fea26469706673582212208279b4de17d1f3d05c728f6e90fc8e70f918b77c28013889fc65f2f6d04ac12964736f6c63430008220033",
					"opcodes": "PUSH1 0x80 PUSH1 0x40 MSTORE CALLVALUE DUP1 ISZERO PUSH1 0xE JUMPI PUSH0 PUSH0 REVERT JUMPDEST POP CALLER PUSH0 PUSH0 PUSH2 0x100 EXP DUP2 SLOAD DUP2 PUSH20 0xFFFFFFFFFFFFFFFFFFFFFFFFFFFFFFFFFFFFFFFF MUL NOT AND SWAP1 DUP4 PUSH20 0xFFFFFFFFFFFFFFFFFFFFFFFFFFFFFFFFFFFFFFFF AND MUL OR SWAP1 SSTORE POP CALLER PUSH20 0xFFFFFFFFFFFFFFFFFFFFFFFFFFFFFFFFFFFFFFFF AND PUSH0 PUSH20 0xFFFFFFFFFFFFFFFFFFFFFFFFFFFFFFFFFFFFFFFF AND PUSH32 0xB532073B38C83145E3E5135377A08BF9AAB55BC0FD7C1179CD4FB995D2A5159C PUSH1 0x40 MLOAD PUSH1 0x40 MLOAD DUP1 SWAP2 SUB SWAP1 LOG3 PUSH2 0x1B21 DUP1 PUSH2 0xB5 PUSH0 CODECOPY PUSH0 RETURN INVALID PUSH1 0x80 PUSH1 0x40 MSTORE CALLVALUE DUP1 ISZERO PUSH2 0xF JUMPI PUSH0 PUSH0 REVERT JUMPDEST POP PUSH1 0x4 CALLDATASIZE LT PUSH2 0xB2 JUMPI PUSH0 CALLDATALOAD PUSH1 0xE0 SHR DUP1 PUSH4 0x42169E48 GT PUSH2 0x6F JUMPI DUP1 PUSH4 0x42169E48 EQ PUSH2 0x17C JUMPI DUP1 PUSH4 0x8DA5CB5B EQ PUSH2 0x19A JUMPI DUP1 PUSH4 0x93C0992E EQ PUSH2 0x1B8 JUMPI DUP1 PUSH4 0xA3EC138D EQ PUSH2 0x1D4 JUMPI DUP1 PUSH4 0xB73E5879 EQ PUSH2 0x206 JUMPI DUP1 PUSH4 0xF9094303 EQ PUSH2 0x222 JUMPI PUSH2 0xB2 JUMP JUMPDEST DUP1 PUSH4 0x121B93F EQ PUSH2 0xB6 JUMPI DUP1 PUSH4 0x1EC6B60A EQ PUSH2 0xD2 JUMPI DUP1 PUSH4 0x200D2ED2 EQ PUSH2 0xDC JUMPI DUP1 PUSH4 0x3477EE2E EQ PUSH2 0xFA JUMPI DUP1 PUSH4 0x35B8E820 EQ PUSH2 0x12C JUMPI DUP1 PUSH4 0x3866965C EQ PUSH2 0x15E JUMPI JUMPDEST PUSH0 PUSH0 REVERT JUMPDEST PUSH2 0xD0 PUSH1 0x4 DUP1 CALLDATASIZE SUB DUP2 ADD SWAP1 PUSH2 0xCB SWAP2 SWAP1 PUSH2 0xEC3 JUMP JUMPDEST PUSH2 0x22C JUMP JUMPDEST STOP JUMPDEST PUSH2 0xDA PUSH2 0x3F1 JUMP JUMPDEST STOP JUMPDEST PUSH2 0xE4 PUSH2 0x54B JUMP JUMPDEST PUSH1 0x40 MLOAD PUSH2 0xF1 SWAP2 SWAP1 PUSH2 0xF61 JUMP JUMPDEST PUSH1 0x40 MLOAD DUP1 SWAP2 SUB SWAP1 RETURN JUMPDEST PUSH2 0x114 PUSH1 0x4 DUP1 CALLDATASIZE SUB DUP2 ADD SWAP1 PUSH2 0x10F SWAP2 SWAP1 PUSH2 0xEC3 JUMP JUMPDEST PUSH2 0x55D JUMP JUMPDEST PUSH1 0x40 MLOAD PUSH2 0x123 SWAP4 SWAP3 SWAP2 SWAP1 PUSH2 0xFF9 JUMP JUMPDEST PUSH1 0x40 MLOAD DUP1 SWAP2 SUB SWAP1 RETURN JUMPDEST PUSH2 0x146 PUSH1 0x4 DUP1 CALLDATASIZE SUB DUP2 ADD SWAP1 PUSH2 0x141 SWAP2 SWAP1 PUSH2 0xEC3 JUMP JUMPDEST PUSH2 0x618 JUMP JUMPDEST PUSH1 0x40 MLOAD PUSH2 0x155 SWAP4 SWAP3 SWAP2 SWAP1 PUSH2 0xFF9 JUMP JUMPDEST PUSH1 0x40 MLOAD DUP1 SWAP2 SUB SWAP1 RETURN JUMPDEST PUSH2 0x166 PUSH2 0x750 JUMP JUMPDEST PUSH1 0x40 MLOAD PUSH2 0x173 SWAP2 SWAP1 PUSH2 0x1035 JUMP JUMPDEST PUSH1 0x40 MLOAD DUP1 SWAP2 SUB SWAP1 RETURN JUMPDEST PUSH2 0x184 PUSH2 0x75C JUMP JUMPDEST PUSH1 0x40 MLOAD PUSH2 0x191 SWAP2 SWAP1 PUSH2 0x1035 JUMP JUMPDEST PUSH1 0x40 MLOAD DUP1 SWAP2 SUB SWAP1 RETURN JUMPDEST PUSH2 0x1A2 PUSH2 0x762 JUMP JUMPDEST PUSH1 0x40 MLOAD PUSH2 0x1AF SWAP2 SWAP1 PUSH2 0x108D JUMP JUMPDEST PUSH1 0x40 MLOAD DUP1 SWAP2 SUB SWAP1 RETURN JUMPDEST PUSH2 0x1D2 PUSH1 0x4 DUP1 CALLDATASIZE SUB DUP2 ADD SWAP1 PUSH2 0x1CD SWAP2 SWAP1 PUSH2 0x10D0 JUMP JUMPDEST PUSH2 0x786 JUMP JUMPDEST STOP JUMPDEST PUSH2 0x1EE PUSH1 0x4 DUP1 CALLDATASIZE SUB DUP2 ADD SWAP1 PUSH2 0x1E9 SWAP2 SWAP1 PUSH2 0x10D0 JUMP JUMPDEST PUSH2 0x894 JUMP JUMPDEST PUSH1 0x40 MLOAD PUSH2 0x1FD SWAP4 SWAP3 SWAP2 SWAP1 PUSH2 0x1115 JUMP JUMPDEST PUSH1 0x40 MLOAD DUP1 SWAP2 SUB SWAP1 RETURN JUMPDEST PUSH2 0x220 PUSH1 0x4 DUP1 CALLDATASIZE SUB DUP2 ADD SWAP1 PUSH2 0x21B SWAP2 SWAP1 PUSH2 0x1276 JUMP JUMPDEST PUSH2 0x8D3 JUMP JUMPDEST STOP JUMPDEST PUSH2 0x22A PUSH2 0x9E1 JUMP JUMPDEST STOP JUMPDEST PUSH1 0x1 PUSH1 0x2 DUP2 GT ISZERO PUSH2 0x240 JUMPI PUSH2 0x23F PUSH2 0xEEE JUMP JUMPDEST JUMPDEST PUSH1 0x4 PUSH0 SWAP1 SLOAD SWAP1 PUSH2 0x100 EXP SWAP1 DIV PUSH1 0xFF AND PUSH1 0x2 DUP2 GT ISZERO PUSH2 0x261 JUMPI PUSH2 0x260 PUSH2 0xEEE JUMP JUMPDEST JUMPDEST EQ PUSH2 0x2A1 JUMPI PUSH1 0x40 MLOAD PUSH32 0x8C379A000000000000000000000000000000000000000000000000000000000 DUP2 MSTORE PUSH1 0x4 ADD PUSH2 0x298 SWAP1 PUSH2 0x1307 JUMP JUMPDEST PUSH1 0x40 MLOAD DUP1 SWAP2 SUB SWAP1 REVERT JUMPDEST PUSH0 PUSH1 0x3 PUSH0 CALLER PUSH20 0xFFFFFFFFFFFFFFFFFFFFFFFFFFFFFFFFFFFFFFFF AND PUSH20 0xFFFFFFFFFFFFFFFFFFFFFFFFFFFFFFFFFFFFFFFF AND DUP2 MSTORE PUSH1 0x20 ADD SWAP1 DUP2 MSTORE PUSH1 0x20 ADD PUSH0 KECCAK256 SWAP1 POP DUP1 PUSH1 0x1 ADD PUSH0 SWAP1 SLOAD SWAP1 PUSH2 0x100 EXP SWAP1 DIV PUSH1 0xFF AND PUSH2 0x331 JUMPI PUSH1 0x40 MLOAD PUSH32 0x8C379A000000000000000000000000000000000000000000000000000000000 DUP2 MSTORE PUSH1 0x4 ADD PUSH2 0x328 SWAP1 PUSH2 0x136F JUMP JUMPDEST PUSH1 0x40 MLOAD DUP1 SWAP2 SUB SWAP1 REVERT JUMPDEST DUP1 PUSH1 0x1 ADD PUSH1 0x1 SWAP1 SLOAD SWAP1 PUSH2 0x100 EXP SWAP1 DIV PUSH1 0xFF AND ISZERO PUSH2 0x383 JUMPI PUSH1 0x40 MLOAD PUSH32 0x8C379A000000000000000000000000000000000000000000000000000000000 DUP2 MSTORE PUSH1 0x4 ADD PUSH2 0x37A SWAP1 PUSH2 0x13D7 JUMP JUMPDEST PUSH1 0x40 MLOAD DUP1 SWAP2 SUB SWAP1 REVERT JUMPDEST PUSH1 0x1 DUP2 PUSH1 0x1 ADD PUSH1 0x1 PUSH2 0x100 EXP DUP2 SLOAD DUP2 PUSH1 0xFF MUL NOT AND SWAP1 DUP4 ISZERO ISZERO MUL OR SWAP1 SSTORE POP PUSH2 0x3A9 DUP3 PUSH2 0xB3C JUMP JUMPDEST DUP2 CALLER PUSH20 0xFFFFFFFFFFFFFFFFFFFFFFFFFFFFFFFFFFFFFFFF AND PUSH32 0xA36CC2BEBB74DB33E9F88110A07EF56E1B31B24B4C4F51B54B1664266E29F45B PUSH1 0x40 MLOAD PUSH1 0x40 MLOAD DUP1 SWAP2 SUB SWAP1 LOG3 POP POP JUMP JUMPDEST PUSH0 PUSH0 SWAP1 SLOAD SWAP1 PUSH2 0x100 EXP SWAP1 DIV PUSH20 0xFFFFFFFFFFFFFFFFFFFFFFFFFFFFFFFFFFFFFFFF AND PUSH20 0xFFFFFFFFFFFFFFFFFFFFFFFFFFFFFFFFFFFFFFFF AND CALLER PUSH20 0xFFFFFFFFFFFFFFFFFFFFFFFFFFFFFFFFFFFFFFFF AND EQ PUSH2 0x47F JUMPI PUSH1 0x40 MLOAD PUSH32 0x8C379A000000000000000000000000000000000000000000000000000000000 DUP2 MSTORE PUSH1 0x4 ADD PUSH2 0x476 SWAP1 PUSH2 0x143F JUMP JUMPDEST PUSH1 0x40 MLOAD DUP1 SWAP2 SUB SWAP1 REVERT JUMPDEST PUSH0 PUSH1 0x2 DUP2 GT ISZERO PUSH2 0x492 JUMPI PUSH2 0x491 PUSH2 0xEEE JUMP JUMPDEST JUMPDEST PUSH1 0x4 PUSH0 SWAP1 SLOAD SWAP1 PUSH2 0x100 EXP SWAP1 DIV PUSH1 0xFF AND PUSH1 0x2 DUP2 GT ISZERO PUSH2 0x4B3 JUMPI PUSH2 0x4B2 PUSH2 0xEEE JUMP JUMPDEST JUMPDEST EQ PUSH2 0x4F3 JUMPI PUSH1 0x40 MLOAD PUSH32 0x8C379A000000000000000000000000000000000000000000000000000000000 DUP2 MSTORE PUSH1 0x4 ADD PUSH2 0x4EA SWAP1 PUSH2 0x14CD JUMP JUMPDEST PUSH1 0x40 MLOAD DUP1 SWAP2 SUB SWAP1 REVERT JUMPDEST PUSH1 0x1 PUSH1 0x4 PUSH0 PUSH2 0x100 EXP DUP2 SLOAD DUP2 PUSH1 0xFF MUL NOT AND SWAP1 DUP4 PUSH1 0x2 DUP2 GT ISZERO PUSH2 0x518 JUMPI PUSH2 0x517 PUSH2 0xEEE JUMP JUMPDEST JUMPDEST MUL OR SWAP1 SSTORE POP PUSH32 0x877E2548498F42B7975A186B94EF1D32C86D420B7B806DD2BE2BEA293B895904 PUSH1 0x40 MLOAD PUSH1 0x40 MLOAD DUP1 SWAP2 SUB SWAP1 LOG1 JUMP JUMPDEST PUSH1 0x4 PUSH0 SWAP1 SLOAD SWAP1 PUSH2 0x100 EXP SWAP1 DIV PUSH1 0xFF AND DUP2 JUMP JUMPDEST PUSH1 0x1 DUP2 DUP2 SLOAD DUP2 LT PUSH2 0x56C JUMPI PUSH0 DUP1 REVERT JUMPDEST SWAP1 PUSH0 MSTORE PUSH1 0x20 PUSH0 KECCAK256 SWAP1 PUSH1 0x3 MUL ADD PUSH0 SWAP2 POP SWAP1 POP DUP1 PUSH0 ADD SLOAD SWAP1 DUP1 PUSH1 0x1 ADD DUP1 SLOAD PUSH2 0x591 SWAP1 PUSH2 0x1518 JUMP JUMPDEST DUP1 PUSH1 0x1F ADD PUSH1 0x20 DUP1 SWAP2 DIV MUL PUSH1 0x20 ADD PUSH1 0x40 MLOAD SWAP1 DUP2 ADD PUSH1 0x40 MSTORE DUP1 SWAP3 SWAP2 SWAP1 DUP2 DUP2 MSTORE PUSH1 0x20 ADD DUP3 DUP1 SLOAD PUSH2 0x5BD SWAP1 PUSH2 0x1518 JUMP JUMPDEST DUP1 ISZERO PUSH2 0x608 JUMPI DUP1 PUSH1 0x1F LT PUSH2 0x5DF JUMPI PUSH2 0x100 DUP1 DUP4 SLOAD DIV MUL DUP4 MSTORE SWAP2 PUSH1 0x20 ADD SWAP2 PUSH2 0x608 JUMP JUMPDEST DUP3 ADD SWAP2 SWAP1 PUSH0 MSTORE PUSH1 0x20 PUSH0 KECCAK256 SWAP1 JUMPDEST DUP2 SLOAD DUP2 MSTORE SWAP1 PUSH1 0x1 ADD SWAP1 PUSH1 0x20 ADD DUP1 DUP4 GT PUSH2 0x5EB JUMPI DUP3 SWAP1 SUB PUSH1 0x1F AND DUP3 ADD SWAP2 JUMPDEST POP POP POP POP POP SWAP1 DUP1 PUSH1 0x2 ADD SLOAD SWAP1 POP DUP4 JUMP JUMPDEST PUSH0 PUSH1 0x60 PUSH0 PUSH1 0x1 DUP1 SLOAD SWAP1 POP DUP5 LT PUSH2 0x663 JUMPI PUSH1 0x40 MLOAD PUSH32 0x8C379A000000000000000000000000000000000000000000000000000000000 DUP2 MSTORE PUSH1 0x4 ADD PUSH2 0x65A SWAP1 PUSH2 0x1592 JUMP JUMPDEST PUSH1 0x40 MLOAD DUP1 SWAP2 SUB SWAP1 REVERT JUMPDEST PUSH0 PUSH1 0x1 DUP6 DUP2 SLOAD DUP2 LT PUSH2 0x678 JUMPI PUSH2 0x677 PUSH2 0x15B0 JUMP JUMPDEST JUMPDEST SWAP1 PUSH0 MSTORE PUSH1 0x20 PUSH0 KECCAK256 SWAP1 PUSH1 0x3 MUL ADD PUSH1 0x40 MLOAD DUP1 PUSH1 0x60 ADD PUSH1 0x40 MSTORE SWAP1 DUP2 PUSH0 DUP3 ADD SLOAD DUP2 MSTORE PUSH1 0x20 ADD PUSH1 0x1 DUP3 ADD DUP1 SLOAD PUSH2 0x6A8 SWAP1 PUSH2 0x1518 JUMP JUMPDEST DUP1 PUSH1 0x1F ADD PUSH1 0x20 DUP1 SWAP2 DIV MUL PUSH1 0x20 ADD PUSH1 0x40 MLOAD SWAP1 DUP2 ADD PUSH1 0x40 MSTORE DUP1 SWAP3 SWAP2 SWAP1 DUP2 DUP2 MSTORE PUSH1 0x20 ADD DUP3 DUP1 SLOAD PUSH2 0x6D4 SWAP1 PUSH2 0x1518 JUMP JUMPDEST DUP1 ISZERO PUSH2 0x71F JUMPI DUP1 PUSH1 0x1F LT PUSH2 0x6F6 JUMPI PUSH2 0x100 DUP1 DUP4 SLOAD DIV MUL DUP4 MSTORE SWAP2 PUSH1 0x20 ADD SWAP2 PUSH2 0x71F JUMP JUMPDEST DUP3 ADD SWAP2 SWAP1 PUSH0 MSTORE PUSH1 0x20 PUSH0 KECCAK256 SWAP1 JUMPDEST DUP2 SLOAD DUP2 MSTORE SWAP1 PUSH1 0x1 ADD SWAP1 PUSH1 0x20 ADD DUP1 DUP4 GT PUSH2 0x702 JUMPI DUP3 SWAP1 SUB PUSH1 0x1F AND DUP3 ADD SWAP2 JUMPDEST POP POP POP POP POP DUP2 MSTORE PUSH1 0x20 ADD PUSH1 0x2 DUP3 ADD SLOAD DUP2 MSTORE POP POP SWAP1 POP DUP1 PUSH0 ADD MLOAD DUP2 PUSH1 0x20 ADD MLOAD DUP3 PUSH1 0x40 ADD MLOAD SWAP4 POP SWAP4 POP SWAP4 POP POP SWAP2 SWAP4 SWAP1 SWAP3 POP JUMP JUMPDEST PUSH0 PUSH1 0x1 DUP1 SLOAD SWAP1 POP SWAP1 POP SWAP1 JUMP JUMPDEST PUSH1 0x2 SLOAD DUP2 JUMP JUMPDEST PUSH0 PUSH0 SWAP1 SLOAD SWAP1 PUSH2 0x100 EXP SWAP1 DIV PUSH20 0xFFFFFFFFFFFFFFFFFFFFFFFFFFFFFFFFFFFFFFFF AND DUP2 JUMP JUMPDEST PUSH0 PUSH0 SWAP1 SLOAD SWAP1 PUSH2 0x100 EXP SWAP1 DIV PUSH20 0xFFFFFFFFFFFFFFFFFFFFFFFFFFFFFFFFFFFFFFFF AND PUSH20 0xFFFFFFFFFFFFFFFFFFFFFFFFFFFFFFFFFFFFFFFF AND CALLER PUSH20 0xFFFFFFFFFFFFFFFFFFFFFFFFFFFFFFFFFFFFFFFF AND EQ PUSH2 0x814 JUMPI PUSH1 0x40 MLOAD PUSH32 0x8C379A000000000000000000000000000000000000000000000000000000000 DUP2 MSTORE PUSH1 0x4 ADD PUSH2 0x80B SWAP1 PUSH2 0x143F JUMP JUMPDEST PUSH1 0x40 MLOAD DUP1 SWAP2 SUB SWAP1 REVERT JUMPDEST PUSH0 PUSH1 0x2 DUP2 GT ISZERO PUSH2 0x827 JUMPI PUSH2 0x826 PUSH2 0xEEE JUMP JUMPDEST JUMPDEST PUSH1 0x4 PUSH0 SWAP1 SLOAD SWAP1 PUSH2 0x100 EXP SWAP1 DIV PUSH1 0xFF AND PUSH1 0x2 DUP2 GT ISZERO PUSH2 0x848 JUMPI PUSH2 0x847 PUSH2 0xEEE JUMP JUMPDEST JUMPDEST EQ PUSH2 0x888 JUMPI PUSH1 0x40 MLOAD PUSH32 0x8C379A000000000000000000000000000000000000000000000000000000000 DUP2 MSTORE PUSH1 0x4 ADD PUSH2 0x87F SWAP1 PUSH2 0x164D JUMP JUMPDEST PUSH1 0x40 MLOAD DUP1 SWAP2 SUB SWAP1 REVERT JUMPDEST PUSH2 0x891 DUP2 PUSH2 0xBBE JUMP JUMPDEST POP JUMP JUMPDEST PUSH1 0x3 PUSH1 0x20 MSTORE DUP1 PUSH0 MSTORE PUSH1 0x40 PUSH0 KECCAK256 PUSH0 SWAP2 POP SWAP1 POP DUP1 PUSH0 ADD SLOAD SWAP1 DUP1 PUSH1 0x1 ADD PUSH0 SWAP1 SLOAD SWAP1 PUSH2 0x100 EXP SWAP1 DIV PUSH1 0xFF AND SWAP1 DUP1 PUSH1 0x1 ADD PUSH1 0x1 SWAP1 SLOAD SWAP1 PUSH2 0x100 EXP SWAP1 DIV PUSH1 0xFF AND SWAP1 POP DUP4 JUMP JUMPDEST PUSH0 PUSH0 SWAP1 SLOAD SWAP1 PUSH2 0x100 EXP SWAP1 DIV PUSH20 0xFFFFFFFFFFFFFFFFFFFFFFFFFFFFFFFFFFFFFFFF AND PUSH20 0xFFFFFFFFFFFFFFFFFFFFFFFFFFFFFFFFFFFFFFFF AND CALLER PUSH20 0xFFFFFFFFFFFFFFFFFFFFFFFFFFFFFFFFFFFFFFFF AND EQ PUSH2 0x961 JUMPI PUSH1 0x40 MLOAD PUSH32 0x8C379A000000000000000000000000000000000000000000000000000000000 DUP2 MSTORE PUSH1 0x4 ADD PUSH2 0x958 SWAP1 PUSH2 0x143F JUMP JUMPDEST PUSH1 0x40 MLOAD DUP1 SWAP2 SUB SWAP1 REVERT JUMPDEST PUSH0 PUSH1 0x2 DUP2 GT ISZERO PUSH2 0x974 JUMPI PUSH2 0x973 PUSH2 0xEEE JUMP JUMPDEST JUMPDEST PUSH1 0x4 PUSH0 SWAP1 SLOAD SWAP1 PUSH2 0x100 EXP SWAP1 DIV PUSH1 0xFF AND PUSH1 0x2 DUP2 GT ISZERO PUSH2 0x995 JUMPI PUSH2 0x994 PUSH2 0xEEE JUMP JUMPDEST JUMPDEST EQ PUSH2 0x9D5 JUMPI PUSH1 0x40 MLOAD PUSH32 0x8C379A000000000000000000000000000000000000000000000000000000000 DUP2 MSTORE PUSH1 0x4 ADD PUSH2 0x9CC SWAP1 PUSH2 0x16DB JUMP JUMPDEST PUSH1 0x40 MLOAD DUP1 SWAP2 SUB SWAP1 REVERT JUMPDEST PUSH2 0x9DE DUP2 PUSH2 0xDCC JUMP JUMPDEST POP JUMP JUMPDEST PUSH0 PUSH0 SWAP1 SLOAD SWAP1 PUSH2 0x100 EXP SWAP1 DIV PUSH20 0xFFFFFFFFFFFFFFFFFFFFFFFFFFFFFFFFFFFFFFFF AND PUSH20 0xFFFFFFFFFFFFFFFFFFFFFFFFFFFFFFFFFFFFFFFF AND CALLER PUSH20 0xFFFFFFFFFFFFFFFFFFFFFFFFFFFFFFFFFFFFFFFF AND EQ PUSH2 0xA6F JUMPI PUSH1 0x40 MLOAD PUSH32 0x8C379A000000000000000000000000000000000000000000000000000000000 DUP2 MSTORE PUSH1 0x4 ADD PUSH2 0xA66 SWAP1 PUSH2 0x143F JUMP JUMPDEST PUSH1 0x40 MLOAD DUP1 SWAP2 SUB SWAP1 REVERT JUMPDEST PUSH1 0x1 PUSH1 0x2 DUP2 GT ISZERO PUSH2 0xA83 JUMPI PUSH2 0xA82 PUSH2 0xEEE JUMP JUMPDEST JUMPDEST PUSH1 0x4 PUSH0 SWAP1 SLOAD SWAP1 PUSH2 0x100 EXP SWAP1 DIV PUSH1 0xFF AND PUSH1 0x2 DUP2 GT ISZERO PUSH2 0xAA4 JUMPI PUSH2 0xAA3 PUSH2 0xEEE JUMP JUMPDEST JUMPDEST EQ PUSH2 0xAE4 JUMPI PUSH1 0x40 MLOAD PUSH32 0x8C379A000000000000000000000000000000000000000000000000000000000 DUP2 MSTORE PUSH1 0x4 ADD PUSH2 0xADB SWAP1 PUSH2 0x1307 JUMP JUMPDEST PUSH1 0x40 MLOAD DUP1 SWAP2 SUB SWAP1 REVERT JUMPDEST PUSH1 0x2 PUSH1 0x4 PUSH0 PUSH2 0x100 EXP DUP2 SLOAD DUP2 PUSH1 0xFF MUL NOT AND SWAP1 DUP4 PUSH1 0x2 DUP2 GT ISZERO PUSH2 0xB09 JUMPI PUSH2 0xB08 PUSH2 0xEEE JUMP JUMPDEST JUMPDEST MUL OR SWAP1 SSTORE POP PUSH32 0xA9A7700362C455EDB3C43C6637553B81396EA5C46D5052A6C96D8A962E6D5BF4 PUSH1 0x40 MLOAD PUSH1 0x40 MLOAD DUP1 SWAP2 SUB SWAP1 LOG1 JUMP JUMPDEST PUSH1 0x1 DUP1 SLOAD SWAP1 POP DUP2 LT PUSH2 0xB83 JUMPI PUSH1 0x40 MLOAD PUSH32 0x8C379A000000000000000000000000000000000000000000000000000000000 DUP2 MSTORE PUSH1 0x4 ADD PUSH2 0xB7A SWAP1 PUSH2 0x1592 JUMP JUMPDEST PUSH1 0x40 MLOAD DUP1 SWAP2 SUB SWAP1 REVERT JUMPDEST PUSH1 0x1 DUP2 DUP2 SLOAD DUP2 LT PUSH2 0xB97 JUMPI PUSH2 0xB96 PUSH2 0x15B0 JUMP JUMPDEST JUMPDEST SWAP1 PUSH0 MSTORE PUSH1 0x20 PUSH0 KECCAK256 SWAP1 PUSH1 0x3 MUL ADD PUSH1 0x2 ADD PUSH0 DUP2 SLOAD DUP1 SWAP3 SWAP2 SWAP1 PUSH2 0xBB6 SWAP1 PUSH2 0x1726 JUMP JUMPDEST SWAP2 SWAP1 POP SSTORE POP POP JUMP JUMPDEST PUSH0 PUSH20 0xFFFFFFFFFFFFFFFFFFFFFFFFFFFFFFFFFFFFFFFF AND DUP2 PUSH20 0xFFFFFFFFFFFFFFFFFFFFFFFFFFFFFFFFFFFFFFFF AND SUB PUSH2 0xC2C JUMPI PUSH1 0x40 MLOAD PUSH32 0x8C379A000000000000000000000000000000000000000000000000000000000 DUP2 MSTORE PUSH1 0x4 ADD PUSH2 0xC23 SWAP1 PUSH2 0x17B7 JUMP JUMPDEST PUSH1 0x40 MLOAD DUP1 SWAP2 SUB SWAP1 REVERT JUMPDEST PUSH1 0x3 PUSH0 DUP3 PUSH20 0xFFFFFFFFFFFFFFFFFFFFFFFFFFFFFFFFFFFFFFFF AND PUSH20 0xFFFFFFFFFFFFFFFFFFFFFFFFFFFFFFFFFFFFFFFF AND DUP2 MSTORE PUSH1 0x20 ADD SWAP1 DUP2 MSTORE PUSH1 0x20 ADD PUSH0 KECCAK256 PUSH1 0x1 ADD PUSH0 SWAP1 SLOAD SWAP1 PUSH2 0x100 EXP SWAP1 DIV PUSH1 0xFF AND ISZERO PUSH2 0xCB9 JUMPI PUSH1 0x40 MLOAD PUSH32 0x8C379A000000000000000000000000000000000000000000000000000000000 DUP2 MSTORE PUSH1 0x4 ADD PUSH2 0xCB0 SWAP1 PUSH2 0x181F JUMP JUMPDEST PUSH1 0x40 MLOAD DUP1 SWAP2 SUB SWAP1 REVERT JUMPDEST PUSH1 0x2 PUSH0 DUP2 SLOAD DUP1 SWAP3 SWAP2 SWAP1 PUSH2 0xCCB SWAP1 PUSH2 0x1726 JUMP JUMPDEST SWAP2 SWAP1 POP SSTORE POP PUSH1 0x40 MLOAD DUP1 PUSH1 0x60 ADD PUSH1 0x40 MSTORE DUP1 PUSH1 0x2 SLOAD DUP2 MSTORE PUSH1 0x20 ADD PUSH1 0x1 ISZERO ISZERO DUP2 MSTORE PUSH1 0x20 ADD PUSH0 ISZERO ISZERO DUP2 MSTORE POP PUSH1 0x3 PUSH0 DUP4 PUSH20 0xFFFFFFFFFFFFFFFFFFFFFFFFFFFFFFFFFFFFFFFF AND PUSH20 0xFFFFFFFFFFFFFFFFFFFFFFFFFFFFFFFFFFFFFFFF AND DUP2 MSTORE PUSH1 0x20 ADD SWAP1 DUP2 MSTORE PUSH1 0x20 ADD PUSH0 KECCAK256 PUSH0 DUP3 ADD MLOAD DUP2 PUSH0 ADD SSTORE PUSH1 0x20 DUP3 ADD MLOAD DUP2 PUSH1 0x1 ADD PUSH0 PUSH2 0x100 EXP DUP2 SLOAD DUP2 PUSH1 0xFF MUL NOT AND SWAP1 DUP4 ISZERO ISZERO MUL OR SWAP1 SSTORE POP PUSH1 0x40 DUP3 ADD MLOAD DUP2 PUSH1 0x1 ADD PUSH1 0x1 PUSH2 0x100 EXP DUP2 SLOAD DUP2 PUSH1 0xFF MUL NOT AND SWAP1 DUP4 ISZERO ISZERO MUL OR SWAP1 SSTORE POP SWAP1 POP POP DUP1 PUSH20 0xFFFFFFFFFFFFFFFFFFFFFFFFFFFFFFFFFFFFFFFF AND PUSH32 0xF16CE2C2236E2C6E3DF646F80D657BCEEF4CD7F3A240C47E82ADFA17A5F47241 PUSH1 0x2 SLOAD PUSH1 0x40 MLOAD PUSH2 0xDC1 SWAP2 SWAP1 PUSH2 0x1035 JUMP JUMPDEST PUSH1 0x40 MLOAD DUP1 SWAP2 SUB SWAP1 LOG2 POP JUMP JUMPDEST PUSH0 PUSH1 0x1 DUP1 SLOAD SWAP1 POP SWAP1 POP PUSH1 0x1 PUSH1 0x40 MLOAD DUP1 PUSH1 0x60 ADD PUSH1 0x40 MSTORE DUP1 DUP4 DUP2 MSTORE PUSH1 0x20 ADD DUP5 DUP2 MSTORE PUSH1 0x20 ADD PUSH0 DUP2 MSTORE POP SWAP1 DUP1 PUSH1 0x1 DUP2 SLOAD ADD DUP1 DUP3 SSTORE DUP1 SWAP2 POP POP PUSH1 0x1 SWAP1 SUB SWAP1 PUSH0 MSTORE PUSH1 0x20 PUSH0 KECCAK256 SWAP1 PUSH1 0x3 MUL ADD PUSH0 SWAP1 SWAP2 SWAP1 SWAP2 SWAP1 SWAP2 POP PUSH0 DUP3 ADD MLOAD DUP2 PUSH0 ADD SSTORE PUSH1 0x20 DUP3 ADD MLOAD DUP2 PUSH1 0x1 ADD SWAP1 DUP2 PUSH2 0xE35 SWAP2 SWAP1 PUSH2 0x19EE JUMP JUMPDEST POP PUSH1 0x40 DUP3 ADD MLOAD DUP2 PUSH1 0x2 ADD SSTORE POP POP PUSH32 0xE83B2A43E7E82D975C8A0A6D2F045153C869E111136A34D1889AB7B598E396A3 DUP2 DUP4 PUSH1 0x40 MLOAD PUSH2 0xE73 SWAP3 SWAP2 SWAP1 PUSH2 0x1ABD JUMP JUMPDEST PUSH1 0x40 MLOAD DUP1 SWAP2 SUB SWAP1 LOG1 POP POP JUMP JUMPDEST PUSH0 PUSH1 0x40 MLOAD SWAP1 POP SWAP1 JUMP JUMPDEST PUSH0 PUSH0 REVERT JUMPDEST PUSH0 PUSH0 REVERT JUMPDEST PUSH0 DUP2 SWAP1 POP SWAP2 SWAP1 POP JUMP JUMPDEST PUSH2 0xEA2 DUP2 PUSH2 0xE90 JUMP JUMPDEST DUP2 EQ PUSH2 0xEAC JUMPI PUSH0 PUSH0 REVERT JUMPDEST POP JUMP JUMPDEST PUSH0 DUP2 CALLDATALOAD SWAP1 POP PUSH2 0xEBD DUP2 PUSH2 0xE99 JUMP JUMPDEST SWAP3 SWAP2 POP POP JUMP JUMPDEST PUSH0 PUSH1 0x20 DUP3 DUP5 SUB SLT ISZERO PUSH2 0xED8 JUMPI PUSH2 0xED7 PUSH2 0xE88 JUMP JUMPDEST JUMPDEST PUSH0 PUSH2 0xEE5 DUP5 DUP3 DUP6 ADD PUSH2 0xEAF JUMP JUMPDEST SWAP2 POP POP SWAP3 SWAP2 POP POP JUMP JUMPDEST PUSH32 0x4E487B7100000000000000000000000000000000000000000000000000000000 PUSH0 MSTORE PUSH1 0x21 PUSH1 0x4 MSTORE PUSH1 0x24 PUSH0 REVERT JUMPDEST PUSH1 0x3 DUP2 LT PUSH2 0xF2C JUMPI PUSH2 0xF2B PUSH2 0xEEE JUMP JUMPDEST JUMPDEST POP JUMP JUMPDEST PUSH0 DUP2 SWAP1 POP PUSH2 0xF3C DUP3 PUSH2 0xF1B JUMP JUMPDEST SWAP2 SWAP1 POP JUMP JUMPDEST PUSH0 PUSH2 0xF4B DUP3 PUSH2 0xF2F JUMP JUMPDEST SWAP1 POP SWAP2 SWAP1 POP JUMP JUMPDEST PUSH2 0xF5B DUP2 PUSH2 0xF41 JUMP JUMPDEST DUP3 MSTORE POP POP JUMP JUMPDEST PUSH0 PUSH1 0x20 DUP3 ADD SWAP1 POP PUSH2 0xF74 PUSH0 DUP4 ADD DUP5 PUSH2 0xF52 JUMP JUMPDEST SWAP3 SWAP2 POP POP JUMP JUMPDEST PUSH2 0xF83 DUP2 PUSH2 0xE90 JUMP JUMPDEST DUP3 MSTORE POP POP JUMP JUMPDEST PUSH0 DUP2 MLOAD SWAP1 POP SWAP2 SWAP1 POP JUMP JUMPDEST PUSH0 DUP3 DUP3 MSTORE PUSH1 0x20 DUP3 ADD SWAP1 POP SWAP3 SWAP2 POP POP JUMP JUMPDEST DUP3 DUP2 DUP4 MCOPY PUSH0 DUP4 DUP4 ADD MSTORE POP POP POP JUMP JUMPDEST PUSH0 PUSH1 0x1F NOT PUSH1 0x1F DUP4 ADD AND SWAP1 POP SWAP2 SWAP1 POP JUMP JUMPDEST PUSH0 PUSH2 0xFCB DUP3 PUSH2 0xF89 JUMP JUMPDEST PUSH2 0xFD5 DUP2 DUP6 PUSH2 0xF93 JUMP JUMPDEST SWAP4 POP PUSH2 0xFE5 DUP2 DUP6 PUSH1 0x20 DUP7 ADD PUSH2 0xFA3 JUMP JUMPDEST PUSH2 0xFEE DUP2 PUSH2 0xFB1 JUMP JUMPDEST DUP5 ADD SWAP2 POP POP SWAP3 SWAP2 POP POP JUMP JUMPDEST PUSH0 PUSH1 0x60 DUP3 ADD SWAP1 POP PUSH2 0x100C PUSH0 DUP4 ADD DUP7 PUSH2 0xF7A JUMP JUMPDEST DUP2 DUP2 SUB PUSH1 0x20 DUP4 ADD MSTORE PUSH2 0x101E DUP2 DUP6 PUSH2 0xFC1 JUMP JUMPDEST SWAP1 POP PUSH2 0x102D PUSH1 0x40 DUP4 ADD DUP5 PUSH2 0xF7A JUMP JUMPDEST SWAP5 SWAP4 POP POP POP POP JUMP JUMPDEST PUSH0 PUSH1 0x20 DUP3 ADD SWAP1 POP PUSH2 0x1048 PUSH0 DUP4 ADD DUP5 PUSH2 0xF7A JUMP JUMPDEST SWAP3 SWAP2 POP POP JUMP JUMPDEST PUSH0 PUSH20 0xFFFFFFFFFFFFFFFFFFFFFFFFFFFFFFFFFFFFFFFF DUP3 AND SWAP1 POP SWAP2 SWAP1 POP JUMP JUMPDEST PUSH0 PUSH2 0x1077 DUP3 PUSH2 0x104E JUMP JUMPDEST SWAP1 POP SWAP2 SWAP1 POP JUMP JUMPDEST PUSH2 0x1087 DUP2 PUSH2 0x106D JUMP JUMPDEST DUP3 MSTORE POP POP JUMP JUMPDEST PUSH0 PUSH1 0x20 DUP3 ADD SWAP1 POP PUSH2 0x10A0 PUSH0 DUP4 ADD DUP5 PUSH2 0x107E JUMP JUMPDEST SWAP3 SWAP2 POP POP JUMP JUMPDEST PUSH2 0x10AF DUP2 PUSH2 0x106D JUMP JUMPDEST DUP2 EQ PUSH2 0x10B9 JUMPI PUSH0 PUSH0 REVERT JUMPDEST POP JUMP JUMPDEST PUSH0 DUP2 CALLDATALOAD SWAP1 POP PUSH2 0x10CA DUP2 PUSH2 0x10A6 JUMP JUMPDEST SWAP3 SWAP2 POP POP JUMP JUMPDEST PUSH0 PUSH1 0x20 DUP3 DUP5 SUB SLT ISZERO PUSH2 0x10E5 JUMPI PUSH2 0x10E4 PUSH2 0xE88 JUMP JUMPDEST JUMPDEST PUSH0 PUSH2 0x10F2 DUP5 DUP3 DUP6 ADD PUSH2 0x10BC JUMP JUMPDEST SWAP2 POP POP SWAP3 SWAP2 POP POP JUMP JUMPDEST PUSH0 DUP2 ISZERO ISZERO SWAP1 POP SWAP2 SWAP1 POP JUMP JUMPDEST PUSH2 0x110F DUP2 PUSH2 0x10FB JUMP JUMPDEST DUP3 MSTORE POP POP JUMP JUMPDEST PUSH0 PUSH1 0x60 DUP3 ADD SWAP1 POP PUSH2 0x1128 PUSH0 DUP4 ADD DUP7 PUSH2 0xF7A JUMP JUMPDEST PUSH2 0x1135 PUSH1 0x20 DUP4 ADD DUP6 PUSH2 0x1106 JUMP JUMPDEST PUSH2 0x1142 PUSH1 0x40 DUP4 ADD DUP5 PUSH2 0x1106 JUMP JUMPDEST SWAP5 SWAP4 POP POP POP POP JUMP JUMPDEST PUSH0 PUSH0 REVERT JUMPDEST PUSH0 PUSH0 REVERT JUMPDEST PUSH32 0x4E487B7100000000000000000000000000000000000000000000000000000000 PUSH0 MSTORE PUSH1 0x41 PUSH1 0x4 MSTORE PUSH1 0x24 PUSH0 REVERT JUMPDEST PUSH2 0x1188 DUP3 PUSH2 0xFB1 JUMP JUMPDEST DUP2 ADD DUP2 DUP2 LT PUSH8 0xFFFFFFFFFFFFFFFF DUP3 GT OR ISZERO PUSH2 0x11A7 JUMPI PUSH2 0x11A6 PUSH2 0x1152 JUMP JUMPDEST JUMPDEST DUP1 PUSH1 0x40 MSTORE POP POP POP JUMP JUMPDEST PUSH0 PUSH2 0x11B9 PUSH2 0xE7F JUMP JUMPDEST SWAP1 POP PUSH2 0x11C5 DUP3 DUP3 PUSH2 0x117F JUMP JUMPDEST SWAP2 SWAP1 POP JUMP JUMPDEST PUSH0 PUSH8 0xFFFFFFFFFFFFFFFF DUP3 GT ISZERO PUSH2 0x11E4 JUMPI PUSH2 0x11E3 PUSH2 0x1152 JUMP JUMPDEST JUMPDEST PUSH2 0x11ED DUP3 PUSH2 0xFB1 JUMP JUMPDEST SWAP1 POP PUSH1 0x20 DUP2 ADD SWAP1 POP SWAP2 SWAP1 POP JUMP JUMPDEST DUP3 DUP2 DUP4 CALLDATACOPY PUSH0 DUP4 DUP4 ADD MSTORE POP POP POP JUMP JUMPDEST PUSH0 PUSH2 0x121A PUSH2 0x1215 DUP5 PUSH2 0x11CA JUMP JUMPDEST PUSH2 0x11B0 JUMP JUMPDEST SWAP1 POP DUP3 DUP2 MSTORE PUSH1 0x20 DUP2 ADD DUP5 DUP5 DUP5 ADD GT ISZERO PUSH2 0x1236 JUMPI PUSH2 0x1235 PUSH2 0x114E JUMP JUMPDEST JUMPDEST PUSH2 0x1241 DUP5 DUP3 DUP6 PUSH2 0x11FA JUMP JUMPDEST POP SWAP4 SWAP3 POP POP POP JUMP JUMPDEST PUSH0 DUP3 PUSH1 0x1F DUP4 ADD SLT PUSH2 0x125D JUMPI PUSH2 0x125C PUSH2 0x114A JUMP JUMPDEST JUMPDEST DUP2 CALLDATALOAD PUSH2 0x126D DUP5 DUP3 PUSH1 0x20 DUP7 ADD PUSH2 0x1208 JUMP JUMPDEST SWAP2 POP POP SWAP3 SWAP2 POP POP JUMP JUMPDEST PUSH0 PUSH1 0x20 DUP3 DUP5 SUB SLT ISZERO PUSH2 0x128B JUMPI PUSH2 0x128A PUSH2 0xE88 JUMP JUMPDEST JUMPDEST PUSH0 DUP3 ADD CALLDATALOAD PUSH8 0xFFFFFFFFFFFFFFFF DUP2 GT ISZERO PUSH2 0x12A8 JUMPI PUSH2 0x12A7 PUSH2 0xE8C JUMP JUMPDEST JUMPDEST PUSH2 0x12B4 DUP5 DUP3 DUP6 ADD PUSH2 0x1249 JUMP JUMPDEST SWAP2 POP POP SWAP3 SWAP2 POP POP JUMP JUMPDEST PUSH32 0x566F74696E67206973206E6F7420616374697665000000000000000000000000 PUSH0 DUP3 ADD MSTORE POP JUMP JUMPDEST PUSH0 PUSH2 0x12F1 PUSH1 0x14 DUP4 PUSH2 0xF93 JUMP JUMPDEST SWAP2 POP PUSH2 0x12FC DUP3 PUSH2 0x12BD JUMP JUMPDEST PUSH1 0x20 DUP3 ADD SWAP1 POP SWAP2 SWAP1 POP JUMP JUMPDEST PUSH0 PUSH1 0x20 DUP3 ADD SWAP1 POP DUP2 DUP2 SUB PUSH0 DUP4 ADD MSTORE PUSH2 0x131E DUP2 PUSH2 0x12E5 JUMP JUMPDEST SWAP1 POP SWAP2 SWAP1 POP JUMP JUMPDEST PUSH32 0x596F7520617265206E6F74207265676973746572656420746F20766F74650000 PUSH0 DUP3 ADD MSTORE POP JUMP JUMPDEST PUSH0 PUSH2 0x1359 PUSH1 0x1E DUP4 PUSH2 0xF93 JUMP JUMPDEST SWAP2 POP PUSH2 0x1364 DUP3 PUSH2 0x1325 JUMP JUMPDEST PUSH1 0x20 DUP3 ADD SWAP1 POP SWAP2 SWAP1 POP JUMP JUMPDEST PUSH0 PUSH1 0x20 DUP3 ADD SWAP1 POP DUP2 DUP2 SUB PUSH0 DUP4 ADD MSTORE PUSH2 0x1386 DUP2 PUSH2 0x134D JUMP JUMPDEST SWAP1 POP SWAP2 SWAP1 POP JUMP JUMPDEST PUSH32 0x596F75206861766520616C726561647920766F74656400000000000000000000 PUSH0 DUP3 ADD MSTORE POP JUMP JUMPDEST PUSH0 PUSH2 0x13C1 PUSH1 0x16 DUP4 PUSH2 0xF93 JUMP JUMPDEST SWAP2 POP PUSH2 0x13CC DUP3 PUSH2 0x138D JUMP JUMPDEST PUSH1 0x20 DUP3 ADD SWAP1 POP SWAP2 SWAP1 POP JUMP JUMPDEST PUSH0 PUSH1 0x20 DUP3 ADD SWAP1 POP DUP2 DUP2 SUB PUSH0 DUP4 ADD MSTORE PUSH2 0x13EE DUP2 PUSH2 0x13B5 JUMP JUMPDEST SWAP1 POP SWAP2 SWAP1 POP JUMP JUMPDEST PUSH32 0x4E6F7420616E206F776E65720000000000000000000000000000000000000000 PUSH0 DUP3 ADD MSTORE POP JUMP JUMPDEST PUSH0 PUSH2 0x1429 PUSH1 0xC DUP4 PUSH2 0xF93 JUMP JUMPDEST SWAP2 POP PUSH2 0x1434 DUP3 PUSH2 0x13F5 JUMP JUMPDEST PUSH1 0x20 DUP3 ADD SWAP1 POP SWAP2 SWAP1 POP JUMP JUMPDEST PUSH0 PUSH1 0x20 DUP3 ADD SWAP1 POP DUP2 DUP2 SUB PUSH0 DUP4 ADD MSTORE PUSH2 0x1456 DUP2 PUSH2 0x141D JUMP JUMPDEST SWAP1 POP SWAP2 SWAP1 POP JUMP JUMPDEST PUSH32 0x566F74696E6720616C72656164792073746172746564206F722066696E697368 PUSH0 DUP3 ADD MSTORE PUSH32 0x6564000000000000000000000000000000000000000000000000000000000000 PUSH1 0x20 DUP3 ADD MSTORE POP JUMP JUMPDEST PUSH0 PUSH2 0x14B7 PUSH1 0x22 DUP4 PUSH2 0xF93 JUMP JUMPDEST SWAP2 POP PUSH2 0x14C2 DUP3 PUSH2 0x145D JUMP JUMPDEST PUSH1 0x40 DUP3 ADD SWAP1 POP SWAP2 SWAP1 POP JUMP JUMPDEST PUSH0 PUSH1 0x20 DUP3 ADD SWAP1 POP DUP2 DUP2 SUB PUSH0 DUP4 ADD MSTORE PUSH2 0x14E4 DUP2 PUSH2 0x14AB JUMP JUMPDEST SWAP1 POP SWAP2 SWAP1 POP JUMP JUMPDEST PUSH32 0x4E487B7100000000000000000000000000000000000000000000000000000000 PUSH0 MSTORE PUSH1 0x22 PUSH1 0x4 MSTORE PUSH1 0x24 PUSH0 REVERT JUMPDEST PUSH0 PUSH1 0x2 DUP3 DIV SWAP1 POP PUSH1 0x1 DUP3 AND DUP1 PUSH2 0x152F JUMPI PUSH1 0x7F DUP3 AND SWAP2 POP JUMPDEST PUSH1 0x20 DUP3 LT DUP2 SUB PUSH2 0x1542 JUMPI PUSH2 0x1541 PUSH2 0x14EB JUMP JUMPDEST JUMPDEST POP SWAP2 SWAP1 POP JUMP JUMPDEST PUSH32 0x43616E64696461746520646F6573206E6F742065786973740000000000000000 PUSH0 DUP3 ADD MSTORE POP JUMP JUMPDEST PUSH0 PUSH2 0x157C PUSH1 0x18 DUP4 PUSH2 0xF93 JUMP JUMPDEST SWAP2 POP PUSH2 0x1587 DUP3 PUSH2 0x1548 JUMP JUMPDEST PUSH1 0x20 DUP3 ADD SWAP1 POP SWAP2 SWAP1 POP JUMP JUMPDEST PUSH0 PUSH1 0x20 DUP3 ADD SWAP1 POP DUP2 DUP2 SUB PUSH0 DUP4 ADD MSTORE PUSH2 0x15A9 DUP2 PUSH2 0x1570 JUMP JUMPDEST SWAP1 POP SWAP2 SWAP1 POP JUMP JUMPDEST PUSH32 0x4E487B7100000000000000000000000000000000000000000000000000000000 PUSH0 MSTORE PUSH1 0x32 PUSH1 0x4 MSTORE PUSH1 0x24 PUSH0 REVERT JUMPDEST PUSH32 0x43616E6E6F7420726567697374657220766F7465727320616674657220737461 PUSH0 DUP3 ADD MSTORE PUSH32 0x7274000000000000000000000000000000000000000000000000000000000000 PUSH1 0x20 DUP3 ADD MSTORE POP JUMP JUMPDEST PUSH0 PUSH2 0x1637 PUSH1 0x22 DUP4 PUSH2 0xF93 JUMP JUMPDEST SWAP2 POP PUSH2 0x1642 DUP3 PUSH2 0x15DD JUMP JUMPDEST PUSH1 0x40 DUP3 ADD SWAP1 POP SWAP2 SWAP1 POP JUMP JUMPDEST PUSH0 PUSH1 0x20 DUP3 ADD SWAP1 POP DUP2 DUP2 SUB PUSH0 DUP4 ADD MSTORE PUSH2 0x1664 DUP2 PUSH2 0x162B JUMP JUMPDEST SWAP1 POP SWAP2 SWAP1 POP JUMP JUMPDEST PUSH32 0x43616E6E6F74206164642063616E646964617465732061667465722073746172 PUSH0 DUP3 ADD MSTORE PUSH32 0x7400000000000000000000000000000000000000000000000000000000000000 PUSH1 0x20 DUP3 ADD MSTORE POP JUMP JUMPDEST PUSH0 PUSH2 0x16C5 PUSH1 0x21 DUP4 PUSH2 0xF93 JUMP JUMPDEST SWAP2 POP PUSH2 0x16D0 DUP3 PUSH2 0x166B JUMP JUMPDEST PUSH1 0x40 DUP3 ADD SWAP1 POP SWAP2 SWAP1 POP JUMP JUMPDEST PUSH0 PUSH1 0x20 DUP3 ADD SWAP1 POP DUP2 DUP2 SUB PUSH0 DUP4 ADD MSTORE PUSH2 0x16F2 DUP2 PUSH2 0x16B9 JUMP JUMPDEST SWAP1 POP SWAP2 SWAP1 POP JUMP JUMPDEST PUSH32 0x4E487B7100000000000000000000000000000000000000000000000000000000 PUSH0 MSTORE PUSH1 0x11 PUSH1 0x4 MSTORE PUSH1 0x24 PUSH0 REVERT JUMPDEST PUSH0 PUSH2 0x1730 DUP3 PUSH2 0xE90 JUMP JUMPDEST SWAP2 POP PUSH32 0xFFFFFFFFFFFFFFFFFFFFFFFFFFFFFFFFFFFFFFFFFFFFFFFFFFFFFFFFFFFFFFFF DUP3 SUB PUSH2 0x1762 JUMPI PUSH2 0x1761 PUSH2 0x16F9 JUMP JUMPDEST JUMPDEST PUSH1 0x1 DUP3 ADD SWAP1 POP SWAP2 SWAP1 POP JUMP JUMPDEST PUSH32 0x496E76616C696420766F74657220616464726573730000000000000000000000 PUSH0 DUP3 ADD MSTORE POP JUMP JUMPDEST PUSH0 PUSH2 0x17A1 PUSH1 0x15 DUP4 PUSH2 0xF93 JUMP JUMPDEST SWAP2 POP PUSH2 0x17AC DUP3 PUSH2 0x176D JUMP JUMPDEST PUSH1 0x20 DUP3 ADD SWAP1 POP SWAP2 SWAP1 POP JUMP JUMPDEST PUSH0 PUSH1 0x20 DUP3 ADD SWAP1 POP DUP2 DUP2 SUB PUSH0 DUP4 ADD MSTORE PUSH2 0x17CE DUP2 PUSH2 0x1795 JUMP JUMPDEST SWAP1 POP SWAP2 SWAP1 POP JUMP JUMPDEST PUSH32 0x566F74657220616C726561647920726567697374657265640000000000000000 PUSH0 DUP3 ADD MSTORE POP JUMP JUMPDEST PUSH0 PUSH2 0x1809 PUSH1 0x18 DUP4 PUSH2 0xF93 JUMP JUMPDEST SWAP2 POP PUSH2 0x1814 DUP3 PUSH2 0x17D5 JUMP JUMPDEST PUSH1 0x20 DUP3 ADD SWAP1 POP SWAP2 SWAP1 POP JUMP JUMPDEST PUSH0 PUSH1 0x20 DUP3 ADD SWAP1 POP DUP2 DUP2 SUB PUSH0 DUP4 ADD MSTORE PUSH2 0x1836 DUP2 PUSH2 0x17FD JUMP JUMPDEST SWAP1 POP SWAP2 SWAP1 POP JUMP JUMPDEST PUSH0 DUP2 SWAP1 POP DUP2 PUSH0 MSTORE PUSH1 0x20 PUSH0 KECCAK256 SWAP1 POP SWAP2 SWAP1 POP JUMP JUMPDEST PUSH0 PUSH1 0x20 PUSH1 0x1F DUP4 ADD DIV SWAP1 POP SWAP2 SWAP1 POP JUMP JUMPDEST PUSH0 DUP3 DUP3 SHL SWAP1 POP SWAP3 SWAP2 POP POP JUMP JUMPDEST PUSH0 PUSH1 0x8 DUP4 MUL PUSH2 0x1899 PUSH32 0xFFFFFFFFFFFFFFFFFFFFFFFFFFFFFFFFFFFFFFFFFFFFFFFFFFFFFFFFFFFFFFFF DUP3 PUSH2 0x185E JUMP JUMPDEST PUSH2 0x18A3 DUP7 DUP4 PUSH2 0x185E JUMP JUMPDEST SWAP6 POP DUP1 NOT DUP5 AND SWAP4 POP DUP1 DUP7 AND DUP5 OR SWAP3 POP POP POP SWAP4 SWAP3 POP POP POP JUMP JUMPDEST PUSH0 DUP2 SWAP1 POP SWAP2 SWAP1 POP JUMP JUMPDEST PUSH0 PUSH2 0x18DE PUSH2 0x18D9 PUSH2 0x18D4 DUP5 PUSH2 0xE90 JUMP JUMPDEST PUSH2 0x18BB JUMP JUMPDEST PUSH2 0xE90 JUMP JUMPDEST SWAP1 POP SWAP2 SWAP1 POP JUMP JUMPDEST PUSH0 DUP2 SWAP1 POP SWAP2 SWAP1 POP JUMP JUMPDEST PUSH2 0x18F7 DUP4 PUSH2 0x18C4 JUMP JUMPDEST PUSH2 0x190B PUSH2 0x1903 DUP3 PUSH2 0x18E5 JUMP JUMPDEST DUP5 DUP5 SLOAD PUSH2 0x186A JUMP JUMPDEST DUP3 SSTORE POP POP POP POP JUMP JUMPDEST PUSH0 PUSH0 SWAP1 POP SWAP1 JUMP JUMPDEST PUSH2 0x1922 PUSH2 0x1913 JUMP JUMPDEST PUSH2 0x192D DUP2 DUP5 DUP5 PUSH2 0x18EE JUMP JUMPDEST POP POP POP JUMP JUMPDEST PUSH0 JUMPDEST DUP3 DUP2 LT ISZERO PUSH2 0x1953 JUMPI PUSH2 0x1948 PUSH0 DUP3 DUP5 ADD PUSH2 0x191A JUMP JUMPDEST PUSH1 0x1 DUP2 ADD SWAP1 POP PUSH2 0x1934 JUMP JUMPDEST POP POP POP JUMP JUMPDEST PUSH1 0x1F DUP3 GT ISZERO PUSH2 0x19A6 JUMPI DUP3 DUP3 GT ISZERO PUSH2 0x19A5 JUMPI PUSH2 0x1972 DUP2 PUSH2 0x183D JUMP JUMPDEST PUSH2 0x197B DUP4 PUSH2 0x184F JUMP JUMPDEST PUSH2 0x1984 DUP6 PUSH2 0x184F JUMP JUMPDEST PUSH1 0x20 DUP7 LT ISZERO PUSH2 0x1991 JUMPI PUSH0 SWAP1 POP JUMPDEST DUP1 DUP4 ADD PUSH2 0x19A0 DUP3 DUP5 SUB DUP3 PUSH2 0x1932 JUMP JUMPDEST POP POP POP POP JUMPDEST JUMPDEST POP POP POP JUMP JUMPDEST PUSH0 DUP3 DUP3 SHR SWAP1 POP SWAP3 SWAP2 POP POP JUMP JUMPDEST PUSH0 PUSH2 0x19C6 PUSH0 NOT DUP5 PUSH1 0x8 MUL PUSH2 0x19AB JUMP JUMPDEST NOT DUP1 DUP4 AND SWAP2 POP POP SWAP3 SWAP2 POP POP JUMP JUMPDEST PUSH0 PUSH2 0x19DE DUP4 DUP4 PUSH2 0x19B7 JUMP JUMPDEST SWAP2 POP DUP3 PUSH1 0x2 MUL DUP3 OR SWAP1 POP SWAP3 SWAP2 POP POP JUMP JUMPDEST PUSH2 0x19F7 DUP3 PUSH2 0xF89 JUMP JUMPDEST PUSH8 0xFFFFFFFFFFFFFFFF DUP2 GT ISZERO PUSH2 0x1A10 JUMPI PUSH2 0x1A0F PUSH2 0x1152 JUMP JUMPDEST JUMPDEST PUSH2 0x1A1A DUP3 SLOAD PUSH2 0x1518 JUMP JUMPDEST PUSH2 0x1A25 DUP3 DUP3 DUP6 PUSH2 0x1958 JUMP JUMPDEST PUSH0 PUSH1 0x20 SWAP1 POP PUSH1 0x1F DUP4 GT PUSH1 0x1 DUP2 EQ PUSH2 0x1A56 JUMPI PUSH0 DUP5 ISZERO PUSH2 0x1A44 JUMPI DUP3 DUP8 ADD MLOAD SWAP1 POP JUMPDEST PUSH2 0x1A4E DUP6 DUP3 PUSH2 0x19D3 JUMP JUMPDEST DUP7 SSTORE POP PUSH2 0x1AB5 JUMP JUMPDEST PUSH1 0x1F NOT DUP5 AND PUSH2 0x1A64 DUP7 PUSH2 0x183D JUMP JUMPDEST PUSH0 JUMPDEST DUP3 DUP2 LT ISZERO PUSH2 0x1A8B JUMPI DUP5 DUP10 ADD MLOAD DUP3 SSTORE PUSH1 0x1 DUP3 ADD SWAP2 POP PUSH1 0x20 DUP6 ADD SWAP5 POP PUSH1 0x20 DUP2 ADD SWAP1 POP PUSH2 0x1A66 JUMP JUMPDEST DUP7 DUP4 LT ISZERO PUSH2 0x1AA8 JUMPI DUP5 DUP10 ADD MLOAD PUSH2 0x1AA4 PUSH1 0x1F DUP10 AND DUP3 PUSH2 0x19B7 JUMP JUMPDEST DUP4 SSTORE POP JUMPDEST PUSH1 0x1 PUSH1 0x2 DUP9 MUL ADD DUP9 SSTORE POP POP POP JUMPDEST POP POP POP POP POP POP JUMP JUMPDEST PUSH0 PUSH1 0x40 DUP3 ADD SWAP1 POP PUSH2 0x1AD0 PUSH0 DUP4 ADD DUP6 PUSH2 0xF7A JUMP JUMPDEST DUP2 DUP2 SUB PUSH1 0x20 DUP4 ADD MSTORE PUSH2 0x1AE2 DUP2 DUP5 PUSH2 0xFC1 JUMP JUMPDEST SWAP1 POP SWAP4 SWAP3 POP POP POP JUMP INVALID LOG2 PUSH5 0x6970667358 0x22 SLT KECCAK256 DUP3 PUSH26 0xB4DE17D1F3D05C728F6E90FC8E70F918B77C28013889FC65F2F6 0xD0 BLOBBASEFEE 0xC1 0x29 PUSH5 0x736F6C6343 STOP ADDMOD 0x22 STOP CALLER "
				},
				"gasEstimates": {
					"creation": {
						"codeDepositCost": "1389000",
						"executionCost": "27256",
						"totalCost": "1416256"
					},
					"external": {
						"addCandidateToVote(string)": "infinite",
						"candidates(uint256)": "infinite",
						"finishVoting()": "29694",
						"getCandidate(uint256)": "infinite",
						"owner()": "2529",
						"registerVoterToVote(address)": "infinite",
						"startVoting()": "29606",
						"status()": "2599",
						"totalCandidates()": "2551",
						"vote(uint256)": "infinite",
						"voterCount()": "2425",
						"voters(address)": "infinite"
					}
				},
				"methodIdentifiers": {
					"addCandidateToVote(string)": "b73e5879",
					"candidates(uint256)": "3477ee2e",
					"finishVoting()": "f9094303",
					"getCandidate(uint256)": "35b8e820",
					"owner()": "8da5cb5b",
					"registerVoterToVote(address)": "93c0992e",
					"startVoting()": "1ec6b60a",
					"status()": "200d2ed2",
					"totalCandidates()": "3866965c",
					"vote(uint256)": "0121b93f",
					"voterCount()": "42169e48",
					"voters(address)": "a3ec138d"
				}
			},
			"storageLayout": {
				"storage": [
					{
						"astId": 116,
						"contract": "contracts/Vote.sol:Vote",
						"label": "owner",
						"offset": 0,
						"slot": "0",
						"type": "t_address"
					},
					{
						"astId": 15,
						"contract": "contracts/Vote.sol:Vote",
						"label": "candidates",
						"offset": 0,
						"slot": "1",
						"type": "t_array(t_struct(Candidate)11_storage)dyn_storage"
					},
					{
						"astId": 328,
						"contract": "contracts/Vote.sol:Vote",
						"label": "voterCount",
						"offset": 0,
						"slot": "2",
						"type": "t_uint256"
					},
					{
						"astId": 333,
						"contract": "contracts/Vote.sol:Vote",
						"label": "voters",
						"offset": 0,
						"slot": "3",
						"type": "t_mapping(t_address,t_struct(Voter)326_storage)"
					},
					{
						"astId": 168,
						"contract": "contracts/Vote.sol:Vote",
						"label": "status",
						"offset": 0,
						"slot": "4",
						"type": "t_enum(Status)165"
					}
				],
				"types": {
					"t_address": {
						"encoding": "inplace",
						"label": "address",
						"numberOfBytes": "20"
					},
					"t_array(t_struct(Candidate)11_storage)dyn_storage": {
						"base": "t_struct(Candidate)11_storage",
						"encoding": "dynamic_array",
						"label": "struct CandidateRegistry.Candidate[]",
						"numberOfBytes": "32"
					},
					"t_bool": {
						"encoding": "inplace",
						"label": "bool",
						"numberOfBytes": "1"
					},
					"t_enum(Status)165": {
						"encoding": "inplace",
						"label": "enum Vote.Status",
						"numberOfBytes": "1"
					},
					"t_mapping(t_address,t_struct(Voter)326_storage)": {
						"encoding": "mapping",
						"key": "t_address",
						"label": "mapping(address => struct VoterRegistry.Voter)",
						"numberOfBytes": "32",
						"value": "t_struct(Voter)326_storage"
					},
					"t_string_storage": {
						"encoding": "bytes",
						"label": "string",
						"numberOfBytes": "32"
					},
					"t_struct(Candidate)11_storage": {
						"encoding": "inplace",
						"label": "struct CandidateRegistry.Candidate",
						"members": [
							{
								"astId": 6,
								"contract": "contracts/Vote.sol:Vote",
								"label": "id",
								"offset": 0,
								"slot": "0",
								"type": "t_uint256"
							},
							{
								"astId": 8,
								"contract": "contracts/Vote.sol:Vote",
								"label": "name",
								"offset": 0,
								"slot": "1",
								"type": "t_string_storage"
							},
							{
								"astId": 10,
								"contract": "contracts/Vote.sol:Vote",
								"label": "votes",
								"offset": 0,
								"slot": "2",
								"type": "t_uint256"
							}
						],
						"numberOfBytes": "96"
					},
					"t_struct(Voter)326_storage": {
						"encoding": "inplace",
						"label": "struct VoterRegistry.Voter",
						"members": [
							{
								"astId": 321,
								"contract": "contracts/Vote.sol:Vote",
								"label": "id",
								"offset": 0,
								"slot": "0",
								"type": "t_uint256"
							},
							{
								"astId": 323,
								"contract": "contracts/Vote.sol:Vote",
								"label": "isRegistered",
								"offset": 0,
								"slot": "1",
								"type": "t_bool"
							},
							{
								"astId": 325,
								"contract": "contracts/Vote.sol:Vote",
								"label": "hasVoted",
								"offset": 1,
								"slot": "1",
								"type": "t_bool"
							}
						],
						"numberOfBytes": "64"
					},
					"t_uint256": {
						"encoding": "inplace",
						"label": "uint256",
						"numberOfBytes": "32"
					}
				}
			},
			"userdoc": {
				"kind": "user",
				"methods": {},
				"version": 1
			}
		}
	}
}